:100000000C940A040C9432040C9432040C943204C0
:100010000C9432040C9432040C9432040C94320488
:100020000C9432040C9432040C9432040C94320478
:100030000C9432040C9432040C9432040C94320468
:100040000C94A2190C9432040C94161B0C94481BAB
:100050000C9432040C9432040C9432040C94320448
:100060000C9432040C94320400000000003E5B4FFC
:100070005B3E3E6B4F6B3E1C3E7C3E1C183C7E3C08
:10008000181C577D571C1C5E7F5E1C00183C180016
:10009000FFE7C3E7FF0018241800FFE7DBE7FF30A6
:1000A000483A060E2629792926407F050507407F14
:1000B00005253F5A3CE73C5A7F3E1C1C08081C1C87
:1000C0003E7F14227F22145F5F005F5F06097F017D
:1000D0007F006689956A606060606094A2FFA29468
:1000E00008047E040810207E201008082A1C080836
:1000F0001C2A08081E101010100C1E0C1E0C303884
:100100003E3830060E3E0E06000000000000005F84
:1001100000000007000700147F147F14242A7F2AA0
:100120001223130864623649562050000807030062
:10013000001C2241000041221C002A1C7F1C2A08AE
:10014000083E080800807030000808080808000011
:1001500060600020100804023E5149453E00427F85
:10016000400072494949462141494D331814127FD4
:100170001027454545393C4A494931412111090774
:100180003649494936464949291E000014000000F5
:1001900040340000000814224114141414140041C7
:1001A00022140802015909063E415D594E7C121184
:1001B000127C7F494949363E414141227F414141BC
:1001C0003E7F494949417F090909013E4141517337
:1001D0007F0808087F00417F41002040413F017FA8
:1001E000081422417F404040407F021C027F7F0470
:1001F00008107F3E4141413E7F090909063E4151B9
:10020000215E7F09192946264949493203017F01A8
:10021000033F4040403F1F2040201F3F4038403FA9
:10022000631408146303047804036159494D4300BF
:100230007F4141410204081020004141417F0402F6
:10024000010204404040404000030708002054548D
:1002500078407F284444383844444428384444286B
:100260007F385454541800087E090218A4A49C78BE
:100270007F0804047800447D40002040403D007F1A
:100280001028440000417F40007C047804787C08FA
:100290000404783844444438FC18242418182424CE
:1002A00018FC7C08040408485454542404043F44B3
:1002B000243C4040207C1C2040201C3C4030403CE2
:1002C00044281028444C9090907C4464544C440042
:1002D00008364100000077000000413608000201A6
:1002E0000204023C2623263C1EA1A161123A404092
:1002F000207A38545455592155557941225454780F
:1003000042215554784020545579400C1E527212A7
:100310003955555559395454545939555454580030
:1003200000457C410002457D420001457C407D1234
:1003300011127DF0282528F07C5455450020545496
:100340007C547C0A097F4932494949323A44444441
:100350003A324A4848303A4141217A3A424020787C
:10036000009DA0A07D3D4242423D3D4040403D3C7D
:1003700024FF2424487E4943662B2FFC2F2BFF09A2
:1003800029F620C0887E0903205454794100004496
:100390007D413048484A32384040227A007A0A0A81
:1003A000727D0D19317D2629292F282629292926F4
:1003B00030484D4020380808080808080808382F39
:1003C00010C8ACBA2F102834FA00007B00000814C3
:1003D0002A142222142A1408AA005500AAAA55AAEF
:1003E00055AA000000FF00101010FF00141414FFA5
:1003F000001010FF00FF1010F010F0141414FC0097
:100400001414F700FF0000FF00FF1414F404FC14A0
:100410001417101F10101F101F1414141F00101099
:1004200010F0000000001F101010101F101010100E
:10043000F010000000FF101010101010101010FF2E
:1004400010000000FF140000FF00FF00001F101745
:100450000000FC04F414141710171414F404F4002E
:1004600000FF00F714141414141414F700F71414F4
:1004700014171410101F101F141414F4141010F07B
:1004800010F000001F101F0000001F14000000FCEF
:10049000140000F010F01010FF10FF141414FF14DB
:1004A0001010101F00000000F010FFFFFFFFFFF012
:1004B000F0F0F0F0FFFFFF0000000000FFFF0F0F63
:1004C0000F0F0F3844443844FC4A4A4A347E020233
:1004D0000606027E027E0263554941633844443C6D
:1004E00004407E201E2006027E020299A5E7A599FF
:1004F0001C2A492A1C4C7201724C304A4D4D303036
:1005000048784830BC625A463D3E494949007E0120
:1005100001017E2A2A2A2A2A44445F444440514A3F
:10052000444040444A51400000FF0103E080FF0086
:100530000008086B6B083612362436060F090F06C2
:10054000000018180000001010003040FF010100EA
:100550001F01011E00191D1712003C3C3C3C00000D
:100560000000000100E901201100FF64D1030071C7
:1005700019D0030701083601483A0105C1041010DB
:100580000202C006003100000102C50104D20201CE
:1005900044C80F04673504080624013740031008D7
:1005A00080002A04000000EF2B050000013F8F2986
:1005B000002C000100CB05392C003402CF0300C110
:1005C00030E803850078EA020000ED04640312813C
:1005D000F70120C00123C10110C5023E28C70186D2
:1005E0003601483A0155B1020018B603088227F2D5
:1005F0000100260101E00F0F312B0C0E084EF137E0
:100600000710030E0900E10F000E1403110731C19A
:1006100048080F0C31360F1100FF9629002C0000FE
:10062000000100FF0032000100000102000007038A
:10063000003010040000000700000008000202095A
:100640000000000A0000000C0000000D0000000F78
:10065000000000100000001100070012000000134D
:10066000000000FF00C8001000901611000800FFF5
:1006700000320012001800FF0032001300000029B1
:10068000002A00FF0032003000000031000000327C
:100690000000003500060236000808370007003861
:1006A000000102390000003C0000003D0000005045
:1006B0000000005100EF005200000053003F0160B5
:1006C0000000A7610003006A000000900010009283
:1006D00000000093000300950000119700000098AF
:1006E000000000070033010100B903FF8357FFFA40
:1006F000B30400000606B60125B00168CC0105B1BF
:100700000600151C1C83AAC0065050013C1E08B4EC
:10071000070240002A2A0D783A01553601C03501FA
:1007200000440200021100FF962900FF322E8929A1
:100730008F2B02E200E401E510E601E710E870F219
:1007400000EA00EB20EC3CEDC8E938F1011B1A1A75
:10075000022461255C183619011F88FF051F80FFE0
:10076000051F90FF051FD4FF05170536092838FF20
:1007700028283C02000300040005EF0600070008DB
:1007800001093F57696E646F774D616E61676572ED
:100790002069736E277420696E697469616C697A67
:1007A000656400556E6B6E6F776E204C4344206419
:1007B000726976657220636869703A2000000000F3
:1007C0000800020100000304070000000000000010
:1007D00000010204081020408001020408102001DA
:1007E00002040810200404040404040404020202A5
:1007F0000202020303030303030000000025002894
:10080000002B0000000000240027002A00006A04DA
:100810008C17781B11241FBECFEFD8E0DEBFCDBFF1
:1008200011E0A0E0B1E0EAE8FEE302C005900D921D
:10083000A038B107D9F722E0A0E8B1E001C01D92CD
:10084000A636B207E1F718E0C4E1D8E004C0229769
:10085000FE010E94031ECE30D107C9F70E94BC1BC7
:100860000C94431F0C94000061E08DE00E94A51AD7
:100870000E94A91780918401909185010C944F17D3
:1008800080918201909183010E94C116882361F0BA
:1008900061E08DE00E94DE1A67E071E080918001E6
:1008A000909181010E94571780918201909183015C
:1008B0000E94CD16882361F060E08DE00E94DE1A70
:1008C0006EE071E080918001909181010E94571744
:1008D0000C9413180E94A8169093850180938401AC
:1008E00020E044E650E06AE570E00E941217909321
:1008F0008301809382012CED30E04AE050E06AE011
:1009000070E080918401909185010E94D9169093A6
:1009100081018093800108952F923F924F925F92C0
:100920006F927F928F929F92AF92BF92CF92DF92FF
:10093000EF92FF920F931F93CF93DF9300D000D0DD
:10094000CDB7DEB74C017C836B836A015901C801C6
:100950008701AC014C195D0957FF03C051954195C2
:10096000510995016B817C81261B370B37FF03C032
:1009700031952195310922242394312C24173507F0
:1009800014F0212C312C2114310459F03A2D2B2D47
:100990005C01832F922F3B812C81DC82CB82C32E82
:1009A000D22EAB81BC81AA16BB065CF43C2D2D2D4A
:1009B0006C01832F922F3B812C81BC82AB82A32EB2
:1009C000B22E2501EB81FC814E1A5F0A3C016C18A6
:1009D0007D0877FE03C0719461947108720157FE1F
:1009E00003C0FFEFEF1AFF0AF594E794C816D90683
:1009F0002CF421E030E03A83298324C06FEF7FEFAD
:100A00007A8369831FC0D401ED91FC910480F58144
:100A1000E02D980121143104D9F04B815C81B6019D
:100A2000C4010995E618F708F7FE06C0E981FA81C6
:100A3000CE0EDF1EE40CF51C2B813C812F5F3F4F57
:100A40003C832B836B817C81A616B706E4F604C039
:100A5000A6016B817C81E4CF0F900F900F900F90D7
:100A6000DF91CF911F910F91FF90EF90DF90CF908A
:100A7000BF90AF909F908F907F906F905F904F90BE
:100A80003F902F9008956F927F928F929F92AF9296
:100A9000BF92CF92DF92EF92FF920F931F93CF936B
:100AA000DF93EC015B016A0139014801E881F981BA
:100AB0000284F385E02D87010995E881F981A6017B
:100AC000480D591D415051090284F385E02D9301D1
:100AD000B501CE010995E881F9810084F185E02D09
:100AE0009401A601B501CE010995E881F981B5010E
:100AF000660D771D615071090084F185E02D940128
:100B0000A601CE010995DF91CF911F910F91FF9022
:100B1000EF90DF90CF90BF90AF909F908F907F909D
:100B20006F900895EF92FF920F931F93DC01ED9168
:100B3000FC91240F351F215031090680F781E02DEB
:100B4000780189019B0109951F910F91FF90EF900A
:100B50000895EF92FF920F931F93DC01ED91FC91AA
:100B6000260F371F215031090680F781E02D7801CB
:100B70008A0109951F910F91FF90EF9008956F9250
:100B80007F928F929F92AF92BF92CF92DF92EF921D
:100B9000FF920F931F93CF93DF935C014A0169018A
:100BA0003801EB01C60ED71ECC15DD0574F4D50156
:100BB000ED91FC910084F185E02D87019301A40162
:100BC000BE01C50109952196EFCFDF91CF911F910D
:100BD0000F91FF90EF90DF90CF90BF90AF909F90DC
:100BE0008F907F906F900895EF92FF920F931F93D5
:100BF000DC01ED91FC9111971A960D911C911B97B8
:100C000018962D913C9119970684F785E02D7B016C
:100C100040E050E060E070E009951F910F91FF9077
:100C2000EF9008950895FC01138212828AE191E009
:100C3000918380837583648357834683718760873C
:100C400053874287158A158614861786168621E0F3
:100C5000248B8FEF9FEF938B828B918B808B268BD6
:100C600008952F923F924F925F926F927F928F9250
:100C70009F92AF92BF92CF92DF92EF92FF920F932B
:100C80001F93CF93DF93CDB7DEB72C970FB6F894B1
:100C9000DEBF0FBECDBF9C878B873A0118870F83BD
:100CA000FA86E986CD82DC0118968D919C91199780
:100CB000681779070CF094C01A968D919C911B9738
:100CC000481759070CF08CC08C2C912CCB01B6E046
:100CD000CB9E800D911D1124181619060CF080C0B2
:100CE000C40153E0880F991F5A95E1F7860D971DAF
:100CF000181619060CF074C0F5E02F9F200111247E
:100D00005B016B011C82920128593F4F2901461A51
:100D1000570A3C81353031F0F201EA0DFB1D449158
:100D20004B8301C01B827A82698213011E828B81F0
:100D300080FF13C0AB85BC85ED91FC91BD81B130C6
:100D400031F40480F581E02D2F81388519C00684A7
:100D5000F785E02DEF80F8841EC0E985FA852F81A4
:100D60003885E217F307F9F0AB85BC85ED91FC916E
:100D7000BD81B13059F40480F581E02D29853A8593
:100D8000A101B5018B859C8509950DC00684F78569
:100D9000E02DE984FA848401940149815A81B601E5
:100DA0008B859C850995EB81E695EB83FE81FF5F42
:100DB000FE8329813A81280D391D3A8329833FEF2B
:100DC000231A330AF83009F0B2CF4C814F5F4C83BD
:100DD000C80CD91C8FEFA81AB80A463009F099CF71
:100DE0002C960FB6F894DEBF0FBECDBFDF91CF912A
:100DF0001F910F91FF90EF90DF90CF90BF90AF9039
:100E00009F908F907F906F905F904F903F902F902A
:100E10000895CF92EF92FF920F931F93CF93DF939A
:100E2000EC01262F6A3049F42C898E859F8538E0A5
:100E3000239F800D911D112432C06D30A1F1EA88ED
:100E4000FB88088919894E855F856C857D85CC88EE
:100E50000E9431062C89422F50E08C859D8536E01A
:100E6000239F800D911D11249D878C872E8922231D
:100E7000D1F06AEF64039001659F300D11246885FD
:100E80007985260F371F281739076CF463E0440F64
:100E9000551F6A95E1F78E859F85840F951F9F8763
:100EA0008E871D861C8681E090E0DF91CF911F9197
:100EB0000F91FF90EF90CF900895FC0175876487A4
:100EC000578746870895611101C061E0FC01648B7A
:100ED0000895FC01718B608B538B428B0895FC014C
:100EE0006370658B8481958126813781613039F00B
:100EF000633029F09187808733872287089531876F
:100F00002087938782870895CF93DF93EC01E88D44
:100F1000F98D808198A1892B8083EC8DFD8D808156
:100F20009AA1892B8083EE8DFF8D80819BA1892BD7
:100F3000808388A5882369F060E00E94DE1A62E061
:100F400070E080E090E00E940F1A61E088A50E94A6
:100F5000DE1AE88DF98D80819CA189238083EA8D3A
:100F6000FB8D80819DA1892380838BB183708BB998
:100F700085B18C7F85B9EC8DFD8D80819EA1892303
:100F80008083EC8DFD8D80819AA1892B808383E005
:100F9000EC8DFD8D90812EA192239083EC8DFD8DA3
:100FA00090812AA1922B9083815091F7E88DF98D41
:100FB000808198A1892B8083DF91CF910895DF9262
:100FC000EF92FF920F931F93CF93DF93FC016095F5
:100FD0007095CB01A08DB18DCC91D4A1CD23CC93B4
:100FE000A28DB38DCC91D5A1CD23CC93A789A2306E
:100FF000C9F0A530B9F0A11113C0ABB1A370ABB962
:10100000A5B1AC7FA5B9A48DB58DCC91D6A1CD23CA
:10101000CC93A48DB58DCC91D2A1CD2BCC9309C00E
:10102000A33039F4ABB1A370AC62ABB9A5B1AC7F5E
:1010300007C0ABB1A370A062ABB9A5B1AC7FA26091
:10104000A5B9A48DB58DCC91D6A1CD23CC93A48D7B
:10105000B58DCC91D2A1CD2BCC93A28DB38DCC915B
:10106000D1A1CD2BCC93ABB1C72FCC7FA370AC2B30
:10107000ABB9A5B1D72FD370AC7FAD2BA5B9A48DDB
:10108000B58D7C9116A171237C93A48DB58D7C9137
:1010900012A1712B7C937BB1A62FAC7FFA2E7370BB
:1010A0007A2B7BB975B1A62FA370EA2E7C7F7A2BA1
:1010B00075B9A48DB58D6C9176A167236C93A48DC1
:1010C000B58D6C9172A1672B6C93BA01A901415047
:1010D0005109610971098A019B0156E036952795EE
:1010E000179507955A95D1F7981719F080E090E079
:1010F0003AC180E090E00817190709F466C020E1C2
:10110000A48DB58D3C91C6A13C233C93A48DB58D97
:101110003C91C2A13C2B3C93A48DB58D3C91C6A1C2
:101120003C233C93A48DB58D3C91C2A13C2B3C93B8
:10113000A48DB58D3C91C6A13C233C93A48DB58D67
:101140003C91C2A13C2B3C93A48DB58D3C91C6A192
:101150003C233C93A48DB58D3C91C2A13C2B3C9388
:10116000A48DB58D3C91C6A13C233C93A48DB58D37
:101170003C91C2A13C2B3C93A48DB58D3C91C6A162
:101180003C233C93A48DB58D3C91C2A13C2B3C9358
:10119000A48DB58D3C91C6A13C233C93A48DB58D07
:1011A0003C91C2A13C2B3C93A48DB58D3C91C6A132
:1011B0003C233C93A48DB58D3C91C2A13C2B3C9328
:1011C000215009F09DCF019696CF4F734150C8F042
:1011D000A48DB58D8C9196A189238C93A48DB58D0A
:1011E0008C9192A1892B8C93A48DB58D8C9196A115
:1011F00089238C93A48DB58D8C9192A1892B8C938E
:10120000E5CFA08DB18D8C9190A1892B8C93DF912E
:10121000CF911F910F91FF90EF90DF9008953BB118
:1012200033703C2B3BB935B13C7F3D2B35B9A48D98
:10123000B58D3C91D6A03D213C93A48DB58D3C91BC
:10124000D2A03D293C933BB133703F293BB935B126
:101250003C7F3E2935B9A48DB58D3C91D6A03D216A
:101260003C93A48DB58D3C91D2A03D293C933BB1DC
:1012700033703C2B3BB935B13C7F3D2B35B9A48D48
:10128000B58D3C91D6A03D213C93A48DB58D3C916C
:10129000D2A03D293C933BB133703F293BB935B1D6
:1012A0003C7F3E2935B9A48DB58D3C91D6A03D211A
:1012B0003C93A48DB58D3C91D2A03D293C933BB18C
:1012C00033703C2B3BB935B13C7F3D2B35B9A48DF8
:1012D000B58D3C91D6A03D213C93A48DB58D3C911C
:1012E000D2A03D293C933BB133703F293BB935B186
:1012F0003C7F3E2935B9A48DB58D3C91D6A03D21CA
:101300003C93A48DB58D3C91D2A03D293C933BB13B
:1013100033703C2B3BB935B13C7F3D2B35B9A48DA7
:10132000B58D3C91D6A03D213C93A48DB58D3C91CB
:10133000D2A03D293C933BB133703F293BB935B135
:101340003C7F3E2935B9A48DB58D3C91D6A03D2179
:101350003C93A48DB58D3C91D2A03D293C93215066
:1013600009F05DCF01960817190711F020E157CF5A
:101370004F73415008F445CF8BB183708C2B8BB9E0
:1013800085B18C7F8D2B85B9A48DB58D8C9196A15F
:1013900089238C93A48DB58D8C9192A1892B8C93EC
:1013A0008BB183708F298BB985B18C7F8E2985B9DC
:1013B000A48DB58D8C9196A189238C93A48DB58D28
:1013C0008C9192A1892B8C93D4CFFC01A68DB78DE3
:1013D0008C9197A189238C9300C000C000C00000AD
:1013E00089B193B1A68DB78D2C9133A1232B2C936A
:1013F00093708C7F892B08958AB18C6F8AB984B1E0
:10140000836084B90895CF93DF93EC010E94FC09B7
:101410001D8A1D861C861F861E8681E08C8B8FEFA1
:101420009FEF998B888B80EF90E09987888780E485
:1014300091E09B878A87DF91CF9108959F92AF9229
:10144000BF92CF92DF92EF92FF920F931F93CF93B1
:10145000DF93EC01A62EF42EB22E902E40E451E044
:1014600060EF70E00E94130687E491E0998388831F
:10147000E8A66A2D70E0FB01EB51F84FE491F0E033
:10148000EE0FFF1FE750F84FA591B491B98FA88FC9
:101490004F2D50E0FA01EB51F84FE491F0E0EE0FE0
:1014A000FF1FE750F84F859194919B8F8A8F2B2DCA
:1014B00030E0F901EB51F84FE491F0E0EE0FFF1F3F
:1014C000E750F84F859194919D8F8C8F092D10E0F6
:1014D000F801EB51F84FE491F0E0EE0FFF1FE750F9
:1014E000F84FC590D490DF8ECE8EFB01EF52F84FAF
:1014F000649168A3FA01EF52F84F449149A3F901AE
:10150000EF52F84F24912AA3F801EF52F84F0491BB
:101510000BA398A1892F80958CA389A180958DA379
:101520008AA180958EA300950FA38C91892B8C9313
:10153000EA8DFB8D808199A1892B8083EC8DFD8DB7
:1015400080819AA1892B8083EE8DFF8D80819BA164
:10155000892B808361E08A2D0E94A51A61E08F2D7E
:101560000E94A51A61E08B2D0E94A51A61E0892DC9
:101570000E94A51AEE2041F061E08E2D0E94DE1A35
:1015800061E08E2D0E94A51ACE01DF91CF911F91AF
:101590000F91FF90EF90DF90CF90BF90AF909F9012
:1015A0000C94030A8AB183708AB984B18C7F84B9A0
:1015B0000895CF92DF92EF92FF920F931F93CF93F4
:1015C000DF931F92CDB7DEB78C01DC015896ED9109
:1015D000FC915997808194969C919497892380835C
:1015E0005A96ED91FC915B97808195969C91959789
:1015F000892380839BB1862F8C7F9370892B8BB935
:1016000095B1862F83709C7F892B85B95C96ED916F
:10161000FC915D97808196969C9196978923808313
:101620005C96ED91FC915D97808192969C91892BBF
:101630008083C80169830E94D20AD8015A96ED912D
:10164000FC915B97808191969C91892B808382E3AA
:1016500090E00E94371AC8010E94E509C82ED12CDB
:10166000E12CF12CFE2CED2CDC2CCC24C8010E94AA
:10167000E509C82AFE2CED2CDC2CCC24C8010E94E4
:10168000E509C82AFE2CED2CDC2CCC24C8010E94D4
:10169000E509C82A69816F3E41F4FE2CED2CDC2C53
:1016A000CC24C8010E94E509C82AD8015896ED91BA
:1016B000FC915997808190969C91892B8083C801D9
:1016C0000E94FC0966E970E080E090E00E940F1A39
:1016D000C701B6010F90DF91CF911F910F91FF903D
:1016E000EF90DF90CF900895FC01A28DB38D8C9187
:1016F00095A189238C939BB1862F8C7F9370892B26
:101700008BB985B163708C7F682B65B9A48DB58D5D
:101710008C9196A189238C93A48DB58D8C9192A1E7
:10172000892B8C93A28DB38D8C9191A1892B8C9355
:101730009BB1842F8C7F9370892B8BB985B14370BB
:101740008C7F482B45B9A48DB58D8C9196A18923AA
:101750008C93A48DB58D8C9192A1892B8C93089537
:10176000FC01A28DB38D8C9195A189238C939BB1A3
:10177000872F8C7F9370892B8BB985B173708C7F89
:10178000782B75B9A48DB58D8C9196A189238C93F6
:10179000A48DB58D8C9192A1892B8C939BB1862FB2
:1017A0008C7F9370892B8BB985B163708C7F682B8C
:1017B00065B9A48DB58D8C9196A189238C93A48D48
:1017C000B58D8C9192A1892B8C93A28DB38D8C9128
:1017D00091A1892B8C939BB1852F8C7F9370892B42
:1017E0008BB985B153708C7F582B55B9A48DB58DAD
:1017F0008C9196A189238C93A48DB58D8C9192A107
:10180000892B8C939BB1842F8C7F9370892B8BB900
:1018100085B143708C7F482B45B9A48DB58D8C91D3
:1018200096A189238C93A48DB58D8C9192A1892B3F
:101830008C930895FC01A28DB38D8C9195A1892381
:101840008C939BB1862F8C7F9370892B8BB985B13C
:1018500063708C7F682B65B9A48DB58D8C9196A132
:1018600089238C93A48DB58D8C9192A1892B8C9317
:10187000A28DB38D8C9191A1892B8C939BB1832FD9
:101880008C7F9370892B8BB985B133708C7F382B0B
:1018900035B9A48DB58D8C9196A189238C93A48D97
:1018A000B58D8C9192A1892B8C93A28DB38D8C9147
:1018B00095A189238C939BB1842F8C7F9370892B66
:1018C0008BB985B143708C7F482B45B9A48DB58DFC
:1018D0008C9196A189238C93A48DB58D8C9192A126
:1018E000892B8C93A28DB38D8C9191A1892B8C9394
:1018F0009BB1822F8C7F9370892B8BB985B123701C
:101900008C7F282B25B9A48DB58D8C9196A1892328
:101910008C93A48DB58D8C9192A1892B8C93089575
:10192000CF93DF93EC01E88DF98D80819CA1892311
:101930008083288539852150310945E064E0CE0156
:101940000E941A0C2A853B852150310949E068E044
:10195000CE010E941A0CE88DF98D808198A1892B07
:101960008083DF91CF9108950F931F93CF93DF93DF
:1019700000D000D0CDB7DEB78C01DC015896ED91D8
:10198000FC915997808194969C91949789238083A8
:101990005A96ED91FC915B97808195969C919597D5
:1019A000892380839BB1862F8C7F9370892B8BB981
:1019B00085B163708C7F682B65B95C96ED91FC9165
:1019C0005D97808196969C919697892380835C96FB
:1019D000ED91FC915D97808192969C919297892BD5
:1019E00080835A96ED91FC915B97808191969C91B2
:1019F000892B80838AE090E029833A834B835C8340
:101A00000E94371A7BB129813A814B815C81CA01DE
:101A1000AA27BB27682F6C7F7370672B6BB965B1E2
:101A200083706C7F862B85B9D8015C96ED91FC9113
:101A30005D97808196969C919697892380835C968A
:101A4000ED91FC915D97808192969C91892B80838A
:101A50008AE090E029833A834B835C830E94371AA3
:101A6000FBB129813A814B815C81BB27A52F942F43
:101A7000832FE82FEC7FF370EF2BEBB9E5B1682FE4
:101A80006370EC7F6E2B65B9D8015C96ED91FC918B
:101A90005D97808196969C919697892380835C962A
:101AA000ED91FC915D97808192969C91892B80832A
:101AB0008AE090E029833A834B835C830E94371A43
:101AC0009BB12981822F8C7F9370892B8BB985B133
:101AD00023708C7F282B25B9D8015C96ED91FC9161
:101AE0005D97808196969C919697892380835C96DA
:101AF000ED91FC915D97808192969C919297892BB4
:101B000080835896ED91FC915997808190969C9195
:101B1000892B80830F900F900F900F90DF91CF91C2
:101B20001F910F9108950F931F93CF93DF93EC01B3
:101B300064E00E94D90A611570488105910549F059
:101B400063EDCE010E94D90A6134734909F46BC078
:101B50001AC027E533E84FEF50E069EBCE010E9451
:101B6000B40C6CE271E080E090E00E940F1A60ED2E
:101B7000CE010E94D90A611571058949910501F7C5
:101B800087E593E855C06FEECE010E94D90A67320F
:101B9000734909F44BC0E88DF98D80819CA189239C
:101BA0008083EA8DFB8D80819DA1892380838BB109
:101BB00083708BB985B18C7F85B9EC8DFD8D80816B
:101BC0009EA189238083EC8DFD8D80819AA1892B34
:101BD0008083EC8DFD8D80819EA189238083EC8D97
:101BE000FD8D80819AA1892B8083CE010E94D20A2B
:101BF000EA8DFB8D808199A1892B8083CE010E9483
:101C0000E509182FCE010E94E509082FCE010E9498
:101C1000FC09E88DF98D908188A1982B9083802F05
:101C200090E0912B05C081E493E902C087E293E93B
:101C3000DF91CF911F910F9108950F931F93CF9331
:101C4000DF9300D000D0CDB7DEB78C01DC01589611
:101C5000ED91FC915997808194969C91949789235A
:101C600080835A96ED91FC915B97808195969C912B
:101C70009597892380839BB1862F8C7F9370892BC6
:101C80008BB985B163708C7F682B65B95C96ED91DB
:101C9000FC915D97808196969C919697892380838D
:101CA0005C96ED91FC915D97808192969C919297C4
:101CB000892B80835A96ED91FC915B978081919658
:101CC0009C91892B80838AE090E029833A834B831F
:101CD0005C830E94371A7BB129813A814B815C81F8
:101CE000852F9927AA27BB27682F6C7F7370672BD6
:101CF0006BB965B183706C7F862B85B9D8015C9612
:101D0000ED91FC915D97808196969C9196978923A1
:101D100080835C96ED91FC915D97808192969C9179
:101D2000892B80838AE090E029833A834B835C830C
:101D30000E94371A7BB129813A814B815C81CA01AB
:101D4000AA27BB27682F6C7F7370672B6BB965B1AF
:101D500083706C7F862B85B9D8015C96ED91FC91E0
:101D60005D97808196969C919697892380835C9657
:101D7000ED91FC915D97808192969C91892B808357
:101D80008AE090E029833A834B835C830E94371A70
:101D9000FBB129813A814B815C81BB27A52F942F10
:101DA000832FE82FEC7FF370EF2BEBB9E5B1682FB1
:101DB0006370EC7F6E2B65B9D8015C96ED91FC9158
:101DC0005D97808196969C919697892380835C96F7
:101DD000ED91FC915D97808192969C91892B8083F7
:101DE0008AE090E029833A834B835C830E94371A10
:101DF0009BB12981822F8C7F9370892B8BB985B100
:101E000023708C7F282B25B9D8015C96ED91FC912D
:101E10005D97808196969C919697892380835C96A6
:101E2000ED91FC915D97808192969C919297892B80
:101E300080835896ED91FC915997808190969C9162
:101E4000892B80830F900F900F900F90DF91CF918F
:101E50001F910F9108958F929F92AF92BF92CF9250
:101E6000DF92EF92FF920F931F93CF93DF93EC01DA
:101E70007A016901E88DF98D80819CA18923808395
:101E8000EF898E2F8B7F09F089C08D89823089F090
:101E9000833021F1813081F58FEE90E09C01201B91
:101EA000310B5B014C01841A950A860164017B01A8
:101EB00013C08FEE90E09C012C193D096C01C61AED
:101EC000D70A8FE391E0AC01401B510B8C010E1936
:101ED0001F09580146017A01B90110C08FE391E052
:101EE0009C012C193D095C01A61AB70A4A01680138
:101EF0008501B701790102C05A014B01AB01E43001
:101F000049F567E370E0CE010E94B00BA60166E3DD
:101F100070E0CE010E94B00BA70169E370E0CE0132
:101F20000E94B00BA80168E370E0CE010E94B00BE4
:101F3000A40160E270E0CE010E94B00BA50161E255
:101F400070E0CE010E94B00B40E062E2CE010E9440
:101F5000740B6FC060E570E0CE010E94B00BA6016B
:101F600061E570E0CE010E94B00BA70162E570E070
:101F7000CE010E94B00BA80163E570E0CE010E9483
:101F8000B00BA40160E270E0CE010E94B00BA5018D
:101F900061E270E0CE010E94B00B4BC0E130C9F4A9
:101FA0009B0143E062E0CE010E941A0C970147E0DA
:101FB00066E0CE010E941A0C960145E064E0CE0175
:101FC0000E941A0C980149E068E0CE010E941A0CA8
:101FD00030C08EEF8E0F823010F0E53051F5CB011E
:101FE000AA2797FDA095BA2FAC0133272227C60157
:101FF000AA2797FDA095BA2F282B392B4A2B5B2BAC
:102000006AE2CE010E941D0EC701AA2797FDA09586
:10201000BA2FAC0133272227C801AA2797FDA09524
:10202000BA2F282B392B4A2B5B2B6BE2CE010E9457
:102030001D0EE88DF98D808198A1892B8083DF9119
:10204000CF911F910F91FF90EF90DF90CF90BF90B5
:10205000AF909F908F900895CF92DF92EF92FF9272
:102060000F931F93CF93DF93EC0169017801121650
:1020700013060CF04FC057FD4DC08A859B8548174D
:1020800059070CF047C088859985681779070CF0C7
:1020900041C0FB01E20FF31F9F012150310937FDC1
:1020A00039C077FF03C06F0160E070E0281739077F
:1020B00034F09C01215031096C01C61AD70A8A01FB
:1020C000CE010E942B0F9601442737FD4095542FD7
:1020D000B701CE010E94DF078F89811110C00A85E8
:1020E0001B8501501109288539852150310940E0AF
:1020F00050E060E070E0CE010E942B0F0BC0CE01DB
:10210000DF91CF911F910F91FF90EF90DF90CF90D3
:102110000C94900CDF91CF911F910F91FF90EF9055
:10212000DF90CF900895CF92DF92EF92FF920F93BE
:102130001F93CF93DF93EC01690178011216130608
:102140000CF04FC077FD4DC08885998568177907D9
:102150000CF047C08A859B85481759070CF041C091
:102160009A012C0D3D1D89010150110917FD39C03F
:1021700057FF03C0690140E050E00817190734F029
:102180008C01015011096C01C41AD50A9B01CE01C2
:102190000E942B0F9601442737FD4095542FB7011D
:1021A000CE010E94DF078F89811110C00A851B852F
:1021B00001501109288539852150310940E050E04E
:1021C00060E070E0CE010E942B0F0BC0CE01DF91CA
:1021D000CF911F910F91FF90EF90DF90CF900C94D3
:1021E000900CDF91CF911F910F91FF90EF90DF90B6
:1021F000CF9008958F929F92AF92BF92CF92DF922D
:10220000EF92FF920F931F93CF93DF93EC0159014D
:1022100068014701121613060CF06BC01016110668
:102220000CF067C088859985681779070CF061C044
:10223000EA84FB844E155F050CF05BC0FB01E20FE6
:10224000F31F9F012150310937FD53C0DA01A00F60
:10225000B11F8D010150110917FD4BC077FF03C05D
:102260005F0160E070E057FF03C06D0140E050E0A7
:102270002817390734F09C01215031095C01A61A56
:10228000B70A0E151F0534F08701015011096701C7
:10229000C41AD50ACE010E942B0F9601D5010E94C7
:1022A000E31D9B01AC01B401CE010E94DF078F89C1
:1022B000811110C00A851B850150110928853985B7
:1022C0002150310940E050E060E070E0CE010E9412
:1022D0002B0F0FC0CE01DF91CF911F910F91FF9077
:1022E000EF90DF90CF90BF90AF909F908F900C9425
:1022F000900CDF91CF911F910F91FF90EF90DF90A5
:10230000CF90BF90AF909F908F900895EF92FF92E3
:102310000F931F93CF93DF93EC017B018F89811182
:1023200027C0ED89E150E33068F4F0E0DF01A05C04
:10233000BE4F4C9150E0EE0FFF1FE65CFE4F008158
:10234000118104C000E010E040E050E0E88DF98D1C
:1023500080819CA18923808360E270E0CE010E948D
:10236000B00BA80161E270E0CE010E94B00B12C078
:102370008150853078F40A851B8501501109288524
:1023800039852150310940E050E060E070E0CE0135
:102390000E942B0F20E03CE241E050E0B701CE016B
:1023A000DF91CF911F910F91FF90EF900C94DF0779
:1023B000AF92BF92CF92DF92EF92FF920F931F9353
:1023C000CF93DF93EC015B017A01690177FDE7C0F0
:1023D00057FDE5C088859985681779070CF0DFC03F
:1023E0008A859B85481759070CF0D9C0E88DF98D6F
:1023F00080819CA1892380838F89982F9B7FB1F551
:102400008D89823059F08330B1F08130D1F48FEE74
:1024100090E0841B950B7B015C0113C08FEE90E074
:102420009C01261B370B59018FE391E09C01241B73
:10243000350B790106C08FE391E0861B970B5A019B
:102440007C01A50160E270E0CE010E94B00BA70103
:1024500061E270E0CE010E94B00BA601409550955C
:1024600062E270E0CE010E94B00B93C0813041F572
:10247000ED89E150E33028F4F0E0E95CFE4F408163
:1024800001C040E066E1CE010E94740B950143E07B
:1024900062E0CE010E941A0C970147E066E0CE018F
:1024A0000E941A0CEA8DFB8D80819DA18923808377
:1024B0008BB1837080628BB985B18C7F826026C0BE
:1024C0009EEF980F923018F0853009F062C00A85AF
:1024D0001B85015011092885398521503109A70133
:1024E000B501CE010E942B0FE88DF98D80819CA152
:1024F00089238083EA8DFB8D80819DA18923808340
:102500008BB183708C628BB985B18C7F85B9EC8D72
:10251000FD8D80819EA189238083EC8DFD8D80813E
:102520009AA1892B8083EA8DFB8D808199A1892BCB
:1025300080839BB18D2D8C7F9370892B8BB995B146
:102540008D2D83709C7F892B85B9EC8DFD8D8081CD
:102550009EA189238083EC8DFD8D80819AA1892B9A
:1025600080839BB18C2D8C7F9370892B8BB995B117
:102570008C2D83709C7F892B85B9EC8DFD8D80819E
:102580009EA189238083EC8DFD8D80819AA1892B6A
:102590008083E88DF98D808198A1892B8083DF91DC
:1025A000CF911F910F91FF90EF90DF90CF90BF9050
:1025B000AF900895DF92EF92FF920F931F93CF9306
:1025C000DF93EC010E946F07E88DF98D80819CA15B
:1025D000892380838F898B7F11F5ED89E150E3306A
:1025E00040F4F0E0EE0FFF1FEF5CFE4F40815181A1
:1025F00002C040E350E163E070E0CE010E94B00B06
:102600000A851B850150110928853985215031091A
:1026100040E050E060E070E0CE010E942B0F8F8917
:10262000813089F4ED89E150E33028F4F0E0E25D97
:10263000FE4F408101C040E066E1CE010E94740B74
:10264000CE010E94900C8F89823039F58D898130BE
:1026500059F038F0823059F0833059F438E2D32EF3
:1026600008C028E8D22E05C098EED92E02C088E412
:10267000D82E4D2D66E3CE010E94740B0A851B8572
:1026800001501109288539852150310940E050E079
:1026900060E070E0CE010E942B0F8F89833031F50E
:1026A0008D89813059F038F0823059F0833051F4FF
:1026B00000E6E02E07C010ECE12E04C0B0EAEB2EDD
:1026C00001C0E12C4E2D66E3CE010E94740B0A85F9
:1026D0001B8501501109288539852150310940E0B9
:1026E00050E060E070E0CE010E942B0F8F898530B2
:1026F00039F58D89813059F038F0823059F08330C6
:1027000059F4A8EEFA2E08C0FAE0FF2E05C0E8E260
:10271000FE2E02C078E8F72E4F2D66E3CE010E9410
:10272000740B0A851B8501501109288539852150B4
:10273000310940E050E060E070E0CE010E942B0FD4
:10274000DF91CF911F910F91FF90EF90DF9008954F
:102750000F931F93CF93DF93EC018B010E948407AB
:1027600068EC70E080E090E00E940F1A053283E987
:10277000180721F00832E3E91E0741F51F8AE88DAA
:10278000F98D80819CA1892380830FE116E0F801F7
:1027900085919491F8013296459154918F3F91051E
:1027A00031F4BA0180E090E00E940F1A04C0BC012D
:1027B000CE010E94B00B0C5F1F4FF6E0073E1F07D3
:1027C00031F76D89CE010E94DA12FBC1013483E931
:1027D000180709F078C082E08F8BE88DF98D808131
:1027E0009CA18923808380E0E82FF0E0ED54FA4F2C
:1027F000949112E0180F61E0680FE62FF0E0ED54BD
:10280000FA4F64919F3F31F470E080E090E00E94C5
:102810000F1A54C0A88DB98D2C913CA123232C9361
:10282000AA8DBB8D2C913DA123232C933BB1292F45
:102830002C7F3370232B2BB925B193702C7F922BD7
:1028400095B9EC8DFD8D90812EA192239083EC8D16
:10285000FD8D90812AA1922B9083EA8DFB8D908132
:1028600029A1922B9083860F8E5FE12FE817F9F054
:1028700031E03E0FF0E0ED54FA4FE4912BB19E2F82
:102880009C7F2370922B9BB995B1E3709C7FE92BC1
:10289000E5B9EC8DFD8D90812EA192239083EC8D76
:1028A000FD8D90812AA1922B9083E32FDFCF160F0D
:1028B000E88DF98D808198A1892B80831C3608F0E2
:1028C00009C2812F91CF0735E3E81E0709F078C0D0
:1028D00083E08F8BE88DF98D80819CA18923808393
:1028E00080E0E82FF0E0E951F94F949112E0180FE1
:1028F00061E0680FE62FF0E0E951F94F64919F3FE6
:1029000031F470E080E090E00E940F1A54C0A88D6E
:10291000B98D2C913CA123232C93AA8DBB8D2C9196
:102920003DA123232C933BB1292F2C7F3370232BE4
:102930002BB925B193702C7F922B95B9EC8DFD8D21
:1029400090812EA192239083EC8DFD8D90812AA100
:10295000922B9083EA8DFB8D908129A1922B9083FD
:10296000860F8E5FE12FE817F9F031E03E0FF0E0BF
:10297000E951F94FE4912BB19E2F9C7F2370922B4C
:102980009BB995B1E3709C7FE92BE5B9EC8DFD8D8A
:1029900090812EA192239083EC8DFD8D90812AA1B0
:1029A000922B9083E32FDFCF160FE88DF98D808176
:1029B00098A1892B8083163408F08CC1812F91CF88
:1029C0000537F5E71F0761F581E08F8BE88DF98DFD
:1029D00080819CA1892380830DE217E0F801849116
:1029E000319644918F3F39F4642F70E080E090E09D
:1029F0000E940F1A04C0682FCE010E94740B0E5F54
:102A00001F4FF7E003381F0749F76D89CE010E9479
:102A1000DA12CE01DF91CF911F910F910C94900C9F
:102A2000043581E0180709F0D8C084E08F8BE88D69
:102A3000F98D80819CA1892380834AE150E061E186
:102A400070E0CE010E94B00B41E251E362E170E020
:102A5000CE010E94B00B4CE650E063E170E0CE0185
:102A60000E94B00B49E452E464E170E0CE010E94A0
:102A7000B00B40E058E060E170E0CE010E94B00B86
:102A80006AE070E080E090E00E940F1A4AE151E0B5
:102A900061E170E0CE010E94B00B6AE070E080E07E
:102AA00090E00E940F1A4AE153E061E170E0CE012C
:102AB0000E94B00B6AE070E080E090E00E940F1A84
:102AC0004AE157E061E170E0CE010E94B00B6AE09C
:102AD00070E080E090E00E940F1A4AE15FE061E15F
:102AE00070E0CE010E94B00B64E170E080E090E005
:102AF0000E940F1A4AE35FE061E170E0CE010E949C
:102B0000B00B6EE170E080E090E00E940F1A48E2A6
:102B100051E061E070E0CE010E94B00B40E051E076
:102B200062E070E0CE010E94B00B40E350E163E050
:102B300070E0CE010E94B00B42E150E167E070E02E
:102B4000CE010E94B00B43E053E068E070E0CE019C
:102B50000E94B00B40E051E16BE070E0CE010E94BA
:102B6000B00B40E050E06CE070E0CE010E94B00B92
:102B700041E058E16FE070E0CE010E94B00B40E20E
:102B800050E065E170E0CE010E94B00B42E150E000
:102B900067E070E0CE010E94B00B68E270E080E078
:102BA00090E00E940F1A43E150E067E070E0CE0130
:102BB0000E94B00B47E150E067E070E0CE010E9458
:102BC000B00B0FE311E02FEE30E040E050E060E0AA
:102BD00070E0CE010E942B0F7DC00732134909F02F
:102BE00077C085E08F8BE88DF98D80819CA189234A
:102BF000808380E0E82FF0E0ED59FA4F949112E0E5
:102C0000180F61E0680FE62FF0E0ED59FA4F64917C
:102C10009F3F31F470E080E090E00E940F1A54C0B2
:102C2000A88DB98D2C913CA123232C93AA8DBB8D0B
:102C30002C913DA123232C933BB1292F2C7F337062
:102C4000232B2BB925B193702C7F922B95B9EC8D4A
:102C5000FD8D90812EA192239083EC8DFD8D90812E
:102C60002AA1922B9083EA8DFB8D908129A1922B32
:102C70009083860F8E5FE12FE817F9F031E03E0F69
:102C8000F0E0ED59FA4FE4912BB19E2F9C7F237019
:102C9000922B9BB995B1E3709C7FE92BE5B9EC8D44
:102CA000FD8D90812EA192239083EC8DFD8D9081DE
:102CB0002AA1922B9083E32FDFCF160FE88DF98D99
:102CC000808198A1892B8083103520F4812F92CFA9
:102CD0008FEF8F8BDF91CF911F910F910895EF921E
:102CE000FF920F93FC014283248303836583F78261
:102CF000E6828AE090E0918380830F91FF90EF90CD
:102D0000089580E008950895FC01228133816217BF
:102D10007307A4F0A481B5814A175B077CF0818515
:102D20009285820F931F8617970744F02385348579
:102D30002A0F3B1F81E0241735070CF480E008952B
:102D4000FC01868591E089278687158696830895FC
:102D500084E090E00E94CB1BFC0113821282209140
:102D60008801309189013183208390938901809378
:102D70008801909387018093860121E020930601CA
:102D80000895FC018585811106C08685882321F080
:102D900091E09587089580E00895FC018585811173
:102DA00006C09685911104C081E08587089580E072
:102DB0000895CF92DF92EF92FF920F931F93CF93DC
:102DC000DF93EC018B016A01790183E190E00E94BD
:102DD000CB1BFC0113830283D582C48281E08683EE
:102DE00089E691E091838083F286E18688E390E032
:102DF0009487838785E090E096878587108A178679
:102E0000128A118A8A819B8190878783FB83EA8358
:102E1000CF01DF91CF911F910F91FF90EF90DF9045
:102E2000CF900895CF92DF92EF92FF920F931F936E
:102E3000CF93DF931F92CDB7DEB76C017B018A0180
:102E40008FE090E029830E94CB1BFC01F382E28299
:102E50001583048381E086838FE591E091838083ED
:102E600088E390E0928781879487838715862981FC
:102E70002687D60112968D919C9113979087878310
:102E80001396FC93EE931297CF010F90DF91CF91A1
:102E90001F910F91FF90EF90DF90CF900895909346
:102EA00087018093860181E0809306010895EF9267
:102EB000FF920F931F93CF93DF938C01EB01FC01E3
:102EC000E188F288C7010E94331F892BF1F0C70106
:102ED0000E94CD1BFE0101900020E9F7CF018C1B61
:102EE0009D0B0E94071EF801928B818BBE010E94F0
:102EF0003C1FBE01F801878590890E94331F21E0A5
:102F0000892B09F420E0F8012683DF91CF911F91EE
:102F10000F91FF90EF900895EF92FF920F9382E14F
:102F2000E82E0EE02FE040E161E183E991E00E94AC
:102F30001E0A9CE2E92EFF24F39407E020E14FE013
:102F400066E08BE891E00E946F160F91FF90EF9082
:102F50000895CF93DF9381E080938A0183E991E024
:102F60000E94840783E991E00E94930DEC01C53231
:102F700083E9D807A9F0CE0187529349029780F0E0
:102F8000C53785E7D80761F0C13483E9D80741F038
:102F9000C73583E8D80721F0C43581E0D80769F444
:102FA000BE0183E991E00E94A81360E070E083E92C
:102FB00091E0DF91CF910C94861163EA77E085EC84
:102FC00091E00E940D1C40E150E0BE0185EC91E0D3
:102FD000DF91CF910C94C71C1F93CF93DF93EC012B
:102FE000162F662331F060E070E083E991E00E94E3
:102FF00086110A80DB81C02D209789F0111103C052
:103000008E81882341F0E881F9810190F081E02DE3
:10301000612FCE0109950F80D885C02DEDCFDF91AE
:10302000CF911F91089580918A01811106C063E8B4
:1030300077E085EC91E00C944F1C80918601909193
:103040008701009731F060910601109206010C94FF
:10305000EC1708952F923F924F925F926F927F925A
:103060008F929F92AF92BF92CF92DF92EF92FF9298
:103070000F931F93CF93DF93CDB7DEB728970FB68B
:10308000F894DEBF0FBECDBF5C0178876F832A0145
:1030900049013801FA82E98216017B01E20EF31E32
:1030A000C12CD12CCA01821993099E838D83F90109
:1030B000E219F309FC83EB83E1E0EE1AF108C21494
:1030C000D304CCF54F8158854C0D5D1D83012D81B6
:1030D0003E81B50183E991E00E942C1009811A819B
:1030E0009201A701B50183E991E00E942C10B6017D
:1030F0006A0D7B1D83012B813C814F81588583E9BB
:1031000091E00E949310B701681979096A0D7B1D3F
:10311000640D751D8F819885681B790B09811A8153
:103120002B813C81AC0183E991E00E9493109FEFD9
:10313000C91AD90AC1CF28960FB6F894DEBF0FBEC0
:10314000CDBFDF91CF911F910F91FF90EF90DF9056
:10315000CF90BF90AF909F908F907F906F905F9037
:103160004F903F902F900895CF92DF92EF92FF9271
:103170000F931F93CF93DF93EC011E82662359F1C7
:103180000B851C850650110929853A852650310981
:103190004C815D814D5F5F4F6A817B816D5F7F4FA9
:1031A00084E3E82E85EAF82E83E991E00E94FA1084
:1031B0002B853C8549855A856C817D8193E0C92E9C
:1031C000D12CE9E4EE2EEAE4FE2E0BED1EED8A8111
:1031D0009B810E942A188E85882319F08FE190E048
:1031E00002C084E395EA0B851C85025111092985EB
:1031F0003A85225131094C815D81475F5F4F6A8179
:103200007B81675F7F4F7C0183E991E00E94FA1028
:10321000DF91CF911F910F91FF90EF90DF90CF90B2
:1032200008958F929F92AF92BF92CF92DF92EF92CA
:10323000FF920F931F93CF93DF93EC01F62E1E8224
:103240008F84988809891A89F80101900020E9F78C
:10325000CF0101975C01A01AB10AC50101960E9435
:10326000071E988B8F87B8010E943C1FFF2019F121
:103270000B851C8529853A854C815D816A817B811E
:10328000F4E3EF2EF5EAFF2E83E991E00E94FA10B5
:103290002B853C8549855A856C817D81A3E0CA2EAA
:1032A000D12CB9E4EB2EBAE4FB2E09E41AE48A81AE
:1032B0009B810E942A186D8583E991E00E94630733
:1032C00044E355EA60E078EF83E991E00E94690702
:1032D0004C815D81485F5F4F6A817B816A5F7F4F70
:1032E00083E991E00E945D076F85788983E991E029
:1032F0000E94321CF40101900020E9F73197E8198F
:10330000F909AE16BF067CF444E355EA64E375EAB6
:1033100083E991E00E946907B4016A0D7B1D83E98E
:1033200091E00E94321CC401DF91CF911F910F9157
:10333000FF90EF90DF90CF90BF90AF909F908F90D5
:103340000C94CD1B1F920F920FB60F9211242F9346
:103350003F938F939F93AF93BF938091BD019091C3
:10336000BE01A091BF01B091C0013091BC0123E02A
:10337000230F2D3720F40196A11DB11D05C026E8AD
:10338000230F0296A11DB11D2093BC018093BD01A6
:103390009093BE01A093BF01B093C0018091C10181
:1033A0009091C201A091C301B091C4010196A11DE9
:1033B000B11D8093C1019093C201A093C301B0934A
:1033C000C401BF91AF919F918F913F912F910F9029
:1033D0000FBE0F901F9018953FB7F8948091C101D0
:1033E0009091C201A091C301B091C40126B5A89BE0
:1033F00005C02F3F19F00196A11DB11D3FBF6627E3
:10340000782F892F9A2F620F711D811D911D42E027
:10341000660F771F881F991F4A95D1F70895CF929D
:10342000DF92EF92FF92CF93DF936B017C010E94BA
:10343000EC19EB01C114D104E104F10489F00E94FC
:10344000DD1C0E94EC196C1B7D0B683E734090F3F1
:1034500081E0C81AD108E108F108C851DC4FEACF71
:10346000DF91CF91FF90EF90DF90CF90089501977B
:1034700039F0880F991F880F991F02970197F1F76C
:103480000895789484B5826084BD84B5816084BDDC
:1034900085B5826085BD85B5816085BDEEE6F0E0CD
:1034A000808181608083E1E8F0E010828081826029
:1034B0008083808181608083E0E8F0E080818160AA
:1034C0008083E1EBF0E0808184608083E0EBF0E0DA
:1034D000808181608083EAE7F0E08081846080837E
:1034E0008081826080838081816080838081806828
:1034F00080831092C1000895833081F028F48130D8
:1035000099F08230A1F008958730A9F08830B9F0A1
:103510008430D1F4809180008F7D03C08091800041
:103520008F7780938000089584B58F7702C084B52B
:103530008F7D84BD08958091B0008F7703C0809106
:10354000B0008F7D8093B0000895CF93DF9390E01B
:10355000FC01EF52F84F2491FC01EB51F84F84919C
:10356000882349F190E0880F991FFC01ED5FF74F28
:10357000A591B4918750984FFC01C591D4919FB704
:10358000611108C0F8948C91209582238C938881D6
:1035900082230AC0623051F4F8948C91322F309516
:1035A00083238C938881822B888304C0F8948C9128
:1035B000822B8C939FBFDF91CF9108950F931F9320
:1035C000CF93DF931F92CDB7DEB7282F30E0F901FC
:1035D000E354F84F8491F901EF52F84F1491F90137
:1035E000EB51F84F04910023C9F0882321F069833F
:1035F0000E947C1A6981E02FF0E0EE0FFF1FE75078
:10360000F84FA591B4919FB7F8948C91611103C0C4
:103610001095812301C0812B8C939FBF0F90DF9168
:10362000CF911F910F9108950E942E1F1F920F920C
:103630000FB60F9211242F938F939F93EF93FF93C5
:10364000E091D501F091D6018081E091DB01F0910C
:10365000DC0182FD12C090818091DE018F5F8F734B
:103660002091DF01821751F0E091DE01F0E0EB5391
:10367000FE4F958F8093DE0101C08081FF91EF9115
:103680009F918F912F910F900FBE0F901F901895C3
:103690001F920F920FB60F9211242F933F934F93C7
:1036A0005F936F937F938F939F93AF93BF93EF93AA
:1036B000FF9385EC91E00E94191DFF91EF91BF915E
:1036C000AF919F918F917F916F915F914F913F91BA
:1036D0002F910F900FBE0F901F90189585EC91E0E1
:1036E0000E94DE1C21E0892B09F420E0822F08953E
:1036F0001092C8011092C70188EE93E0A0E0B0E0FC
:103700008093C9019093CA01A093CB01B093CC01DF
:1037100083E791E09093C6018093C50185EC90E02A
:103720009093D2018093D10184EC90E09093D401E6
:103730008093D30180EC90E09093D6018093D501E3
:1037400081EC90E09093D8018093D70182EC90E0D7
:103750009093DA018093D90186EC90E09093DC019C
:103760008093DB011092DE011092DF011092E001E4
:103770001092E101089508950E94411A0E94BB1B16
:103780000E943404CBE0DDE10E9440042097E1F385
:103790000E940B1DF9CF0C94071E0C949F1ECF9214
:1037A000DF92EF92FF920F931F93CF93DF936C0101
:1037B0007A01EB01E60EF71E00E010E0CE15DF0502
:1037C00061F06991D601ED91FC910190F081E02DBD
:1037D000C6010995080F191FF1CFC801DF91CF91DC
:1037E0001F910F91FF90EF90DF90CF90089561159A
:1037F000710581F0DB010D900020E9F7AD0141502A
:103800005109461B570BDC01ED91FC910280F381BD
:10381000E02D099480E090E00895EF92FF920F93DD
:103820001F93CF93DF938C01FB01C0E0D0E0649144
:103830007F018FEFE81AF80A662361F0D801ED9155
:10384000FC910190F081E02DC8010995C80FD91FA6
:10385000F701EDCFCE01DF91CF911F910F91FF9036
:10386000EF9008950C94F71BDC01ED91FC91019011
:10387000F081E02D09940F931F93CF93DF93EC0118
:103880006DE00E94341C8C016AE0CE010E94341C61
:10389000800F911FDF91CF911F910F9108950F938A
:1038A0001F93CF93DF93EC010E940D1C8C01CE017E
:1038B0000E943B1C800F911FDF91CF911F910F91B0
:1038C00008958F929F92AF92BF92CF92DF92EF9224
:1038D000FF920F931F93CF93DF93CDB7DEB7A197DE
:1038E0000FB6F894DEBF0FBECDBF7C01C42EE52F0E
:1038F000CB01D22E19A221E02D1510F02AE0D22EF4
:103900008E010F5D1F4F8D2C912CA12CB12C6C2D95
:103910007E2FA50194010E94C11D8C2DD29E80197D
:103920001124015011098A3014F4805D01C0895CB2
:10393000F8018083211531054105510521F0C22E82
:10394000E32FCA01E4CFB801C7010E94F71BA1967B
:103950000FB6F894DEBF0FBECDBFDF91CF911F91A0
:103960000F91FF90EF90DF90CF90BF90AF909F901E
:103970008F9008952115310541F4DC01ED91FC9102
:103980000190F081E02D642F09940C94611C0F9339
:103990001F93CF93DF93EC019A01AB0160E070E0DD
:1039A0000E94BA1C8C01CE010E943B1C800F911F0B
:1039B000DF91CF911F910F9108950895FC01818DA2
:1039C000228D90E0805C9F4F821B91098F73992715
:1039D0000895FC01918D828D981731F0828DE80F4A
:1039E000F11D858D90E008958FEF9FEF0895FC0104
:1039F000918D828D981761F0828DDF01A80FB11D26
:103A00005D968C91928D9F5F9F73928F90E0089549
:103A10008FEF9FEF08958EE69BE1892B49F080E0C0
:103A200090E0892B29F00E946E1B81110C940000FC
:103A30000895FC01848DDF01A80FB11DA35ABF4F6B
:103A40002C91848D90E001968F739927848FA6899D
:103A5000B7892C93A089B1898C9180648C93938DC4
:103A6000848D981306C00288F389E02D80818F7DB4
:103A700080830895CF93DF93EC01888D8823C9F06C
:103A8000EA89FB89808185FD05C0A889B9898C9167
:103A900086FD0FC00FB607FCF5CF808185FFF2CF02
:103AA000A889B9898C9185FFEDCFCE010E94191D9F
:103AB000E7CFDF91CF910895CF92DF92FF920F93DE
:103AC0001F93CF93DF931F92CDB7DEB76C01DC015C
:103AD0005B969C915B975C968C915C97981307C062
:103AE0005096ED91FC915197808185FD32C0F60191
:103AF000038D10E00F5F1F4F0F731127F02EF6019B
:103B0000848DF81211C00FB607FCF9CFD60150967C
:103B1000ED91FC915197808185FFF1CFC6016983BA
:103B20000E94191D6981EBCF838DE80FF11DE35AC7
:103B3000FF4F6083D6015B960C935B975296ED9195
:103B4000FC91539780818062808381E058968C93AA
:103B50000DC0D6015696ED91FC9157976083509613
:103B6000ED91FC91519780818064808381E090E0A9
:103B70000F90DF91CF911F910F91FF90DF90CF9029
:103B80000895A1E21A2EAA1BBB1BFD010DC0AA1F9E
:103B9000BB1FEE1FFF1FA217B307E407F50720F0B6
:103BA000A21BB30BE40BF50B661F771F881F991F31
:103BB0001A9469F760957095809590959B01AC017A
:103BC000BD01CF0108950E94EB1D332312F48A1B1F
:103BD0009B0B0C94FC1DA29FB001B39FC001A39F3F
:103BE000700D811D1124911DB29F700D811D112436
:103BF000911D08950E94EB1DB7FF0895821B930B42
:103C00000895EE0FFF1F0590F491E02D0994CF93D6
:103C1000DF938230910510F482E090E0E09164023D
:103C2000F091650220E030E0A0E0B0E0309739F19B
:103C30004081518148175907B8F04817590771F466
:103C400082819381109729F013969C938E931297FB
:103C50002CC0909365028093640227C02115310522
:103C600031F04217530718F0A901DB0101C0EF0141
:103C70009A01BD01DF010280F381E02DD7CF21152C
:103C80003105F9F0281B390B2430310580F48A8185
:103C90009B816115710521F0FB019383828304C030
:103CA0009093650280936402FE01329644C0FE0147
:103CB000E20FF31F819391932250310939832883B6
:103CC0003AC02091620230916302232B41F420918B
:103CD000020130910301309363022093620220912C
:103CE0000001309101012115310541F42DB73EB796
:103CF0004091040150910501241B350BE0916202B3
:103D0000F0916302E217F307A0F42E1B3F0B281774
:103D1000390778F0AC014E5F5F4F2417350748F044
:103D20004E0F5F1F50936302409362028193919301
:103D300002C0E0E0F0E0CF01DF91CF910895CF9392
:103D4000DF93009709F487C0FC0132971382128237
:103D5000C0916402D0916502209781F42081318165
:103D6000280F391F80916202909163028217930796
:103D700079F5F0936302E09362026DC0DE0120E00A
:103D800030E0AE17BF0750F412964D915C91139737
:103D90009D014115510509F1DA01F3CFB383A283E7
:103DA00040815181840F951F8A179B0771F48D9173
:103DB0009C911197840F951F029691838083129690
:103DC0008D919C911397938382832115310529F45A
:103DD000F0936502E09364023EC0D9011396FC9310
:103DE000EE9312974D915D91A40FB51FEA17FB0753
:103DF00079F480819181840F951F0296D9011196E3
:103E00009C938E938281938113969C938E931297A9
:103E1000E0E0F0E08A819B81009719F0FE01EC015F
:103E2000F9CFCE01029628813981820F931F20910C
:103E30006202309163022817390769F4309729F438
:103E4000109265021092640202C013821282D09313
:103E50006302C0936202DF91CF91089581E090E008
:103E6000F8940C94431FFB01DC018D9101908019A3
:103E70000110D9F3990B0895FB01DC0101900D921B
:0A3E80000020E1F70895F894FFCF49
:103E8A00000066028000014C4544204F4E004C451C
:103E9A0044204F464600000000000907CF1B141BB0
:103EAA008C049205A9054305BF05F405120660C0F6
:103EBA00A028100010181060C0A000003F013F01A8
:103ECA00EFEF00000000000907CF1BD8118C049304
:103EDA00102C104305FA108611120600000000B4D7
:103EEA00188416A016000000001119811683160006
:103EFA000000005C1DCF1BDE1CF71CE91C3A1D00EC
:00000001FF
