:100000000C940A040C9432040C9432040C943204C0
:100010000C9432040C9432040C9432040C94320488
:100020000C9432040C9432040C9432040C94320478
:100030000C9432040C9432040C9432040C94320468
:100040000C94171D0C9432040C94F91F0C942B2063
:100050000C9432040C9432040C9432040C94320448
:100060000C9432040C94320400000000003E5B4FFC
:100070005B3E3E6B4F6B3E1C3E7C3E1C183C7E3C08
:10008000181C577D571C1C5E7F5E1C00183C180016
:10009000FFE7C3E7FF0018241800FFE7DBE7FF30A6
:1000A000483A060E2629792926407F050507407F14
:1000B00005253F5A3CE73C5A7F3E1C1C08081C1C87
:1000C0003E7F14227F22145F5F005F5F06097F017D
:1000D0007F006689956A606060606094A2FFA29468
:1000E00008047E040810207E201008082A1C080836
:1000F0001C2A08081E101010100C1E0C1E0C303884
:100100003E3830060E3E0E06000000000000005F84
:1001100000000007000700147F147F14242A7F2AA0
:100120001223130864623649562050000807030062
:10013000001C2241000041221C002A1C7F1C2A08AE
:10014000083E080800807030000808080808000011
:1001500060600020100804023E5149453E00427F85
:10016000400072494949462141494D331814127FD4
:100170001027454545393C4A494931412111090774
:100180003649494936464949291E000014000000F5
:1001900040340000000814224114141414140041C7
:1001A00022140802015909063E415D594E7C121184
:1001B000127C7F494949363E414141227F414141BC
:1001C0003E7F494949417F090909013E4141517337
:1001D0007F0808087F00417F41002040413F017FA8
:1001E000081422417F404040407F021C027F7F0470
:1001F00008107F3E4141413E7F090909063E4151B9
:10020000215E7F09192946264949493203017F01A8
:10021000033F4040403F1F2040201F3F4038403FA9
:10022000631408146303047804036159494D4300BF
:100230007F4141410204081020004141417F0402F6
:10024000010204404040404000030708002054548D
:1002500078407F284444383844444428384444286B
:100260007F385454541800087E090218A4A49C78BE
:100270007F0804047800447D40002040403D007F1A
:100280001028440000417F40007C047804787C08FA
:100290000404783844444438FC18242418182424CE
:1002A00018FC7C08040408485454542404043F44B3
:1002B000243C4040207C1C2040201C3C4030403CE2
:1002C00044281028444C9090907C4464544C440042
:1002D00008364100000077000000413608000201A6
:1002E0000204023C2623263C1EA1A161123A404092
:1002F000207A38545455592155557941225454780F
:1003000042215554784020545579400C1E527212A7
:100310003955555559395454545939555454580030
:1003200000457C410002457D420001457C407D1234
:1003300011127DF0282528F07C5455450020545496
:100340007C547C0A097F4932494949323A44444441
:100350003A324A4848303A4141217A3A424020787C
:10036000009DA0A07D3D4242423D3D4040403D3C7D
:1003700024FF2424487E4943662B2FFC2F2BFF09A2
:1003800029F620C0887E0903205454794100004496
:100390007D413048484A32384040227A007A0A0A81
:1003A000727D0D19317D2629292F282629292926F4
:1003B00030484D4020380808080808080808382F39
:1003C00010C8ACBA2F102834FA00007B00000814C3
:1003D0002A142222142A1408AA005500AAAA55AAEF
:1003E00055AA000000FF00101010FF00141414FFA5
:1003F000001010FF00FF1010F010F0141414FC0097
:100400001414F700FF0000FF00FF1414F404FC14A0
:100410001417101F10101F101F1414141F00101099
:1004200010F0000000001F101010101F101010100E
:10043000F010000000FF101010101010101010FF2E
:1004400010000000FF140000FF00FF00001F101745
:100450000000FC04F414141710171414F404F4002E
:1004600000FF00F714141414141414F700F71414F4
:1004700014171410101F101F141414F4141010F07B
:1004800010F000001F101F0000001F14000000FCEF
:10049000140000F010F01010FF10FF141414FF14DB
:1004A0001010101F00000000F010FFFFFFFFFFF012
:1004B000F0F0F0F0FFFFFF0000000000FFFF0F0F63
:1004C0000F0F0F3844443844FC4A4A4A347E020233
:1004D0000606027E027E0263554941633844443C6D
:1004E00004407E201E2006027E020299A5E7A599FF
:1004F0001C2A492A1C4C7201724C304A4D4D303036
:1005000048784830BC625A463D3E494949007E0120
:1005100001017E2A2A2A2A2A44445F444440514A3F
:10052000444040444A51400000FF0103E080FF0086
:100530000008086B6B083612362436060F090F06C2
:10054000000018180000001010003040FF010100EA
:100550001F01011E00191D1712003C3C3C3C00000D
:100560000000000100E901201100FF64D1030071C7
:1005700019D0030701083601483A0105C1041010DB
:100580000202C006003100000102C50104D20201CE
:1005900044C80F04673504080624013740031008D7
:1005A00080002A04000000EF2B050000013F8F2986
:1005B000002C000100CB05392C003402CF0300C110
:1005C00030E803850078EA020000ED04640312813C
:1005D000F70120C00123C10110C5023E28C70186D2
:1005E0003601483A0155B1020018B603088227F2D5
:1005F0000100260101E00F0F312B0C0E084EF137E0
:100600000710030E0900E10F000E1403110731C19A
:1006100048080F0C31360F1100FF9629002C0000FE
:10062000000100FF0032000100000102000007038A
:10063000003010040000000700000008000202095A
:100640000000000A0000000C0000000D0000000F78
:10065000000000100000001100070012000000134D
:10066000000000FF00C8001000901611000800FFF5
:1006700000320012001800FF0032001300000029B1
:10068000002A00FF0032003000000031000000327C
:100690000000003500060236000808370007003861
:1006A000000102390000003C0000003D0000005045
:1006B0000000005100EF005200000053003F0160B5
:1006C0000000A7610003006A000000900010009283
:1006D00000000093000300950000119700000098AF
:1006E000000000070033010100B903FF8357FFFA40
:1006F000B30400000606B60125B00168CC0105B1BF
:100700000600151C1C83AAC0065050013C1E08B4EC
:10071000070240002A2A0D783A01553601C03501FA
:1007200000440200021100FF962900FF322E8929A1
:100730008F2B02E200E401E510E601E710E870F219
:1007400000EA00EB20EC3CEDC8E938F1011B1A1A75
:10075000022461255C183619011F88FF051F80FFE0
:10076000051F90FF051FD4FF05170536092838FF20
:1007700028283C02000300040005EF0600070008DB
:1007800001093F57696E646F774D616E61676572ED
:100790002069736E277420696E697469616C697A67
:1007A000656400556E6B6E6F776E204C4344206419
:1007B000726976657220636869703A2000000000F3
:1007C0000800020100000304070000000000000010
:1007D00000010204081020408001020408102001DA
:1007E00002040810200404040404040404020202A5
:1007F0000202020303030303030000000025002894
:10080000002B0000000000240027002A00009404B0
:100810004A1A5B2011241FBECFEFD8E0DEBFCDBF48
:1008200011E0A0E0B1E0ECE3FCE402C005900D9221
:10083000AE3EB107D9F723E0AEEEB1E001C01D92A4
:10084000A531B207E1F718E0C4E1D8E004C022976F
:10085000FE010E94DC24CE30D107C9F70E949F2000
:100860000C941C260C94000040ED57E060E070E012
:100870008CEF91E00E94991820E032EC41E050E0CA
:1008800064E772E08CEF91E00E94AC188CEF91E08D
:100890000E9496186CE071E080912D0290912E02DA
:1008A0000E9415216AE070E080E090E00E94901DB7
:1008B00041E060E08CEF91E00E94171961E08DE06B
:1008C0000E94431E0E94671A8091F2019091F301E9
:1008D0000C940D1A8091F0019091F1010E947F1902
:1008E000882361F061E08DE00E947C1E6EE171E082
:1008F0008091EE019091EF010E94151A8091F00114
:100900009091F1010E948B19882361F060E08DE0E5
:100910000E947C1E65E271E08091EE019091EF01F2
:100920000E94151A0C94881B0E9466199093F3017B
:100930008093F20121E044E650E06AE570E00E9415
:10094000D0199093F1018093F0012CED30E04AE052
:1009500050E06AE070E08091F2019091F3010E9412
:1009600097199093EF018093EE0108952F923F9293
:100970004F925F926F927F928F929F92AF92BF92AF
:10098000CF92DF92EF92FF920F931F93CF93DF935B
:1009900000D000D0CDB7DEB74C017C836B836A01F9
:1009A0005901C8018701AC014C195D0957FF03C00B
:1009B00051954195510995016B817C81261B370B1F
:1009C00037FF03C031952195310922242394312C1E
:1009D0002417350714F0212C312C2114310459F03F
:1009E0003A2D2B2D5C01832F922F3B812C81DC82B1
:1009F000CB82C32ED22EAB81BC81AA16BB065CF47F
:100A00003C2D2D2D6C01832F922F3B812C81BC829C
:100A1000AB82A32EB22E2501EB81FC814E1A5F0A18
:100A20003C016C187D0877FE03C0719461947108D5
:100A3000720157FE03C0FFEFEF1AFF0AF594E79427
:100A4000C816D9062CF421E030E03A83298324C06B
:100A50006FEF7FEF7A8369831FC0D401ED91FC9122
:100A60000480F581E02D980121143104D9F04B81E7
:100A70005C81B601C4010995E618F708F7FE06C0C7
:100A8000E981FA81CE0EDF1EE40CF51C2B813C813E
:100A90002F5F3F4F3C832B836B817C81A616B7066B
:100AA000E4F604C0A6016B817C81E4CF0F900F9027
:100AB0000F900F90DF91CF911F910F91FF90EF90CA
:100AC000DF90CF90BF90AF909F908F907F906F906E
:100AD0005F904F903F902F9008956F927F928F92EA
:100AE0009F92AF92BF92CF92DF92EF92FF920F93BD
:100AF0001F93CF93DF93EC015B016A013901480139
:100B0000E881F9810284F385E02D87010995E88168
:100B1000F981A601480D591D415051090284F38500
:100B2000E02D9301B501CE010995E881F98100849A
:100B3000F185E02D9401A601B501CE010995E8816A
:100B4000F981B501660D771D615071090084F18549
:100B5000E02D9401A601CE010995DF91CF911F915F
:100B60000F91FF90EF90DF90CF90BF90AF909F904C
:100B70008F907F906F900895EF92FF920F931F9345
:100B8000DC01ED91FC91240F351F215031090680C5
:100B9000F781E02D780189019B0109951F910F9143
:100BA000FF90EF900895EF92FF920F931F93DC0157
:100BB000ED91FC91260F371F215031090680F781F6
:100BC000E02D78018A0109951F910F91FF90EF9018
:100BD00008956F927F928F929F92AF92BF92CF9221
:100BE000DF92EF92FF920F931F93CF93DF935C01FD
:100BF0004A0169013801EB01C60ED71ECC15DD058F
:100C000074F4D501ED91FC910084F185E02D87010C
:100C10009301A401BE01C50109952196EFCFDF9193
:100C2000CF911F910F91FF90EF90DF90CF90BF90E9
:100C3000AF909F908F907F906F900895EF92FF926A
:100C40000F931F93DC01ED91FC9111971A960D9172
:100C50001C911B9718962D913C9119970684F78546
:100C6000E02D7B0140E050E060E070E009951F91CD
:100C70000F91FF90EF9008950895FC011382128266
:100C800081E391E0918380837583648357834683F6
:100C90007187608753874287158A15861486178661
:100CA000168621E0248B8FEF9FEF938B828B918BA5
:100CB000808B268B08952F923F924F925F926F9276
:100CC0007F928F929F92AF92BF92CF92DF92EF92DC
:100CD000FF920F931F93CF93DF93CDB7DEB72C977F
:100CE0000FB6F894DEBF0FBECDBF9C878B873A014D
:100CF00018870F83FA86E986CD82DC0118968D91DC
:100D00009C911997681779070CF094C01A968D91E9
:100D10009C911B97481759070CF08CC08C2C912C78
:100D2000CB01B6E0CB9E800D911D1124181619063B
:100D30000CF080C0C40153E0880F991F5A95E1F769
:100D4000860D971D181619060CF074C0F5E02F9F3C
:100D5000200111245B016B011C82920128593F4F35
:100D60002901461A570A3C81353031F0F201EA0D6B
:100D7000FB1D44914B8301C01B827A82698213015F
:100D80001E828B8180FF13C0AB85BC85ED91FC91E9
:100D9000BD81B13031F40480F581E02D2F8138859B
:100DA00019C00684F785E02DEF80F8841EC0E98520
:100DB000FA852F813885E217F307F9F0AB85BC85FA
:100DC000ED91FC91BD81B13059F40480F581E02DA5
:100DD00029853A85A101B5018B859C8509950DC0B2
:100DE0000684F785E02DE984FA8484019401498121
:100DF0005A81B6018B859C850995EB81E695EB833D
:100E0000FE81FF5FFE8329813A81280D391D3A83D7
:100E100029833FEF231A330AF83009F0B2CF4C810F
:100E20004F5F4C83C80CD91C8FEFA81AB80A463004
:100E300009F099CF2C960FB6F894DEBF0FBECDBF48
:100E4000DF91CF911F910F91FF90EF90DF90CF90A6
:100E5000BF90AF909F908F907F906F905F904F90DA
:100E60003F902F900895CF92EF92FF920F931F9390
:100E7000CF93DF93EC01262F6A3049F42C898E85BD
:100E80009F8538E0239F800D911D112432C06D3065
:100E9000A1F1EA88FB88088919894E855F856C85F0
:100EA0007D85CC880E945B062C89422F50E08C8582
:100EB0009D8536E0239F800D911D11249D878C8791
:100EC0002E892223D1F06AEF64039001659F300DD3
:100ED000112468857985260F371F281739076CF488
:100EE00063E0440F551F6A95E1F78E859F85840F57
:100EF000951F9F878E871D861C8681E090E0DF917D
:100F0000CF911F910F91FF90EF90CF900895FC012A
:100F100075876487578746870895611101C061E02E
:100F2000FC01648B0895FC01718B608B538B428BA9
:100F30000895FC016370658B8481958126813781DA
:100F4000613039F0633029F09187808733872287B9
:100F5000089531872087938782870895FC018085D3
:100F600091850895FC01828593850895CF93DF9341
:100F7000EC01E88DF98D808198A1892B8083EC8D1F
:100F8000FD8D80819AA1892B8083EE8DFF8D8081DC
:100F90009BA1892B808388A5882369F060E00E944B
:100FA0007C1E62E070E080E090E00E94901D61E0B5
:100FB00088A50E947C1EE88DF98D80819CA18923E3
:100FC0008083EA8DFB8D80819DA1892380838BB1F5
:100FD00083708BB985B18C7F85B9EC8DFD8D808157
:100FE0009EA189238083EC8DFD8D80819AA1892B20
:100FF000808383E0EC8DFD8D90812EA192239083E0
:10100000EC8DFD8D90812AA1922B9083815091F7D8
:10101000E88DF98D808198A1892B8083DF91CF9114
:101020000895DF92EF92FF920F931F93CF93DF9378
:10103000FC0160957095CB01A08DB18DCC91D4A1B0
:10104000CD23CC93A28DB38DCC91D5A1CD23CC93C0
:10105000A789A230C9F0A530B9F0A11113C0ABB176
:10106000A370ABB9A5B1AC7FA5B9A48DB58DCC915A
:10107000D6A1CD23CC93A48DB58DCC91D2A1CD2B6F
:10108000CC9309C0A33039F4ABB1A370AC62ABB957
:10109000A5B1AC7F07C0ABB1A370A062ABB9A5B1DD
:1010A000AC7FA260A5B9A48DB58DCC91D6A1CD237E
:1010B000CC93A48DB58DCC91D2A1CD2BCC93A28D08
:1010C000B38DCC91D1A1CD2BCC93ABB1C72FCC7F1D
:1010D000A370AC2BABB9A5B1D72FD370AC7FAD2B20
:1010E000A5B9A48DB58D7C9116A171237C93A48D97
:1010F000B58D7C9112A1712B7C937BB1A62FAC7F17
:10110000FA2E73707A2B7BB975B1A62FA370EA2ED5
:101110007C7F7A2B75B9A48DB58D6C9176A16723F0
:101120006C93A48DB58D6C9172A1672B6C93BA01F1
:10113000A90141505109610971098A019B0156E0D9
:1011400036952795179507955A95D1F7981719F061
:1011500080E090E03AC180E090E00817190709F4B8
:1011600066C020E1A48DB58D3C91C6A13C233C9383
:10117000A48DB58D3C91C2A13C2B3C93A48DB58D23
:101180003C91C6A13C233C93A48DB58D3C91C2A15A
:101190003C2B3C93A48DB58D3C91C6A13C233C9344
:1011A000A48DB58D3C91C2A13C2B3C93A48DB58DF3
:1011B0003C91C6A13C233C93A48DB58D3C91C2A12A
:1011C0003C2B3C93A48DB58D3C91C6A13C233C9314
:1011D000A48DB58D3C91C2A13C2B3C93A48DB58DC3
:1011E0003C91C6A13C233C93A48DB58D3C91C2A1FA
:1011F0003C2B3C93A48DB58D3C91C6A13C233C93E4
:10120000A48DB58D3C91C2A13C2B3C93A48DB58D92
:101210003C91C6A13C233C93A48DB58D3C91C2A1C9
:101220003C2B3C93215009F09DCF019696CF4F73F4
:101230004150C8F0A48DB58D8C9196A189238C93D3
:10124000A48DB58D8C9192A1892B8C93A48DB58D95
:101250008C9196A189238C93A48DB58D8C9192A1AC
:10126000892B8C93E5CFA08DB18D8C9190A1892B8A
:101270008C93DF91CF911F910F91FF90EF90DF90B2
:1012800008953BB133703C2B3BB935B13C7F3D2BCE
:1012900035B9A48DB58D3C91D6A03D213C93A48D4C
:1012A000B58D3C91D2A03D293C933BB133703F2991
:1012B0003BB935B13C7F3E2935B9A48DB58D3C9104
:1012C000D6A03D213C93A48DB58D3C91D2A03D2963
:1012D0003C933BB133703C2B3BB935B13C7F3D2B4C
:1012E00035B9A48DB58D3C91D6A03D213C93A48DFC
:1012F000B58D3C91D2A03D293C933BB133703F2941
:101300003BB935B13C7F3E2935B9A48DB58D3C91B3
:10131000D6A03D213C93A48DB58D3C91D2A03D2912
:101320003C933BB133703C2B3BB935B13C7F3D2BFB
:1013300035B9A48DB58D3C91D6A03D213C93A48DAB
:10134000B58D3C91D2A03D293C933BB133703F29F0
:101350003BB935B13C7F3E2935B9A48DB58D3C9163
:10136000D6A03D213C93A48DB58D3C91D2A03D29C2
:101370003C933BB133703C2B3BB935B13C7F3D2BAB
:1013800035B9A48DB58D3C91D6A03D213C93A48D5B
:10139000B58D3C91D2A03D293C933BB133703F29A0
:1013A0003BB935B13C7F3E2935B9A48DB58D3C9113
:1013B000D6A03D213C93A48DB58D3C91D2A03D2972
:1013C0003C93215009F05DCF01960817190711F0E1
:1013D00020E157CF4F73415008F445CF8BB1837054
:1013E0008C2B8BB985B18C7F8D2B85B9A48DB58D58
:1013F0008C9196A189238C93A48DB58D8C9192A10B
:10140000892B8C938BB183708F298BB985B18C7F9D
:101410008E2985B9A48DB58D8C9196A189238C9345
:10142000A48DB58D8C9192A1892B8C93D4CFFC0186
:10143000A68DB78D8C9197A189238C9300C000C095
:1014400000C0000089B193B1A68DB78D2C9133A156
:10145000232B2C9393708C7F892B08958AB18C6FEA
:101460008AB984B1836084B90895CF93DF93EC0186
:101470000E942E0A1D8A1D861C861F861E8681E0FC
:101480008C8B8FEF9FEF998B888B80EF90E0998703
:10149000888780E491E09B878A87DF91CF910895C8
:1014A0009F92AF92BF92CF92DF92EF92FF920F93F3
:1014B0001F93CF93DF93EC01A62EF42EB22E902E25
:1014C00040E451E060EF70E00E943D068EE591E05F
:1014D00099838883E8A66A2D70E0FB01EB51F84FF1
:1014E000E491F0E0EE0FFF1FE750F84FA591B491A3
:1014F000B98FA88F4F2D50E0FA01EB51F84FE491CE
:10150000F0E0EE0FFF1FE750F84F859194919B8F0D
:101510008A8F2B2D30E0F901EB51F84FE491F0E088
:10152000EE0FFF1FE750F84F859194919D8F8C8FA0
:10153000092D10E0F801EB51F84FE491F0E0EE0FC7
:10154000FF1FE750F84FC590D490DF8ECE8EFB0181
:10155000EF52F84F649168A3FA01EF52F84F4491AB
:1015600049A3F901EF52F84F24912AA3F801EF5251
:10157000F84F04910BA398A1892F80958CA389A182
:1015800080958DA38AA180958EA300950FA38C9141
:10159000892B8C93EA8DFB8D808199A1892B808387
:1015A000EC8DFD8D80819AA1892B8083EE8DFF8D3E
:1015B00080819BA1892B808361E08A2D0E94431E3C
:1015C00061E08F2D0E94431E61E08B2D0E94431E1F
:1015D00061E0892D0E94431EEE2041F061E08E2DD6
:1015E0000E947C1E61E08E2D0E94431ECE01DF9181
:1015F000CF911F910F91FF90EF90DF90CF90BF9010
:10160000AF909F900C94350A8AB183708AB984B1E7
:101610008C7F84B90895CF92DF92EF92FF920F935F
:101620001F93CF93DF931F92CDB7DEB78C01DC0100
:101630005896ED91FC915997808194969C9194973E
:10164000892380835A96ED91FC915B9780819596D2
:101650009C919597892380839BB1862F8C7F937073
:10166000892B8BB995B1862F83709C7F892B85B987
:101670005C96ED91FC915D97808196969C919697F2
:10168000892380835C96ED91FC915D978081929691
:101690009C91892B8083C80169830E94040BD80127
:1016A0005A96ED91FC915B97808191969C91892B44
:1016B000808382E390E00E94B81DC8010E94170A4F
:1016C000C82ED12CE12CF12CFE2CED2CDC2CCC24C2
:1016D000C8010E94170AC82AFE2CED2CDC2CCC2451
:1016E000C8010E94170AC82AFE2CED2CDC2CCC2441
:1016F000C8010E94170AC82A69816F3E41F4FE2C76
:10170000ED2CDC2CCC24C8010E94170AC82AD80171
:101710005896ED91FC915997808190969C91892BD8
:101720008083C8010E942E0A66E970E080E090E0A4
:101730000E94901DC701B6010F90DF91CF911F91BC
:101740000F91FF90EF90DF90CF900895FC01A28D54
:10175000B38D8C9195A189238C939BB1862F8C7F1F
:101760009370892B8BB985B163708C7F682B65B9B9
:10177000A48DB58D8C9196A189238C93A48DB58D64
:101780008C9192A1892B8C93A28DB38D8C9191A178
:10179000892B8C939BB1842F8C7F9370892B8BB971
:1017A00085B143708C7F482B45B9A48DB58D8C9144
:1017B00096A189238C93A48DB58D8C9192A1892BB0
:1017C0008C930895FC01A28DB38D8C9195A18923F2
:1017D0008C939BB1872F8C7F9370892B8BB985B1AC
:1017E00073708C7F782B75B9A48DB58D8C9196A173
:1017F00089238C93A48DB58D8C9192A1892B8C9388
:101800009BB1862F8C7F9370892B8BB985B16370C8
:101810008C7F682B65B9A48DB58D8C9196A1892399
:101820008C93A48DB58D8C9192A1892B8C93A28DD4
:10183000B38D8C9191A1892B8C939BB1852F8C7F3B
:101840009370892B8BB985B153708C7F582B55B908
:10185000A48DB58D8C9196A189238C93A48DB58D83
:101860008C9192A1892B8C939BB1842F8C7F937048
:10187000892B8BB985B143708C7F482B45B9A48DDA
:10188000B58D8C9196A189238C93A48DB58D8C9167
:1018900092A1892B8C930895FC01A28DB38D8C911C
:1018A00095A189238C939BB1862F8C7F9370892B74
:1018B0008BB985B163708C7F682B65B9A48DB58DAC
:1018C0008C9196A189238C93A48DB58D8C9192A136
:1018D000892B8C93A28DB38D8C9191A1892B8C93A4
:1018E0009BB1832F8C7F9370892B8BB985B133701B
:1018F0008C7F382B35B9A48DB58D8C9196A1892319
:101900008C93A48DB58D8C9192A1892B8C93A28DF3
:10191000B38D8C9195A189238C939BB1842F8C7F5F
:101920009370892B8BB985B143708C7F482B45B957
:10193000A48DB58D8C9196A189238C93A48DB58DA2
:101940008C9192A1892B8C93A28DB38D8C9191A1B6
:10195000892B8C939BB1822F8C7F9370892B8BB9B1
:1019600085B123708C7F282B25B9A48DB58D8C91E2
:1019700096A189238C93A48DB58D8C9192A1892BEE
:101980008C930895CF93DF93EC01E88DF98D8081DE
:101990009CA189238083288539852150310945E020
:1019A00064E0CE010E944C0C2A853B852150310910
:1019B00049E068E0CE010E944C0CE88DF98D8081F1
:1019C00098A1892B8083DF91CF9108950F931F9366
:1019D000CF93DF9300D000D0CDB7DEB78C01DC0110
:1019E0005896ED91FC915997808194969C9194978B
:1019F000892380835A96ED91FC915B97808195961F
:101A00009C919597892380839BB1862F8C7F9370BF
:101A1000892B8BB985B163708C7F682B65B95C9617
:101A2000ED91FC915D97808196969C919697892384
:101A300080835C96ED91FC915D97808192969C915C
:101A40009297892B80835A96ED91FC915B978081C8
:101A500091969C91892B80838AE090E029833A8338
:101A60004B835C830E94B81D7BB129813A814B81F5
:101A70005C81CA01AA27BB27682F6C7F7370672B14
:101A80006BB965B183706C7F862B85B9D8015C9684
:101A9000ED91FC915D97808196969C919697892314
:101AA00080835C96ED91FC915D97808192969C91EC
:101AB000892B80838AE090E029833A834B835C837F
:101AC0000E94B81DFBB129813A814B815C81BB2703
:101AD000A52F942F832FE82FEC7FF370EF2BEBB91A
:101AE000E5B1682F6370EC7F6E2B65B9D8015C9609
:101AF000ED91FC915D97808196969C9196978923B4
:101B000080835C96ED91FC915D97808192969C918B
:101B1000892B80838AE090E029833A834B835C831E
:101B20000E94B81D9BB12981822F8C7F9370892BD5
:101B30008BB985B123708C7F282B25B9D8015C9691
:101B4000ED91FC915D97808196969C919697892363
:101B500080835C96ED91FC915D97808192969C913B
:101B60009297892B80835896ED91FC9159978081AB
:101B700090969C91892B80830F900F900F900F90DF
:101B8000DF91CF911F910F9108950F931F93CF93E2
:101B9000DF93EC0164E00E940B0B61157048810536
:101BA000910549F063EDCE010E940B0B613473493E
:101BB00009F46BC01AC027E533E84FEF50E069EB3A
:101BC000CE010E94E60C6CE271E080E090E00E94A1
:101BD000901D60EDCE010E940B0B611571058949C6
:101BE000910501F787E593E855C06FEECE010E949D
:101BF0000B0B6732734909F44BC0E88DF98D808176
:101C00009CA189238083EA8DFB8D80819DA18923FE
:101C100080838BB183708BB985B18C7F85B9EC8D56
:101C2000FD8D80819EA189238083EC8DFD8D808137
:101C30009AA1892B8083EC8DFD8D80819EA18923C3
:101C40008083EC8DFD8D80819AA1892B8083CE01CC
:101C50000E94040BEA8DFB8D808199A1892B8083E2
:101C6000CE010E94170A182FCE010E94170A082FD2
:101C7000CE010E942E0AE88DF98D908188A1982BC3
:101C80009083802F90E0912B05C081E493E902C0FE
:101C900087E293E9DF91CF911F910F9108950F9300
:101CA0001F93CF93DF9300D000D0CDB7DEB78C0168
:101CB000DC015896ED91FC915997808194969C9106
:101CC0009497892380835A96ED91FC915B9780814C
:101CD00095969C919597892380839BB1862F8C7FC5
:101CE0009370892B8BB985B163708C7F682B65B934
:101CF0005C96ED91FC915D97808196969C9196976C
:101D0000892380835C96ED91FC915D97808192960A
:101D10009C919297892B80835A96ED91FC915B97C9
:101D2000808191969C91892B80838AE090E0298321
:101D30003A834B835C830E94B81D7BB129813A8131
:101D40004B815C81852F9927AA27BB27682F6C7F41
:101D50007370672B6BB965B183706C7F862B85B907
:101D6000D8015C96ED91FC915D97808196969C914F
:101D70009697892380835C96ED91FC915D97808195
:101D800092969C91892B80838AE090E029833A8304
:101D90004B835C830E94B81D7BB129813A814B81C2
:101DA0005C81CA01AA27BB27682F6C7F7370672BE1
:101DB0006BB965B183706C7F862B85B9D8015C9651
:101DC000ED91FC915D97808196969C9196978923E1
:101DD00080835C96ED91FC915D97808192969C91B9
:101DE000892B80838AE090E029833A834B835C834C
:101DF0000E94B81DFBB129813A814B815C81BB27D0
:101E0000A52F942F832FE82FEC7FF370EF2BEBB9E6
:101E1000E5B1682F6370EC7F6E2B65B9D8015C96D5
:101E2000ED91FC915D97808196969C919697892380
:101E300080835C96ED91FC915D97808192969C9158
:101E4000892B80838AE090E029833A834B835C83EB
:101E50000E94B81D9BB12981822F8C7F9370892BA2
:101E60008BB985B123708C7F282B25B9D8015C965E
:101E7000ED91FC915D97808196969C919697892330
:101E800080835C96ED91FC915D97808192969C9108
:101E90009297892B80835896ED91FC915997808178
:101EA00090969C91892B80830F900F900F900F90AC
:101EB000DF91CF911F910F9108958F929F92AF92D2
:101EC000BF92CF92DF92EF92FF920F931F93CF9327
:101ED000DF93EC017A016901E88DF98D80819CA185
:101EE00089238083EF898E2F8B7F09F089C08D89AC
:101EF000823089F0833021F1813081F58FEE90E0DE
:101F00009C01201B310B5B014C01841A950A860150
:101F100064017B0113C08FEE90E09C012C193D09F8
:101F20006C01C61AD70A8FE391E0AC01401B510B3C
:101F30008C010E191F09580146017A01B90110C020
:101F40008FE391E09C012C193D095C01A61AB70AA8
:101F50004A0168018501B701790102C05A014B01AC
:101F6000AB01E43049F567E370E0CE010E94E20B7B
:101F7000A60166E370E0CE010E94E20BA70169E3CF
:101F800070E0CE010E94E20BA80168E370E0CE0190
:101F90000E94E20BA40160E270E0CE010E94E20B1D
:101FA000A50161E270E0CE010E94E20B40E062E236
:101FB000CE010E94A60B6FC060E570E0CE010E94CA
:101FC000E20BA60161E570E0CE010E94E20BA701E1
:101FD00062E570E0CE010E94E20BA80163E570E0CB
:101FE000CE010E94E20BA40160E270E0CE010E94EB
:101FF000E20BA50161E270E0CE010E94E20B4BC052
:10200000E130C9F49B0143E062E0CE010E944C0C38
:10201000970147E066E0CE010E944C0C960145E036
:1020200064E0CE010E944C0C980149E068E0CE01CA
:102030000E944C0C30C08EEF8E0F823010F0E530D5
:1020400051F5CB01AA2797FDA095BA2FAC013327F4
:102050002227C601AA2797FDA095BA2F282B392B36
:102060004A2B5B2B6AE2CE010E944F0EC701AA27C2
:1020700097FDA095BA2FAC0133272227C801AA27C4
:1020800097FDA095BA2F282B392B4A2B5B2B6BE29F
:10209000CE010E944F0EE88DF98D808198A1892B89
:1020A0008083DF91CF911F910F91FF90EF90DF9090
:1020B000CF90BF90AF909F908F900895CF92DF9276
:1020C000EF92FF920F931F93CF93DF93EC0169017F
:1020D0007801121613060CF04FC057FD4DC08A85CB
:1020E0009B85481759070CF047C088859985681764
:1020F00079070CF041C0FB01E20FF31F9F01215053
:10210000310937FD39C077FF03C06F0160E070E02F
:102110002817390734F09C01215031096C01C61A87
:10212000D70A8A01CE010E945D0F9601442737FD30
:102130004095542FB701CE010E9411088F8981115B
:1021400010C00A851B850150110928853985215049
:10215000310940E050E060E070E0CE010E945D0F88
:102160000BC0CE01DF91CF911F910F91FF90EF90A7
:10217000DF90CF900C94C20CDF91CF911F910F9103
:10218000FF90EF90DF90CF900895CF92DF92EF9283
:10219000FF920F931F93CF93DF93EC0169017801B6
:1021A000121613060CF04FC077FD4DC08885998537
:1021B000681779070CF047C08A859B85481759072F
:1021C0000CF041C09A012C0D3D1D890101501109EF
:1021D00017FD39C057FF03C0690140E050E0081700
:1021E000190734F08C01015011096C01C41AD50A89
:1021F0009B01CE010E945D0F9601442737FD40955B
:10220000542FB701CE010E9411088F89811110C08F
:102210000A851B850150110928853985215031090E
:1022200040E050E060E070E0CE010E945D0F0BC026
:10223000CE01DF91CF911F910F91FF90EF90DF9032
:10224000CF900C94C20CDF91CF911F910F91FF9012
:10225000EF90DF90CF9008958F929F92AF92BF92B0
:10226000CF92DF92EF92FF920F931F93CF93DF9362
:10227000EC01590168014701121613060CF06BC0FE
:10228000101611060CF067C08885998568177907C4
:102290000CF061C0EA84FB844E155F050CF05BC056
:1022A000FB01E20FF31F9F012150310937FD53C09D
:1022B000DA01A00FB11F8D010150110917FD4BC0AC
:1022C00077FF03C05F0160E070E057FF03C06D015E
:1022D00040E050E02817390734F09C0121503109C3
:1022E0005C01A61AB70A0E151F0534F087010150CC
:1022F00011096701C41AD50ACE010E945D0F96012B
:10230000D5010E94B1249B01AC01B401CE010E9411
:1023100011088F89811110C00A851B850150110990
:10232000288539852150310940E050E060E070E0B7
:10233000CE010E945D0F0FC0CE01DF91CF911F91A2
:102340000F91FF90EF90DF90CF90BF90AF909F9054
:102350008F900C94C20CDF91CF911F910F91FF9041
:10236000EF90DF90CF90BF90AF909F908F900895A7
:10237000EF92FF920F931F93CF93DF93EC017B01BA
:102380008F89811127C0ED89E150E33068F4F0E0D6
:10239000DF01A95ABE4F4C9150E0EE0FFF1FEF5ADC
:1023A000FE4F0081118104C000E010E040E050E0E9
:1023B000E88DF98D80819CA18923808360E270E0A3
:1023C000CE010E94E20BA80161E270E0CE010E9402
:1023D000E20B12C08150853078F40A851B850150CC
:1023E0001109288539852150310940E050E060E02D
:1023F00070E0CE010E945D0F20E03CE241E050E041
:10240000B701CE01DF91CF911F910F91FF90EF9017
:102410000C941108AF92BF92CF92DF92EF92FF928D
:102420000F931F93CF93DF93EC015B017A01690156
:1024300077FDE7C057FDE5C088859985681779075E
:102440000CF0DFC08A859B85481759070CF0D9C06E
:10245000E88DF98D80819CA1892380838F89982FB5
:102460009B7FB1F58D89823059F08330B1F0813096
:10247000D1F48FEE90E0841B950B7B015C0113C0BF
:102480008FEE90E09C01261B370B59018FE391E002
:102490009C01241B350B790106C08FE391E0861B5C
:1024A000970B5A017C01A50160E270E0CE010E9409
:1024B000E20BA70161E270E0CE010E94E20BA601EF
:1024C0004095509562E270E0CE010E94E20B93C00D
:1024D000813041F5ED89E150E33028F4F0E0E25B32
:1024E000FE4F408101C040E066E1CE010E94A60B94
:1024F000950143E062E0CE010E944C0C970147E059
:1025000066E0CE010E944C0CEA8DFB8D80819DA17E
:10251000892380838BB1837080628BB985B18C7F76
:10252000826026C09EEF980F923018F0853009F037
:1025300062C00A851B850150110928853985215003
:102540003109A701B501CE010E945D0FE88DF98D1B
:1025500080819CA189238083EA8DFB8D80819DA150
:10256000892380838BB183708C628BB985B18C7F1A
:1025700085B9EC8DFD8D80819EA189238083EC8DB2
:10258000FD8D80819AA1892B8083EA8DFB8D8081CE
:1025900099A1892B80839BB18D2D8C7F9370892B82
:1025A0008BB995B18D2D83709C7F892B85B9EC8D6E
:1025B000FD8D80819EA189238083EC8DFD8D80819E
:1025C0009AA1892B80839BB18C2D8C7F9370892B52
:1025D0008BB995B18C2D83709C7F892B85B9EC8D3F
:1025E000FD8D80819EA189238083EC8DFD8D80816E
:1025F0009AA1892B8083E88DF98D808198A1892B00
:102600008083DF91CF911F910F91FF90EF90DF902A
:10261000CF90BF90AF900895DF92EF92FF920F930B
:102620001F93CF93DF93EC010E949907E88DF98DFA
:1026300080819CA1892380838F898B7F11F5ED890F
:10264000E150E33040F4F0E0EE0FFF1FE85BFE4F97
:102650004081518102C040E350E163E070E0CE016F
:102660000E94E20B0A851B850150110928853985D6
:102670002150310940E050E060E070E0CE010E945E
:102680005D0F8F89813089F4ED89E150E33028F4C2
:10269000F0E0EB5BFE4F408101C040E066E1CE011F
:1026A0000E94A60BCE010E94C20C8F89823039F5A0
:1026B0008D89813059F038F0823059F0833059F4E7
:1026C00038E2D32E08C028E8D22E05C098EED92EC5
:1026D00002C088E4D82E4D2D66E3CE010E94A60BE1
:1026E0000A851B850150110928853985215031093A
:1026F00040E050E060E070E0CE010E945D0F8F8905
:10270000833031F58D89813059F038F0823059F0BD
:10271000833051F400E6E02E07C010ECE12E04C037
:10272000B0EAEB2E01C0E12C4E2D66E3CE010E94F3
:10273000A60B0A851B850150110928853985215072
:10274000310940E050E060E070E0CE010E945D0F92
:102750008F89853039F58D89813059F038F0823094
:1027600059F0833059F4A8EEFA2E08C0FAE0FF2E93
:1027700005C0E8E2FE2E02C078E8F72E4F2D66E392
:10278000CE010E94A60B0A851B85015011092885E0
:1027900039852150310940E050E060E070E0CE0121
:1027A0000E945D0FDF91CF911F910F91FF90EF90ED
:1027B000DF9008950F931F93CF93DF93EC018B016C
:1027C0000E94B60768EC70E080E090E00E94901DE7
:1027D000053283E9180721F00832E3E91E0741F5C5
:1027E0001F8AE88DF98D80819CA1892380830FE168
:1027F00016E0F80185919491F80132964591549133
:102800008F3F910531F4BA0180E090E00E94901D65
:1028100004C0BC01CE010E94E20B0C5F1F4FF6E02A
:10282000073E1F0731F76D89CE010E940C13FBC1D3
:10283000013483E9180709F078C082E08F8BE88DB6
:10284000F98D80819CA18923808380E0E82FF0E0CE
:10285000ED54FA4F949112E0180F61E0680FE62FE3
:10286000F0E0ED54FA4F64919F3F31F470E080E066
:1028700090E00E94901D54C0A88DB98D2C913CA170
:1028800023232C93AA8DBB8D2C913DA123232C9324
:102890003BB1292F2C7F3370232B2BB925B193709B
:1028A0002C7F922B95B9EC8DFD8D90812EA19223DA
:1028B0009083EC8DFD8D90812AA1922B9083EA8DDF
:1028C000FB8D908129A1922B9083860F8E5FE12F43
:1028D000E817F9F031E03E0FF0E0ED54FA4FE491E3
:1028E0002BB19E2F9C7F2370922B9BB995B1E370E7
:1028F0009C7FE92BE5B9EC8DFD8D90812EA1922373
:102900009083EC8DFD8D90812AA1922B9083E32FF3
:10291000DFCF160FE88DF98D808198A1892B8083F8
:102920001C3608F009C2812F91CF0735E3E81E0756
:1029300009F078C083E08F8BE88DF98D80819CA1B0
:102940008923808380E0E82FF0E0E951F94F9491EA
:1029500012E0180F61E0680FE62FF0E0E951F94F3F
:1029600064919F3F31F470E080E090E00E94901D00
:1029700054C0A88DB98D2C913CA123232C93AA8DF2
:10298000BB8D2C913DA123232C933BB1292F2C7F70
:102990003370232B2BB925B193702C7F922B95B9D3
:1029A000EC8DFD8D90812EA192239083EC8DFD8D79
:1029B00090812AA1922B9083EA8DFB8D908129A191
:1029C000922B9083860F8E5FE12FE817F9F031E0AC
:1029D0003E0FF0E0E951F94FE4912BB19E2F9C7F1F
:1029E0002370922B9BB995B1E3709C7FE92BE5B9DD
:1029F000EC8DFD8D90812EA192239083EC8DFD8D29
:102A000090812AA1922B9083E32FDFCF160FE88DC0
:102A1000F98D808198A1892B8083163408F08CC1B0
:102A2000812F91CF0537F5E71F0761F581E08F8B87
:102A3000E88DF98D80819CA1892380830DE217E0C8
:102A4000F8018491319644918F3F39F4642F70E0FE
:102A500080E090E00E94901D04C0682FCE010E948B
:102A6000A60B0E5F1F4FF7E003381F0749F76D896C
:102A7000CE010E940C13CE01DF91CF911F910F91D7
:102A80000C94C20C043581E0180709F0D8C084E02A
:102A90008F8BE88DF98D80819CA1892380834AE109
:102AA00050E061E170E0CE010E94E20B41E251E3AF
:102AB00062E170E0CE010E94E20B4CE650E063E17F
:102AC00070E0CE010E94E20B49E452E464E170E060
:102AD000CE010E94E20B40E058E060E170E0CE01E0
:102AE0000E94E20B6AE070E080E090E00E94901D9E
:102AF0004AE151E061E170E0CE010E94E20B6AE040
:102B000070E080E090E00E94901D4AE153E061E1B6
:102B100070E0CE010E94E20B6AE070E080E090E09D
:102B20000E94901D4AE157E061E170E0CE010E94F1
:102B3000E20B6AE070E080E090E00E94901D4AE1C4
:102B40005FE061E170E0CE010E94E20B64E170E0C1
:102B500080E090E00E94901D4AE35FE061E170E058
:102B6000CE010E94E20B6EE170E080E090E00E94F6
:102B7000901D48E251E061E070E0CE010E94E20B5E
:102B800040E051E062E070E0CE010E94E20B40E3E1
:102B900050E163E070E0CE010E94E20B42E150E1BF
:102BA00067E070E0CE010E94E20B43E053E068E092
:102BB00070E0CE010E94E20B40E051E16BE070E07A
:102BC000CE010E94E20B40E050E06CE070E0CE01EC
:102BD0000E94E20B41E058E16FE070E0CE010E94FC
:102BE000E20B40E250E065E170E0CE010E94E20BB2
:102BF00042E150E067E070E0CE010E94E20B68E243
:102C000070E080E090E00E94901D43E150E067E0BA
:102C100070E0CE010E94E20B47E150E067E070E017
:102C2000CE010E94E20B0FE311E02FEE30E040E016
:102C300050E060E070E0CE010E945D0F7DC0073281
:102C4000134909F077C085E08F8BE88DF98D80817D
:102C50009CA18923808380E0E82FF0E0ED59FA4FB2
:102C6000949112E0180F61E0680FE62FF0E0ED5943
:102C7000FA4F64919F3F31F470E080E090E00E9451
:102C8000901D54C0A88DB98D2C913CA123232C9369
:102C9000AA8DBB8D2C913DA123232C933BB1292FD1
:102CA0002C7F3370232B2BB925B193702C7F922B63
:102CB00095B9EC8DFD8D90812EA192239083EC8DA2
:102CC000FD8D90812AA1922B9083EA8DFB8D9081BE
:102CD00029A1922B9083860F8E5FE12FE817F9F0E0
:102CE00031E03E0FF0E0ED59FA4FE4912BB19E2F09
:102CF0009C7F2370922B9BB995B1E3709C7FE92B4D
:102D0000E5B9EC8DFD8D90812EA192239083EC8D01
:102D1000FD8D90812AA1922B9083E32FDFCF160F98
:102D2000E88DF98D808198A1892B8083103520F45E
:102D3000812F92CF8FEF8F8BDF91CF911F910F91CA
:102D40000895DF92EF92FF920F931F93CF93DF933B
:102D5000D82E7B0104E110E0C0EAD6E88D2D0E9458
:102D6000FD1DA7014C1B5D0B57FF03C051954195FD
:102D700051099701281B390B37FF03C03195219565
:102D80003109241735070CF0CE010150110911F05B
:102D9000EC01E4CFDF91CF911F910F91FF90EF9065
:102DA000DF9008953F924F925F926F927F928F9241
:102DB0009F92AF92BF92CF92DF92EF92FF920F93CA
:102DC0001F93CF93DF9300D000D000D0CDB7DEB7F4
:102DD0007C01FC01A581B0E0FD01EB51F84FA4900E
:102DE000FC018281682F70E0FB01EB51F84FC49029
:102DF000F701448150E0FA01EB51F84F0491F701DB
:102E0000238130E0F901EB51F84F6490FD01EF525E
:102E1000F84F8490FB01EF52F84F9490FA01EF5273
:102E2000F84F1491F901EF52F84F549060E00E946E
:102E3000431E60E0F70183810E94431ED12CCC0C1D
:102E4000DD1CC6018750984F6C01FC01A591B4911F
:102E50008C91492C409484218C93712C660C771CA6
:102E6000F301E750F84F3F01A591B4918C91952D56
:102E7000909589238C9361E0F70185810E94431E20
:102E800061E0F70184810E94431EB12CAA0CBB1C97
:102E9000C5018750984F5C01FC01A591B4918C91BC
:102EA00088298C93E02FF0E0EE0FFF1FE750F84FDA
:102EB000A591B4918C91109581238C936091FA0126
:102EC0007091FB01F701828190E00E94A1168C01B4
:102ED00060E0F70185810E94431E60E0F701848174
:102EE0000E94431EF501A591B4918C91382C309429
:102EF00083218C9361E0F70182810E94431EF601D9
:102F0000A591B4918C9189298C9361E0F70183811B
:102F10000E94431E6091F8017091F901F7018481CC
:102F200090E00E94A1164C0161E0F70185810E94AA
:102F3000431EF501A591B4918C9183218C93F301EB
:102F4000A591B4918C9185298C93F601A591B491AA
:102F50008C9184218C9360E0F70182810E94431E52
:102F6000F70184810E94FD1D9093F7018093F60183
:102F7000F70182810E94FD1D9093F5018093F40179
:102F8000F701A680B7806090F6017090F701A11458
:102F9000B10409F451C0BC01882777FD8095982FB2
:102FA0000E9471236B017C01B301882777FD809516
:102FB000982F0E9471239B01AC01C701B6010E94AA
:102FC000D62220E030E040E85FE30E9471226B01EE
:102FD0007C016091FA017091FB01600F711F77FF16
:102FE00002C06F5F7F4F7595679571956195710907
:102FF00061507C4F882777FD8095982F0E94712320
:103000009B01AC01C701B6010E94FD236B017C014D
:10301000B50180E090E00E946F239B01AC01C701E5
:10302000B6010E94FD2320E030E040E85AE30E9410
:10303000FD230E943E2305C0B301681B790B61503C
:103040007C4FCB014597833D934040F41093FB01A7
:103050000093FA019092F9018092F8014091F801F1
:103060005091F9012FEF33E08091FA019091FB012B
:10307000281B390B3A8329834B835C837E836D83C2
:103080003A817E8180E090E026960FB6F894DEBF0C
:103090000FBECDBFDF91CF911F910F91FF90EF90A9
:1030A000DF90CF90BF90AF909F908F907F906F9068
:1030B0005F904F903F900895EF92FF920F93FC0125
:1030C0004283248303836583F782E6828AE090E06B
:1030D000918380830F91FF90EF9008950F931F933A
:1030E000CF93DF93EC01662359F00E94611D698341
:1030F0007A838B839C83DF91CF911F910F910895E9
:103100000E94611D09811A812B813C81601B710B1A
:10311000820B930B623371058105910530F763E0F3
:1031200070E080E090E00E94901DEACF60E00C9497
:103130006E18FC0113AA14AA15AA16AA11821282EB
:1031400013821482411551056105710521F0CB01EF
:10315000BA010C94901D0895FB01BA01A901DC018C
:10316000D296FC93EE93D19726E0CF010C94971F53
:103170001F93CF93DF93EC01162F62E771E089A9CB
:103180009AA90E9415214AE050E0612F89A99AA9C5
:103190000E940C2269E771E089A99AA90E94152171
:1031A00062E370E080E090E0DF91CF911F910C949A
:1031B000901D1F93CF93DF93EC01162F8D818823F1
:1031C00089F189A99AA9DC01ED91FC910480F5812E
:1031D000E02D0995892BA9F307C02637310519F190
:1031E0002835310509F41D8289A99AA9DC01ED91E0
:1031F000FC910480F581E02D09951816190694F4C8
:1032000089A99AA9DC01ED91FC910680F781E02D56
:1032100009959C01332723363105F9F6612FCE013C
:103220000E94B81883E6DF91CF911F9108950F9304
:103230001F93CF93DF931F92CDB7DEB78C01662328
:1032400049F081E0F801858360E0C80149830E946C
:10325000D9184981F80145830F90DF91CF911F91D3
:103260000F91089580E008950895FC012281338133
:1032700062177307A4F0A481B5814A175B077CF03D
:1032800081859285820F931F8617970744F02385C7
:1032900034852A0F3B1F81E0241735070CF480E0AA
:1032A00008951F93CF93DF93EC016E8511E06127A2
:1032B0006E8770E04AE050E084E792E00E94E721E8
:1032C0001D861E83DF91CF911F91089584E090E0C9
:1032D0000E94AE20FC0113821282209137023091AD
:1032E0003802318320839093380280933702909381
:1032F00036028093350221E020930A010895FC01F3
:103300008585811106C08685882321F091E0958707
:10331000089580E00895FC018585811106C0968599
:10332000911104C081E08587089580E00895CF92CF
:10333000DF92EF92FF920F931F93CF93DF93EC01F5
:103340008B016A01790183E190E00E94AE20FC01CB
:1033500013830283D582C48281E0868388ED91E065
:1033600091838083F286E18688E390E09487838767
:1033700085E090E096878587108A1786128A118AE1
:103380008A819B8190878783FB83EA83CF01DF91CA
:10339000CF911F910F91FF90EF90DF90CF90089504
:1033A000CF92DF92EF92FF920F931F93CF93DF9311
:1033B0001F92CDB7DEB76C017B018A018FE090E0F0
:1033C00029830E94AE20FC01F382E28215830483EC
:1033D00081E086838EEC91E09183808388E390E0A6
:1033E0009287818794878387158629812687D601CE
:1033F00012968D919C911397908787831396FC93D7
:10340000EE931297CF010F90DF91CF911F910F9103
:10341000FF90EF90DF90CF900895909336028093C5
:10342000350281E080930A010895EF92FF920F9395
:103430001F93CF93DF938C01EB01FC01E188F288AD
:10344000C7010E940C26892BF1F0C7010E94B02011
:10345000FE0101900020E9F7CF018C1B9D0B0E941B
:10346000E024F801928B818BBE010E941526BE01DB
:10347000F801878590890E940C2621E0892B09F4A8
:1034800020E0F8012683DF91CF911F910F91FF90EB
:10349000EF900895EF92FF920F9382E1E82E0EE0F5
:1034A0002FE040E161E182E492E00E94500A9CE258
:1034B000E92EFF24F39407E020E14FE066E08AE381
:1034C00092E00E945C180F91FF90EF900895CF93C7
:1034D000DF9381E08093390282E492E00E94B60794
:1034E00082E492E00E94C50DEC01C53283E9D80761
:1034F000A9F0CE0187529349029780F0C53785E73E
:10350000D80761F0C13483E9D80741F0C73583E8B3
:10351000D80721F0C43581E0D80769F4BE0182E400
:1035200092E00E94DA1360E070E082E492E0DF91C2
:10353000CF910C94B81163EA77E084E792E00E949F
:10354000F02040E150E0BE0184E792E0DF91CF91AE
:103550000C9413223F924F925F926F927F928F92C0
:103560009F92AF92BF92CF92DF92EF92FF920F9312
:103570001F93CF93DF9300D000D000D0CDB7DEB73C
:103580004C01362E8AE392E00E94D21629833A83B8
:103590004B835C836D837E8309811A814B805C80C1
:1035A00061E080E10E94431E61E08FE00E94431EC3
:1035B0002D813E8125513109809133029091340251
:1035C000233D334008F05DC0892B09F067C082E4D9
:1035D00092E00E94AE075C01CC24B7FCC094DC2CC6
:1035E000B801882777FD8095982F1F921F921F9210
:1035F0001F9218E9E12E13E0F12E00E010E026E919
:1036000030E040E050E00E9429223B0182E492E059
:103610000E94B2075C01CC24B7FCC094DC2CB20140
:10362000882777FD8095982F1F921F921F921F92D7
:1036300028E730E040E050E00E9429226B01D401ED
:1036400012960D911C9113970FB6F894DEBF0FBE22
:10365000CDBF0115110511F1D801ED91FC9102804A
:10366000F381E02DA601B301C8010995882329F053
:10367000109334020093330211C0F80107811085C2
:10368000E8CF009759F0DC01ED91FC910480F581C1
:10369000E02D09951092340210923302332031F05C
:1036A00060E070E082E492E00E94B811F4010281CF
:1036B000138101151105A1F0311005C0D80116962E
:1036C0008C91882349F0D801ED91FC910190F08113
:1036D000E02D632DC8010995F80107811085E9CF18
:1036E00026960FB6F894DEBF0FBECDBFDF91CF9107
:1036F0001F910F91FF90EF90DF90CF90BF90AF9010
:103700009F908F907F906F905F904F903F90089523
:1037100080913902811106C063E877E084E792E086
:103720000C9432218091350290913602009731F04D
:1037300060910A0110920A010C94AA1A08952F921E
:103740003F924F925F926F927F928F929F92AF9231
:10375000BF92CF92DF92EF92FF920F931F93CF937E
:10376000DF93CDB7DEB728970FB6F894DEBF0FBE54
:10377000CDBF5C0178876F832A0149013801FA8245
:10378000E98216017B01E20EF31EC12CD12CCA0185
:10379000821993099E838D83F901E219F309FC8351
:1037A000EB83E1E0EE1AF108C214D304CCF54F81AB
:1037B00058854C0D5D1D83012D813E81B50182E44C
:1037C00092E00E945E1009811A819201A701B50161
:1037D00082E492E00E945E10B6016A0D7B1D8301B7
:1037E0002B813C814F81588582E492E00E94C51074
:1037F000B701681979096A0D7B1D640D751D8F81EC
:103800009885681B790B09811A812B813C81AC0159
:1038100082E492E00E94C5109FEFC91AD90AC1CF75
:1038200028960FB6F894DEBF0FBECDBFDF91CF91C3
:103830001F910F91FF90EF90DF90CF90BF90AF90CE
:103840009F908F907F906F905F904F903F902F90C0
:103850000895CF92DF92EF92FF920F931F93CF9331
:10386000DF93EC011E82662359F10B851C850650FF
:10387000110929853A85265031094C815D814D5FBA
:103880005F4F6A817B816D5F7F4F84E3E82E85EA1D
:10389000F82E82E492E00E942C112B853C8549850C
:1038A0005A856C817D8193E0C92ED12CE9E4EE2EFE
:1038B000EAE4FE2E0BED1EED8A819B810E949F1B88
:1038C0008E85882319F08FE190E002C084E395EAA9
:1038D0000B851C850251110929853A852251310930
:1038E0004C815D81475F5F4F6A817B81675F7F4F5E
:1038F0007C0182E492E00E942C11DF91CF911F9114
:103900000F91FF90EF90DF90CF9008958F929F924C
:10391000AF92BF92CF92DF92EF92FF920F931F93DD
:10392000CF93DF93EC01F62E1E828F84988809894D
:103930001A89F80101900020E9F7CF0101975C0195
:10394000A01AB10AC50101960E94E024988B8F87C6
:10395000B8010E941526FF2019F10B851C852985C9
:103960003A854C815D816A817B81F4E3EF2EF5EA33
:10397000FF2E82E492E00E942C112B853C85498524
:103980005A856C817D81A3E0CA2ED12CB9E4EB2E3F
:10399000BAE4FB2E09E41AE48A819B810E949F1BF2
:1039A0006D8582E492E00E948D0744E355EA60E071
:1039B00078EF82E492E00E9493074C815D81485F3A
:1039C0005F4F6A817B816A5F7F4F82E492E00E9451
:1039D00087076F85788982E492E00E941521F401BF
:1039E00001900020E9F73197E819F909AE16BF06F2
:1039F0007CF444E355EA64E375EA82E492E00E94D1
:103A00009307B4016A0D7B1D82E492E00E941521A8
:103A1000C401DF91CF911F910F91FF90EF90DF9044
:103A2000CF90BF90AF909F908F900C94B0201F923A
:103A30000F920FB60F9211242F933F938F939F9362
:103A4000AF93BF9380916C0290916D02A0916E0232
:103A5000B0916F0230916B0223E0230F2D3720F4D9
:103A60000196A11DB11D05C026E8230F0296A11DD8
:103A7000B11D20936B0280936C0290936D02A09312
:103A80006E02B0936F028091700290917102A091CA
:103A90007202B09173020196A11DB11D8093700254
:103AA00090937102A0937202B0937302BF91AF9191
:103AB0009F918F913F912F910F900FBE0F901F906C
:103AC00018952FB7F89460916C0270916D028091F7
:103AD0006E0290916F022FBF08953FB7F8948091C6
:103AE000700290917102A0917202B091730226B59A
:103AF000A89B05C02F3F19F00196A11DB11D3FBF26
:103B00006627782F892F9A2F620F711D811D911DB5
:103B100042E0660F771F881F991F4A95D1F70895D5
:103B2000CF92DF92EF92FF92CF93DF936B017C01F4
:103B30000E946D1DEB01C114D104E104F10489F070
:103B40000E9470220E946D1D6C1B7D0B683E7340AD
:103B500090F381E0C81AD108E108F108C851DC4FA0
:103B6000EACFDF91CF91FF90EF90DF90CF90089553
:103B7000019739F0880F991F880F991F02970197B5
:103B8000F1F70895789484B5826084BD84B581602E
:103B900084BD85B5826085BD85B5816085BDEEE655
:103BA000F0E0808181608083E1E8F0E01082808134
:103BB00082608083808181608083E0E8F0E08081A2
:103BC00081608083E1EBF0E0808184608083E0EBC2
:103BD000F0E0808181608083EAE7F0E080818460AA
:103BE0008083808182608083808181608083808106
:103BF000806880831092C10008958E3008F08E5046
:103C0000877020910B0190E4299F90011124822B51
:103C100080937C0080917A00806480937A00809108
:103C20007A0086FDFCCF809178002091790090E0A9
:103C3000922B0895833081F028F4813099F08230FE
:103C4000A1F008958730A9F08830B9F08430D1F41C
:103C5000809180008F7D03C0809180008F7780935A
:103C60008000089584B58F7702C084B58F7D84BDB0
:103C700008958091B0008F7703C08091B0008F7D50
:103C80008093B0000895CF93DF9390E0FC01EF5252
:103C9000F84F2491FC01EB51F84F8491882349F1AE
:103CA00090E0880F991FFC01ED5FF74FA591B4914B
:103CB0008750984FFC01C591D4919FB7611108C0FE
:103CC000F8948C91209582238C93888182230AC05A
:103CD000623051F4F8948C91322F309583238C9379
:103CE0008881822B888304C0F8948C91822B8C93DA
:103CF0009FBFDF91CF9108950F931F93CF93DF93D1
:103D00001F92CDB7DEB7282F30E0F901E354F84F0A
:103D10008491F901EF52F84F1491F901EB51F84FEA
:103D200004910023C9F0882321F069830E941A1EA0
:103D30006981E02FF0E0EE0FFF1FE750F84FA591EB
:103D4000B4919FB7F8948C91611103C010958123B1
:103D500001C0812B8C939FBF0F90DF91CF911F915A
:103D60000F9108950E940726FC01818D228D90E01D
:103D7000805C9F4F821B91098F7399270895FC01E6
:103D8000918D828D981731F0828DE80FF11D858D10
:103D900090E008958FEF9FEF0895FC01918D828D43
:103DA000981761F0828DDF01A80FB11D5D968C918F
:103DB000928D9F5F9F73928F90E008958FEF9FEF9A
:103DC000089581E590E2892B49F080E090E0892B0D
:103DD00029F00E94512081110C9400000895FC01EB
:103DE000848DDF01A80FB11DA35ABF4F2C91848D84
:103DF00090E001968F739927848FA689B7892C93B9
:103E0000A089B1898C9180648C93938D848D981353
:103E100006C00288F389E02D80818F7D808308951C
:103E2000CF93DF93EC01888D8823C9F0EA89FB8961
:103E3000808185FD05C0A889B9898C9186FD0FC058
:103E40000FB607FCF5CF808185FFF2CFA889B9892D
:103E50008C9185FFEDCFCE010E94EF1EE7CFDF9161
:103E6000CF910895CF92DF92FF920F931F93CF933C
:103E7000DF931F92CDB7DEB76C01DC015B969C919E
:103E80005B975C968C915C97981307C05096ED9168
:103E9000FC915197808185FD32C0F601038D10E0C1
:103EA0000F5F1F4F0F731127F02EF601848DF8124C
:103EB00011C00FB607FCF9CFD6015096ED91FC91D9
:103EC0005197808185FFF1CFC60169830E94EF1E63
:103ED0006981EBCF838DE80FF11DE35AFF4F6083BB
:103EE000D6015B960C935B975296ED91FC9153979C
:103EF00080818062808381E058968C930DC0D601CA
:103F00005696ED91FC91579760835096ED91FC91F8
:103F1000519780818064808381E090E00F90DF91F1
:103F2000CF911F910F91FF90DF90CF900895BF9296
:103F3000CF92DF92EF92FF92CF93DF93EC016A0171
:103F40007B01B22EE889F98982E08083411581EEF8
:103F5000580761057105A1F060E079E08DE390E01C
:103F6000A70196010E94702421503109410951098D
:103F70005695479537952795211580E1380798F094
:103F8000E889F989108260E874E88EE190E0A70181
:103F900096010E947024215031094109510956951A
:103FA000479537952795EC85FD853083EE85FF8510
:103FB0002083188EEC89FD89B082EA89FB89808193
:103FC00080618083EA89FB89808188608083EA89B7
:103FD000FB89808180688083EA89FB8980818F7D6D
:103FE0008083DF91CF91FF90EF90DF90CF90BF90D3
:103FF00008951F920F920FB60F9211242F938F9353
:104000009F93EF93FF93E0918402F091850280816A
:10401000E0918A02F0918B0282FD12C09081809122
:104020008D028F5F8F7320918E02821751F0E09185
:104030008D02F0E0EC58FD4F958F80938D0201C00A
:104040008081FF91EF919F918F912F910F900FBEE3
:104050000F901F9018951F920F920FB60F92112478
:104060002F933F934F935F936F937F938F939F9380
:10407000AF93BF93EF93FF9384E792E00E94EF1E0C
:10408000FF91EF91BF91AF919F918F917F916F9130
:104090005F914F913F912F910F900FBE0F901F9006
:1040A000189584E792E00E94B41E21E0892B09F460
:1040B00020E0822F0895109277021092760288EE07
:1040C00093E0A0E0B0E08093780290937902A0930F
:1040D0007A02B0937B0282EE91E090937502809316
:1040E000740285EC90E0909381028093800284ECCE
:1040F00090E0909383028093820280EC90E0909312
:1041000085028093840281EC90E0909387028093F3
:10411000860282EC90E0909389028093880286EC7C
:1041200090E090938B0280938A0210928D021092FD
:104130008E0210928F0210929002089508950E94AC
:10414000C21D0E949E200E943404C1EEDEE10E9446
:104150006A042097E1F30E94E11EF9CF0C94E02459
:104160000C947825CF92DF92EF92FF920F931F93DA
:10417000CF93DF936C017A01EB01E60EF71E00E0AE
:1041800010E0CE15DF0561F06991D601ED91FC914B
:104190000190F081E02DC6010995080F191FF1CF9C
:1041A000C801DF91CF911F910F91FF90EF90DF90A9
:1041B000CF9008956115710581F0DB010D9000200D
:1041C000E9F7AD0141505109461B570BDC01ED9158
:1041D000FC910280F381E02D099480E090E0089545
:1041E000EF92FF920F931F93CF93DF938C01FB010C
:1041F000C0E0D0E064917F018FEFE81AF80A6623EF
:1042000061F0D801ED91FC910190F081E02DC801A1
:104210000995C80FD91FF701EDCFCE01DF91CF91DE
:104220001F910F91FF90EF9008950C94DA20DC011C
:10423000ED91FC910190F081E02D09940F931F9373
:10424000CF93DF93EC016DE00E9417218C016AE0AF
:10425000CE010E941721800F911FDF91CF911F91F6
:104260000F9108950F931F93CF93DF93EC010E945A
:10427000F0208C01CE010E941E21800F911FDF9142
:10428000CF911F910F9108958F929F92AF92BF92FD
:10429000CF92DF92EF92FF920F931F93CF93DF9312
:1042A000CDB7DEB7A1970FB6F894DEBF0FBECDBF76
:1042B0007C01C42EE52FCB01D22E19A221E02D15B1
:1042C00010F02AE0D22E8E010F5D1F4F8D2C912C05
:1042D000A12CB12C6C2D7E2FA50194010E9470247D
:1042E0008C2DD29E80191124015011098A3014F4AA
:1042F000805D01C0895CF80180832115310541058D
:10430000510521F0C22EE32FCA01E4CFB801C70145
:104310000E94DA20A1960FB6F894DEBF0FBECDBF83
:10432000DF91CF911F910F91FF90EF90DF90CF9091
:10433000BF90AF909F908F900895CF92DF92EF92B1
:10434000FF920F931F93CF93DF93EC016A017B01E0
:104350002115310579F4E881F9810190F081E02D92
:10436000642FDF91CF911F910F91FF90EF90DF901D
:10437000CF9009942A303105E9F477FF1AC06DE235
:104380000E9417218C0144275527BA014C195D0959
:104390006E097F092AE0CE010E944421800F911FFF
:1043A000DF91CF911F910F91FF90EF90DF90CF9011
:1043B00008952AE0B701A601CE01DF91CF911F91A8
:1043C0000F91FF90EF90DF90CF900C9444210F93CA
:1043D0001F93CF93DF93EC019A01AB01662757FD42
:1043E0006095762F0E949D218C01CE010E941E2196
:1043F000800F911FDF91CF911F910F91089521158B
:10440000310541F4DC01ED91FC910190F081E02D4A
:10441000642F09940C9444219A01462F50E060E0E7
:1044200070E00C94FF210F931F93CF93DF93EC0167
:104430009A01AB0160E070E00E94FF218C01CE0187
:104440000E941E21800F911FDF91CF911F910F912C
:1044500008954F925F926F927F92AF92BF92CF92E8
:10446000DF92EF92FF920F931F93CF93DF93CDB71D
:10447000DEB729013A01621B730B840B950B298966
:104480003A894B895C892A193B094C095D09298BBA
:104490003A8B4B8B5C8B9B01AC0169897A898B8948
:1044A0009C890E946024E418F50806091709A801F0
:1044B00097010E9492242A0D3B1D4C1D5D1DCA01CF
:1044C000B901DF91CF911F910F91FF90EF90DF9095
:1044D000CF90BF90AF907F906F905F904F90089576
:1044E00008955058BB27AA270ED04DC13ED130F0B9
:1044F00043D120F031F49F3F11F41EF433C10EF488
:10450000E095E7FB29C1E92F4FD180F3BA17620785
:1045100073078407950718F071F49EF567C10EF4D0
:10452000E0950B2EBA2FA02D0B01B90190010C01C3
:10453000CA01A0011124FF27591B99F0593F50F4DB
:10454000503E68F11A16F040A22F232F342F442733
:10455000585FF3CF469537952795A795F04053952B
:10456000C9F77EF41F16BA0B620B730B840BBAF0FB
:104570009150A1F0FF0FBB1F661F771F881FC2F766
:104580000EC0BA0F621F731F841F48F4879577957A
:104590006795B795F7959E3F08F0B3CF9395880F31
:1045A00008F09927EE0F9795879508950CD0EBC0EA
:1045B000E3D040F0DAD030F021F45F3F19F0CCC006
:1045C000511115C1CFC0F0D098F39923C9F35523E9
:1045D000B1F3951B550BBB27AA27621773078407F6
:1045E00038F09F5F5F4F220F331F441FAA1FA9F3AC
:1045F00033D00E2E3AF0E0E830D091505040E6959E
:10460000001CCAF729D0FE2F27D0660F771F881FFE
:10461000BB1F261737074807AB07B0E809F0BB0BED
:10462000802DBF01FF2793585F4F2AF09E3F510511
:1046300068F092C0DCC05F3FECF3983EDCF38695F7
:1046400077956795B795F7959F5FC9F7880F911D87
:104650009695879597F90895E1E0660F771F881F73
:10466000BB1F621773078407BA0720F0621B730B26
:10467000840BBA0BEE1F88F7E095089504D0689478
:10468000B111B5C0089598D088F09F5790F0B92F18
:104690009927B751A0F0D1F0660F771F881F991F97
:1046A0001AF0BA95C9F712C0B13081F09FD0B1E0CD
:1046B00008959CC0672F782F8827B85F39F0B93FDD
:1046C000CCF3869577956795B395D9F73EF4909599
:1046D0008095709561957F4F8F4F9F4F0895E89417
:1046E00009C097FB3EF490958095709561957F4F3A
:1046F0008F4F9F4F9923A9F0F92F96E9BB279395E8
:10470000F695879577956795B795F111F8CFFAF4F7
:10471000BB0F11F460FF1BC06F5F7F4F8F4F9F4F28
:1047200016C0882311F096E911C0772321F09EE886
:10473000872F762F05C0662371F096E8862F70E0EC
:1047400060E02AF09A95660F771F881FDAF7880FC6
:104750009695879597F9089597F99F6780E870E097
:1047600060E008959FEF80EC089500240A941616E7
:10477000170618060906089500240A94121613064F
:10478000140605060895092E0394000C11F48823DD
:1047900052F0BB0F40F4BF2B11F460FF04C06F5FF9
:1047A0007F4F8F4F9F4F089557FD9058440F551FCF
:1047B00059F05F3F71F04795880F97FB991F61F0A3
:1047C0009F3F79F087950895121613061406551F1A
:1047D000F2CF4695F1DF08C0161617061806991F86
:1047E000F1CF86957105610508940895E894BB277B
:1047F00066277727CB0197F908950BD0C4CFB5DF93
:1048000028F0BADF18F0952309F0A6CFABCF11241A
:10481000EECFCADFA0F3959FD1F3950F50E0551F5F
:10482000629FF001729FBB27F00DB11D639FAA2705
:10483000F00DB11DAA1F649F6627B00DA11D661F54
:10484000829F2227B00DA11D621F739FB00DA11D75
:10485000621F839FA00D611D221F749F3327A00D2F
:10486000611D231F849F600D211D822F762F6A2FCB
:1048700011249F5750408AF0E1F088234AF0EE0F50
:10488000FF1FBB1F661F771F881F91505040A9F75D
:104890009E3F510570F060CFAACF5F3FECF3983E8A
:1048A000DCF3869577956795B795F795E7959F5FC4
:1048B000C1F7FE2B880F911D9695879597F908955E
:1048C000DB018F939F930E94CF24BF91AF91A29F52
:1048D000800D911DA39F900DB29F900D11240895FE
:1048E000A1E21A2EAA1BBB1BFD010DC0AA1FBB1FF4
:1048F000EE1FFF1FA217B307E407F50720F0A21B66
:10490000B30BE40BF50B661F771F881F991F1A94D2
:1049100069F760957095809590959B01AC01BD01FC
:10492000CF010895052E97FB1EF400940E94A92440
:1049300057FD07D00E94702407FC03D04EF40C945E
:10494000A92450954095309521953F4F4F4F5F4F8B
:10495000089590958095709561957F4F8F4F9F4FEB
:1049600008950E94B924332312F48A1B9B0B0C94E4
:10497000CA24A29FB001B39FC001A39F700D811DE7
:104980001124911DB29F700D811D1124911D089558
:104990000E94B924B7FF0895821B930B08950E94CB
:1049A000B924A59F900DB49F900DA49F800D911DDB
:1049B00011240895EE0FFF1F0590F491E02D099446
:1049C000CF93DF938230910510F482E090E0E09184
:1049D0001303F091140320E030E0A0E0B0E0309742
:1049E00039F14081518148175907B8F048175907E4
:1049F00071F482819381109729F013969C938E9382
:104A000012972CC0909314038093130327C0211591
:104A1000310531F04217530718F0A901DB0101C03D
:104A2000EF019A01BD01DF010280F381E02DD7CFB4
:104A300021153105F9F0281B390B2430310580F49C
:104A40008A819B816115710521F0FB01938382832B
:104A500004C09093140380931303FE01329644C064
:104A6000FE01E20FF31F81939193225031093983A4
:104A700028833AC02091110330911203232B41F473
:104A8000209102013091030130931203209311030E
:104A900020910001309101012115310541F42DB71C
:104AA0003EB74091040150910501241B350BE09164
:104AB0001103F0911203E217F307A0F42E1B3F0B32
:104AC0002817390778F0AC014E5F5F4F2417350780
:104AD00048F04E0F5F1F50931203409311038193D0
:104AE000919302C0E0E0F0E0CF01DF91CF91089513
:104AF000CF93DF93009709F487C0FC0132971382AC
:104B00001282C0911303D0911403209781F4208165
:104B10003181280F391F8091110390911203821760
:104B2000930779F5F0931203E09311036DC0DE0152
:104B300020E030E0AE17BF0750F412964D915C9123
:104B400013979D014115510509F1DA01F3CFB383A4
:104B5000A28340815181840F951F8A179B0771F4AE
:104B60008D919C911197840F951F0296918380835C
:104B700012968D919C911397938382832115310511
:104B800029F4F0931403E09313033EC0D901139664
:104B9000FC93EE9312974D915D91A40FB51FEA1708
:104BA000FB0779F480819181840F951F0296D901CA
:104BB00011969C938E938281938113969C938E93EE
:104BC0001297E0E0F0E08A819B81009719F0FE01E6
:104BD000EC01F9CFCE01029628813981820F931F13
:104BE00020911103309112032817390769F4309787
:104BF00029F4109214031092130302C0138212823C
:104C0000D0931203C0931103DF91CF91089581E0F7
:104C100090E0F8940C941C26FB01DC018D9101902E
:104C200080190110D9F3990B0895FB01DC01019063
:0C4C30000D920020E1F70895F894FFCFEA
:104C3C00000015038000010000000101564D445096
:104C4C00565F317C315F564D4450560D0A004C4531
:104C5C0044204F4E004C4544204F46460000000077
:104C6C00003307B220B21EB604BC05D3056D05E9AE
:104C7C00051E063C0660C0A028100010181060C06D
:104C8C00A000003F013F01EFEF00000000003307E0
:104C9C00B2200A12B604C5105E106D052C11B811A5
:104CAC003C06564D4450435F005F564D4450430DF7
:104CBC000A004572726F723A20417474656D70749B
:104CCC0020746F20736574206120726561642D6F90
:104CDC006E6C79207661726961626C65206F7220EE
:104CEC00646174612074797065206E6F74207375C3
:104CFC0070706F727465640D0A0000000000291C4E
:104D0C003519511900000000861C321934190000A5
:0E4D1C000000321FB220B41ECD1EBF1E101F9D
:00000001FF
