:100000000C9487040C94AF040C94AF040C94AF04CC
:100010000C94AF040C94AF040C94AF040C94AF0494
:100020000C94AF040C94AF040C94AF040C945D05D5
:100030000C94AF040C94AF040C94AF040C94AF0474
:100040000C94A61C0C94AF040C946B1F0C949D1F75
:100050000C94AF040C94B1040C94AF040C94AF0452
:100060000C94AF040C94AF0400000000003E5B4F02
:100070005B3E3E6B4F6B3E1C3E7C3E1C183C7E3C08
:10008000181C577D571C1C5E7F5E1C00183C180016
:10009000FFE7C3E7FF0018241800FFE7DBE7FF30A6
:1000A000483A060E2629792926407F050507407F14
:1000B00005253F5A3CE73C5A7F3E1C1C08081C1C87
:1000C0003E7F14227F22145F5F005F5F06097F017D
:1000D0007F006689956A606060606094A2FFA29468
:1000E00008047E040810207E201008082A1C080836
:1000F0001C2A08081E101010100C1E0C1E0C303884
:100100003E3830060E3E0E06000000000000005F84
:1001100000000007000700147F147F14242A7F2AA0
:100120001223130864623649562050000807030062
:10013000001C2241000041221C002A1C7F1C2A08AE
:10014000083E080800807030000808080808000011
:1001500060600020100804023E5149453E00427F85
:10016000400072494949462141494D331814127FD4
:100170001027454545393C4A494931412111090774
:100180003649494936464949291E000014000000F5
:1001900040340000000814224114141414140041C7
:1001A00022140802015909063E415D594E7C121184
:1001B000127C7F494949363E414141227F414141BC
:1001C0003E7F494949417F090909013E4141517337
:1001D0007F0808087F00417F41002040413F017FA8
:1001E000081422417F404040407F021C027F7F0470
:1001F00008107F3E4141413E7F090909063E4151B9
:10020000215E7F09192946264949493203017F01A8
:10021000033F4040403F1F2040201F3F4038403FA9
:10022000631408146303047804036159494D4300BF
:100230007F4141410204081020004141417F0402F6
:10024000010204404040404000030708002054548D
:1002500078407F284444383844444428384444286B
:100260007F385454541800087E090218A4A49C78BE
:100270007F0804047800447D40002040403D007F1A
:100280001028440000417F40007C047804787C08FA
:100290000404783844444438FC18242418182424CE
:1002A00018FC7C08040408485454542404043F44B3
:1002B000243C4040207C1C2040201C3C4030403CE2
:1002C00044281028444C9090907C4464544C440042
:1002D00008364100000077000000413608000201A6
:1002E0000204023C2623263C1EA1A161123A404092
:1002F000207A38545455592155557941225454780F
:1003000042215554784020545579400C1E527212A7
:100310003955555559395454545939555454580030
:1003200000457C410002457D420001457C407D1234
:1003300011127DF0282528F07C5455450020545496
:100340007C547C0A097F4932494949323A44444441
:100350003A324A4848303A4141217A3A424020787C
:10036000009DA0A07D3D4242423D3D4040403D3C7D
:1003700024FF2424487E4943662B2FFC2F2BFF09A2
:1003800029F620C0887E0903205454794100004496
:100390007D413048484A32384040227A007A0A0A81
:1003A000727D0D19317D2629292F282629292926F4
:1003B00030484D4020380808080808080808382F39
:1003C00010C8ACBA2F102834FA00007B00000814C3
:1003D0002A142222142A1408AA005500AAAA55AAEF
:1003E00055AA000000FF00101010FF00141414FFA5
:1003F000001010FF00FF1010F010F0141414FC0097
:100400001414F700FF0000FF00FF1414F404FC14A0
:100410001417101F10101F101F1414141F00101099
:1004200010F0000000001F101010101F101010100E
:10043000F010000000FF101010101010101010FF2E
:1004400010000000FF140000FF00FF00001F101745
:100450000000FC04F414141710171414F404F4002E
:1004600000FF00F714141414141414F700F71414F4
:1004700014171410101F101F141414F4141010F07B
:1004800010F000001F101F0000001F14000000FCEF
:10049000140000F010F01010FF10FF141414FF14DB
:1004A0001010101F00000000F010FFFFFFFFFFF012
:1004B000F0F0F0F0FFFFFF0000000000FFFF0F0F63
:1004C0000F0F0F3844443844FC4A4A4A347E020233
:1004D0000606027E027E0263554941633844443C6D
:1004E00004407E201E2006027E020299A5E7A599FF
:1004F0001C2A492A1C4C7201724C304A4D4D303036
:1005000048784830BC625A463D3E494949007E0120
:1005100001017E2A2A2A2A2A44445F444440514A3F
:10052000444040444A51400000FF0103E080FF0086
:100530000008086B6B083612362436060F090F06C2
:10054000000018180000001010003040FF010100EA
:100550001F01011E00191D1712003C3C3C3C00000D
:100560000000000100E901201100FF64D1030071C7
:1005700019D0030701083601483A0105C1041010DB
:100580000202C006003100000102C50104D20201CE
:1005900044C80F04673504080624013740031008D7
:1005A00080002A04000000EF2B050000013F8F2986
:1005B000002C000100CB05392C003402CF0300C110
:1005C00030E803850078EA020000ED04640312813C
:1005D000F70120C00123C10110C5023E28C70186D2
:1005E0003601483A0155B1020018B603088227F2D5
:1005F0000100260101E00F0F312B0C0E084EF137E0
:100600000710030E0900E10F000E1403110731C19A
:1006100048080F0C31360F1100FF9629002C0000FE
:10062000000100FF0032000100000102000007038A
:10063000003010040000000700000008000202095A
:100640000000000A0000000C0000000D0000000F78
:10065000000000100000001100070012000000134D
:10066000000000FF00C8001000901611000800FFF5
:1006700000320012001800FF0032001300000029B1
:10068000002A00FF0032003000000031000000327C
:100690000000003500060236000808370007003861
:1006A000000102390000003C0000003D0000005045
:1006B0000000005100EF005200000053003F0160B5
:1006C0000000A7610003006A000000900010009283
:1006D00000000093000300950000119700000098AF
:1006E000000000070033010100B903FF8357FFFA40
:1006F000B30400000606B60125B00168CC0105B1BF
:100700000600151C1C83AAC0065050013C1E08B4EC
:10071000070240002A2A0D783A01553601C03501FA
:1007200000440200021100FF962900FF322E8929A1
:100730008F2B02E200E401E510E601E710E870F219
:1007400000EA00EB20EC3CEDC8E938F1011B1A1A75
:10075000022461255C183619011F88FF051F80FFE0
:10076000051F90FF051FD4FF05170536092838FF20
:1007700028283C02000300040005EF0600070008DB
:1007800001093F57696E646F774D616E61676572ED
:100790002069736E277420696E697469616C697A67
:1007A000656400556E6B6E6F776E204C4344206419
:1007B000726976657220636869703A2000000000F3
:1007C0000800020100000304070000000000000010
:1007D00000010204081020408001020408102001DA
:1007E00002040810200404040404040404020202A5
:1007F0000202020303030303030000000025002894
:10080000002B0000000000240027002A0000407A8E
:1008100010F35A00A0724E18090010A5D4E8000089
:10082000E87648170000E40B54020000CA9A3B0027
:100830000000E1F505000080969800000040420F9E
:10084000000000A08601000000102700000000E862
:1008500003000000006400000000000A0000000027
:10086000000100000000002C76D888DC674F0823C8
:10087000DFC1DFAE59E1B1B796E5E3E453C63AE62E
:1008800051997696E8E6C28426EB898C9B62ED400E
:100890007C6FFCEFBC9C9F40F2BAA56FA5F490055D
:1008A0005A2AF75C936B6CF9676DC11BFCE0E40D91
:1008B00047FEF520E6B500D0ED902E030094357785
:1008C000050080841E080000204E0A000000C80CAD
:1008D000333333330F986E12831141EF8D21148916
:1008E0003BE65516CFFEE6DB18D1844B381BF77C70
:1008F0001D901DA4BBE424203284725E228100C9B5
:10090000F124ECA1E53D270064068E1ACD1F1124C9
:100910001FBECFEFD8E0DEBFCDBF11E0A0E0B1E059
:10092000EEE7F1E502C005900D92A83EB107D9F7B8
:1009300027E0A8EEB1E001C01D92A931B207E1F7AE
:1009400019E0CEE0D9E004C02297FE010E94C7233F
:10095000C830D107C9F70E9411200C94BD280C940F
:1009600000001F920F920FB60F9211242F933F9306
:100970008F939F93EF93FF9380917800209179005C
:1009800090E0922B9093ED018093EC018091EA012D
:100990009091EB0101969093EB018093EA01809195
:1009A000F0059091F1058F3F9105D1F1CCF1809147
:1009B000EE019091EF01892B51F08091E801909127
:1009C000E90101969093E9018093E80142C01092F9
:1009D000F1051092F0058091F2059091F305892BB5
:1009E00069F01092F3051092F20580EF93E0909376
:1009F00007018093060180EF91E00EC081E090E056
:100A00009093F3058093F20580EF91E090930701B6
:100A10008093060180EF93E09093EF018093EE01C5
:100A2000E0910601F09107018091F0059091F105A8
:100A30009C012F5F3F4F3093F1052093F005880F05
:100A4000991FE80FF91F8091EC019091ED019183BE
:100A50008083FF91EF919F918F913F912F910F9004
:100A60000FBE0F901F901895F89487E480937C0038
:100A700010927B00EAE7F0E08FEC80838081806455
:100A8000808310928000E1E8F0E0108210928500EF
:100A90001092840080E190E0909389008093880018
:100AA000808188608083808185608083EFE6F0E0CC
:100AB000808182608083789408951F920F920FB690
:100AC0000F9211248F93EF93FF93EAE7F0E0808178
:100AD00080648083FF91EF918F910F900FBE0F90F4
:100AE0001F90189540ED57E060E070E082E096E0DE
:100AF0000E94DD1820E038EE43E050E068E776E041
:100B000082E096E00E94F01882E096E00E94DA18F7
:100B100069E071E080913306909134060E9487204D
:100B20006AE070E080E090E00E941F1D41E060E01C
:100B300082E096E00E945B1926E040E058EE63E018
:100B400070E088E796E00E94091F6BE171E088E79A
:100B500096E00E94B62068EE73E080E090E00E948C
:100B60001F1D0E94AB1A8091FE059091FF050E9407
:100B70004C1A0C943405CF93DF93CDB7DEB72C9786
:100B80000FB6F894DEBF0FBECDBF6091EE0170913D
:100B9000EF016115710509F48EC0E0917806F091BE
:100BA00079060280F381E02D40E052E088E796E08C
:100BB00009951092EF011092EE018091FA05909143
:100BC000FB050E94B719882389F080910006909157
:100BD000010601969093010680930006069734F073
:100BE00085E090E090930106809300068091FC05DB
:100BF0009091FD050E94B719882379F08091000635
:100C0000909101060197909301068093000697FF4B
:100C100004C010920106109200068091EC019091A0
:100C2000ED0125E0289FB001299F700D112480E07F
:100C300090E00E94942220E030E040E85AE30E94D5
:100C40002223AB01BC0122E0CE0107960E941D22A7
:100C5000BE01695F7F4FCE0101960E94D02161E203
:100C600071E0CE0101960E947922BC018091F805C5
:100C70009091F9050E94891ACE0101960E944B219C
:100C8000CE0107960E944B216091E8017091E90125
:100C90004AE0CE0101960E94F12169817A8180911A
:100CA000F6059091F7050E94541ACE0101960E9414
:100CB0004B210E94151B2C960FB6F894DEBF0FBE79
:100CC000CDBFDF91CF9108950E949E199093FF05AB
:100CD0008093FE0523E231E04AEA50E062E370E0EF
:100CE0000E94BC199093FD058093FC0525E231E03C
:100CF0004AEA50E060EA70E08091FE059091FF05BD
:100D00000E94BC199093FB058093FA0528EC30E013
:100D100040E050E064E170E08091FE059091FF05B5
:100D20000E94131A9093F9058093F80528EC30E09F
:100D300046E450E064E170E08091FE059091FF058B
:100D40000E94131A9093F7058093F60528E230E08D
:100D500045EA50E064E670E08091FE059091FF0561
:100D60000E94131A9093F5058093F40508952F922D
:100D70003F924F925F926F927F928F929F92AF922B
:100D8000BF92CF92DF92EF92FF920F931F93CF9378
:100D9000DF9300D000D0CDB7DEB74C017C836B83EE
:100DA0006A015901C8018701AC014C195D0957FF5F
:100DB00003C051954195510995016B817C81261B9A
:100DC000370B37FF03C03195219531092224239435
:100DD000312C2417350714F0212C312C2114310427
:100DE00059F03A2D2B2D5C01832F922F3B812C81C2
:100DF000DC82CB82C32ED22EAB81BC81AA16BB066D
:100E00005CF43C2D2D2D6C01832F922F3B812C8186
:100E1000BC82AB82A32EB22E2501EB81FC814E1A3F
:100E20005F0A3C016C187D0877FE03C071946194E1
:100E30007108720157FE03C0FFEFEF1AFF0AF59425
:100E4000E794C816D9062CF421E030E03A832983D0
:100E500024C06FEF7FEF7A8369831FC0D401ED91C7
:100E6000FC910480F581E02D980121143104D9F022
:100E70004B815C81B601C4010995E618F708F7FEBD
:100E800006C0E981FA81CE0EDF1EE40CF51C2B8131
:100E90003C812F5F3F4F3C832B836B817C81A61667
:100EA000B706E4F604C0A6016B817C81E4CF0F9005
:100EB0000F900F900F90DF91CF911F910F91FF90A6
:100EC000EF90DF90CF90BF90AF909F908F907F90EA
:100ED0006F905F904F903F902F9008956F927F9208
:100EE0008F929F92AF92BF92CF92DF92EF92FF923A
:100EF0000F931F93CF93DF93EC015B016A013901DC
:100F00004801E881F9810284F385E02D8701099584
:100F1000E881F981A601480D591D4150510902840B
:100F2000F385E02D9301B501CE010995E881F981A2
:100F30000084F185E02D9401A601B501CE0109954B
:100F4000E881F981B501660D771D61507109008452
:100F5000F185E02D9401A601CE010995DF91CF9195
:100F60001F910F91FF90EF90DF90CF90BF90AF90C7
:100F70009F908F907F906F900895EF92FF920F93C4
:100F80001F93DC01ED91FC91240F351F2150310995
:100F90000680F781E02D780189019B0109951F9159
:100FA0000F91FF90EF900895EF92FF920F931F9390
:100FB000DC01ED91FC91260F371F2150310906808D
:100FC000F781E02D78018A0109951F910F91FF901B
:100FD000EF9008956F927F928F929F92AF92BF92FF
:100FE000CF92DF92EF92FF920F931F93CF93DF93F5
:100FF0005C014A0169013801EB01C60ED71ECC1510
:10100000DD0574F4D501ED91FC910084F185E02DAE
:1010100087019301A401BE01C50109952196EFCF77
:10102000DF91CF911F910F91FF90EF90DF90CF90C4
:10103000BF90AF909F908F907F906F900895EF92A8
:10104000FF920F931F93DC01ED91FC9111971A967B
:101050000D911C911B9718962D913C911997068420
:10106000F785E02D7B0140E050E060E070E00995FD
:101070001F910F91FF90EF9008950895FC01138246
:1010800012828BE291E0918380837583648357831E
:1010900046837187608753874287158A1586148631
:1010A0001786168621E0248B8FEF9FEF938B828B20
:1010B000918B808B268B08952F923F924F925F9257
:1010C0006F927F928F929F92AF92BF92CF92DF9258
:1010D000EF92FF920F931F93CF93DF93CDB7DEB7BD
:1010E0002C970FB6F894DEBF0FBECDBF9C878B87C1
:1010F0003A0118870F83FA86E986CD82DC011896BB
:101100008D919C911997681779070CF094C01A96E5
:101110008D919C911B97481759070CF08CC08C2C13
:10112000912CCB01B6E0CB9E800D911D1124181699
:1011300019060CF080C0C40153E0880F991F5A951E
:10114000E1F7860D971D181619060CF074C0F5E02E
:101150002F9F200111245B016B011C8292012859F1
:101160003F4F2901461A570A3C81353031F0F201D0
:10117000EA0DFB1D44914B8301C01B827A82698278
:1011800013011E828B8180FF13C0AB85BC85ED915E
:10119000FC91BD81B13031F40480F581E02D2F81C7
:1011A000388519C00684F785E02DEF80F8841EC0CD
:1011B000E985FA852F813885E217F307F9F0AB85C9
:1011C000BC85ED91FC91BD81B13059F40480F5816D
:1011D000E02D29853A85A101B5018B859C8509956E
:1011E0000DC00684F785E02DE984FA84840194011A
:1011F00049815A81B6018B859C850995EB81E695DD
:10120000EB83FE81FF5FFE8329813A81280D391D22
:101210003A8329833FEF231A330AF83009F0B2CF1B
:101220004C814F5F4C83C80CD91C8FEFA81AB80AA9
:10123000463009F099CF2C960FB6F894DEBF0FBE5A
:10124000CDBFDF91CF911F910F91FF90EF90DF9075
:10125000CF90BF90AF909F908F907F906F905F9056
:101260004F903F902F900895CF92EF92FF920F935F
:101270001F93CF93DF93EC01262F6A3049F42C891A
:101280008E859F8538E0239F800D911D112432C0EB
:101290006D30A1F1EA88FB88088919894E855F8540
:1012A0006C857D85CC880E945C082C89422F50E09B
:1012B0008C859D8536E0239F800D911D11249D878F
:1012C0008C872E892223D1F06AEF64039001659FF9
:1012D000300D112468857985260F371F28173907A7
:1012E0006CF463E0440F551F6A95E1F78E859F8586
:1012F000840F951F9F878E871D861C8681E090E056
:10130000DF91CF911F910F91FF90EF90CF900895B3
:10131000FC0175876487578746870895611101C06E
:1013200061E0FC01648B0895FC01738B628B718B0F
:10133000608B0895FC01718B608B538B428B0895F9
:10134000FC016370658B84819581268137816130D2
:1013500039F0633029F09187808733872287089599
:1013600031872087938782870895CF93DF93EC019D
:10137000E88DF98D808198A1892B8083EC8DFD8D7E
:1013800080819AA1892B8083EE8DFF8D80819BA126
:10139000892B808388A5882369F060E00E94EE1D78
:1013A00062E070E080E090E00E941F1D61E088A58F
:1013B0000E94EE1DE88DF98D80819CA18923808398
:1013C000EA8DFB8D80819DA1892380838BB1837001
:1013D0008BB985B18C7F85B9EC8DFD8D80819EA107
:1013E00089238083EC8DFD8D80819AA1892B808358
:1013F00083E0EC8DFD8D90812EA192239083EC8D66
:10140000FD8D90812AA1922B9083815091F7E88DD8
:10141000F98D808198A1892B8083DF91CF910895E8
:10142000DF92EF92FF920F931F93CF93DF93FC0114
:1014300060957095CB01A08DB18DCC91D4A1CD23B9
:10144000CC93A28DB38DCC91D5A1CD23CC93A7897C
:10145000A230C9F0A530B9F0A11113C0ABB1A3708F
:10146000ABB9A5B1AC7FA5B9A48DB58DCC91D6A1F2
:10147000CD23CC93A48DB58DCC91D2A1CD2BCC9383
:1014800009C0A33039F4ABB1A370AC62ABB9A5B15C
:10149000AC7F07C0ABB1A370A062ABB9A5B1AC7F04
:1014A000A260A5B9A48DB58DCC91D6A1CD23CC9346
:1014B000A48DB58DCC91D2A1CD2BCC93A28DB38D23
:1014C000CC91D1A1CD2BCC93ABB1C72FCC7FA37046
:1014D000AC2BABB9A5B1D72FD370AC7FAD2BA5B9D1
:1014E000A48DB58D7C9116A171237C93A48DB58DAF
:1014F0007C9112A1712B7C937BB1A62FAC7FFA2E2D
:1015000073707A2B7BB975B1A62FA370EA2E7C7FFE
:101510007A2B75B9A48DB58D6C9176A167236C93E8
:10152000A48DB58D6C9172A1672B6C93BA01A90142
:1015300041505109610971098A019B0156E03695B4
:101540002795179507955A95D1F7981719F080E0C8
:1015500090E03AC180E090E00817190709F466C0EE
:1015600020E1A48DB58D3C91C6A13C233C93A48D74
:10157000B58D3C91C2A13C2B3C93A48DB58D3C9183
:10158000C6A13C233C93A48DB58D3C91C2A13C2BBC
:101590003C93A48DB58D3C91C6A13C233C93A48D76
:1015A000B58D3C91C2A13C2B3C93A48DB58D3C9153
:1015B000C6A13C233C93A48DB58D3C91C2A13C2B8C
:1015C0003C93A48DB58D3C91C6A13C233C93A48D46
:1015D000B58D3C91C2A13C2B3C93A48DB58D3C9123
:1015E000C6A13C233C93A48DB58D3C91C2A13C2B5C
:1015F0003C93A48DB58D3C91C6A13C233C93A48D16
:10160000B58D3C91C2A13C2B3C93A48DB58D3C91F2
:10161000C6A13C233C93A48DB58D3C91C2A13C2B2B
:101620003C93215009F09DCF019696CF4F734150C6
:10163000C8F0A48DB58D8C9196A189238C93A48D2F
:10164000B58D8C9192A1892B8C93A48DB58D8C91A5
:1016500096A189238C93A48DB58D8C9192A1892B11
:101660008C93E5CFA08DB18D8C9190A1892B8C931B
:10167000DF91CF911F910F91FF90EF90DF90089530
:101680003BB133703C2B3BB935B13C7F3D2B35B979
:10169000A48DB58D3C91D6A03D213C93A48DB58DF4
:1016A0003C91D2A03D293C933BB133703F293BB9DB
:1016B00035B13C7F3E2935B9A48DB58D3C91D6A07E
:1016C0003D213C93A48DB58D3C91D2A03D293C9306
:1016D0003BB133703C2B3BB935B13C7F3D2B35B929
:1016E000A48DB58D3C91D6A03D213C93A48DB58DA4
:1016F0003C91D2A03D293C933BB133703F293BB98B
:1017000035B13C7F3E2935B9A48DB58D3C91D6A02D
:101710003D213C93A48DB58D3C91D2A03D293C93B5
:101720003BB133703C2B3BB935B13C7F3D2B35B9D8
:10173000A48DB58D3C91D6A03D213C93A48DB58D53
:101740003C91D2A03D293C933BB133703F293BB93A
:1017500035B13C7F3E2935B9A48DB58D3C91D6A0DD
:101760003D213C93A48DB58D3C91D2A03D293C9365
:101770003BB133703C2B3BB935B13C7F3D2B35B988
:10178000A48DB58D3C91D6A03D213C93A48DB58D03
:101790003C91D2A03D293C933BB133703F293BB9EA
:1017A00035B13C7F3E2935B9A48DB58D3C91D6A08D
:1017B0003D213C93A48DB58D3C91D2A03D293C9315
:1017C000215009F05DCF01960817190711F020E1AB
:1017D00057CF4F73415008F445CF8BB183708C2B9A
:1017E0008BB985B18C7F8D2B85B9A48DB58D8C91EE
:1017F00096A189238C93A48DB58D8C9192A1892B70
:101800008C938BB183708F298BB985B18C7F8E2996
:1018100085B9A48DB58D8C9196A189238C93A48DC7
:10182000B58D8C9192A1892B8C93D4CFFC01A68D80
:10183000B78D8C9197A189238C9300C000C000C004
:10184000000089B193B1A68DB78D2C9133A1232BC4
:101850002C9393708C7F892B08958AB18C6F8AB9F1
:1018600084B1836084B90895CF93DF93EC010E9423
:101870002D0C1D8A1D861C861F861E8681E08C8B82
:101880008FEF9FEF998B888B80EF90E09987888707
:1018900080E491E09B878A87DF91CF9108959F92A2
:1018A000AF92BF92CF92DF92EF92FF920F931F936E
:1018B000CF93DF93EC01A62EF42EB22E902E40E4AF
:1018C00051E060EF70E00E943E0888E591E0998366
:1018D0008883E8A66A2D70E0FB01EB51F84FE49194
:1018E000F0E0EE0FFF1FE750F84FA591B491B98FCC
:1018F000A88F4F2D50E0FA01EB51F84FE491F0E042
:10190000EE0FFF1FE750F84F859194919B8F8A8FC0
:101910002B2D30E0F901EB51F84FE491F0E0EE0FA0
:10192000FF1FE750F84F859194919D8F8C8F092D63
:1019300010E0F801EB51F84FE491F0E0EE0FFF1FDB
:10194000E750F84FC590D490DF8ECE8EFB01EF525A
:10195000F84F649168A3FA01EF52F84F449149A3FC
:10196000F901EF52F84F24912AA3F801EF52F84FF2
:1019700004910BA398A1892F80958CA389A18095B0
:101980008DA38AA180958EA300950FA38C91892B9E
:101990008C93EA8DFB8D808199A1892B8083EC8DBE
:1019A000FD8D80819AA1892B8083EE8DFF8D8081B2
:1019B0009BA1892B808361E08A2D0E94B51D61E087
:1019C0008F2D0E94B51D61E08B2D0E94B51D61E039
:1019D000892D0E94B51DEE2041F061E08E2D0E9400
:1019E000EE1D61E08E2D0E94B51DCE01DF91CF91DD
:1019F0001F910F91FF90EF90DF90CF90BF90AF902D
:101A00009F900C94340C8AB183708AB984B18C7F16
:101A100084B90895CF92DF92EF92FF920F931F93B4
:101A2000CF93DF931F92CDB7DEB78C01DC015896C0
:101A3000ED91FC915997808194969C91949789237C
:101A400080835A96ED91FC915B97808195969C914D
:101A50009597892380839BB1862F8C7F9370892BE8
:101A60008BB995B1862F83709C7F892B85B95C9645
:101A7000ED91FC915D97808196969C919697892334
:101A800080835C96ED91FC915D97808192969C910C
:101A9000892B8083C80169830E94030DD8015A965F
:101AA000ED91FC915B97808191969C91892B80832D
:101AB00082E390E00E94471DC8010E94160CC82EC8
:101AC000D12CE12CF12CFE2CED2CDC2CCC24C801EB
:101AD0000E94160CC82AFE2CED2CDC2CCC24C8014C
:101AE0000E94160CC82AFE2CED2CDC2CCC24C8013C
:101AF0000E94160CC82A69816F3E41F4FE2CED2C21
:101B0000DC2CCC24C8010E94160CC82AD801589697
:101B1000ED91FC915997808190969C91892B8083BF
:101B2000C8010E942D0C66E970E080E090E00E9400
:101B30001F1DC701B6010F90DF91CF911F910F912B
:101B4000FF90EF90DF90CF900895FC01A28DB38DB0
:101B50008C9195A189238C939BB1862F8C7F937058
:101B6000892B8BB985B163708C7F682B65B9A48D87
:101B7000B58D8C9196A189238C93A48DB58D8C9174
:101B800092A1892B8C93A28DB38D8C9191A1892BDD
:101B90008C939BB1842F8C7F9370892B8BB985B1EB
:101BA00043708C7F482B45B9A48DB58D8C9196A13F
:101BB00089238C93A48DB58D8C9192A1892B8C93C4
:101BC0000895FC01A28DB38D8C9195A189238C93EE
:101BD0009BB1872F8C7F9370892B8BB985B17370E4
:101BE0008C7F782B75B9A48DB58D8C9196A18923A6
:101BF0008C93A48DB58D8C9192A1892B8C939BB1E4
:101C0000862F8C7F9370892B8BB985B163708C7F05
:101C1000682B65B9A48DB58D8C9196A189238C9381
:101C2000A48DB58D8C9192A1892B8C93A28DB38DAF
:101C30008C9191A1892B8C939BB1852F8C7F937074
:101C4000892B8BB985B153708C7F582B55B9A48DD6
:101C5000B58D8C9196A189238C93A48DB58D8C9193
:101C600092A1892B8C939BB1842F8C7F9370892BAD
:101C70008BB985B143708C7F482B45B9A48DB58D48
:101C80008C9196A189238C93A48DB58D8C9192A172
:101C9000892B8C930895FC01A28DB38D8C9195A115
:101CA00089238C939BB1862F8C7F9370892B8BB962
:101CB00085B163708C7F682B65B9A48DB58D8C91CF
:101CC00096A189238C93A48DB58D8C9192A1892B9B
:101CD0008C93A28DB38D8C9191A1892B8C939BB108
:101CE000832F8C7F9370892B8BB985B133708C7F58
:101CF000382B35B9A48DB58D8C9196A189238C9301
:101D0000A48DB58D8C9192A1892B8C93A28DB38DCE
:101D10008C9195A189238C939BB1842F8C7F937098
:101D2000892B8BB985B143708C7F482B45B9A48D25
:101D3000B58D8C9196A189238C93A48DB58D8C91B2
:101D400092A1892B8C93A28DB38D8C9191A1892B1B
:101D50008C939BB1822F8C7F9370892B8BB985B12B
:101D600023708C7F282B25B9A48DB58D8C9196A1DD
:101D700089238C93A48DB58D8C9192A1892B8C9302
:101D80000895CF93DF93EC01E88DF98D80819CA1BC
:101D900089238083288539852150310945E064E015
:101DA000CE010E944B0E2A853B852150310949E026
:101DB00068E0CE010E944B0EE88DF98D808198A1DC
:101DC000892B8083DF91CF9108950F931F93CF9339
:101DD000DF9300D000D0CDB7DEB78C01DC01589680
:101DE000ED91FC915997808194969C9194978923C9
:101DF00080835A96ED91FC915B97808195969C919A
:101E00009597892380839BB1862F8C7F9370892B34
:101E10008BB985B163708C7F682B65B95C96ED9149
:101E2000FC915D97808196969C91969789238083FB
:101E30005C96ED91FC915D97808192969C91929732
:101E4000892B80835A96ED91FC915B9780819196C6
:101E50009C91892B80838AE090E029833A834B838D
:101E60005C830E94471D7BB129813A814B815C8153
:101E7000CA01AA27BB27682F6C7F7370672B6BB9C9
:101E800065B183706C7F862B85B9D8015C96ED9126
:101E9000FC915D97808196969C919697892380838B
:101EA0005C96ED91FC915D97808192969C91892B37
:101EB00080838AE090E029833A834B835C830E948D
:101EC000471DFBB129813A814B815C81BB27A52F3E
:101ED000942F832FE82FEC7FF370EF2BEBB9E5B154
:101EE000682F6370EC7F6E2B65B9D8015C96ED911D
:101EF000FC915D97808196969C919697892380832B
:101F00005C96ED91FC915D97808192969C91892BD6
:101F100080838AE090E029833A834B835C830E942C
:101F2000471D9BB12981822F8C7F9370892B8BB9A0
:101F300085B123708C7F282B25B9D8015C96ED9153
:101F4000FC915D97808196969C91969789238083DA
:101F50005C96ED91FC915D97808192969C91929711
:101F6000892B80835896ED91FC91599780819096AA
:101F70009C91892B80830F900F900F900F90DF9191
:101F8000CF911F910F9108950F931F93CF93DF93DC
:101F9000EC0164E00E940A0D61157048810591050D
:101FA00049F063EDCE010E940A0D6134734909F4D2
:101FB0006BC01AC027E533E84FEF50E069EBCE0164
:101FC0000E94E50E6CE271E080E090E00E941F1D2F
:101FD00060EDCE010E940A0D6115710589499105D8
:101FE00001F787E593E855C06FEECE010E940A0D18
:101FF0006732734909F44BC0E88DF98D80819CA14B
:1020000089238083EA8DFB8D80819DA18923808334
:102010008BB183708BB985B18C7F85B9EC8DFD8DCB
:1020200080819EA189238083EC8DFD8D80819AA182
:10203000892B8083EC8DFD8D80819EA189238083F7
:10204000EC8DFD8D80819AA1892B8083CE010E9429
:10205000030DEA8DFB8D808199A1892B8083CE01B0
:102060000E94160C182FCE010E94160C082FCE01CC
:102070000E942D0CE88DF98D908188A1982B90837A
:10208000802F90E0912B05C081E493E902C087E2A4
:1020900093E9DF91CF911F910F9108950F931F93B3
:1020A000CF93DF9300D000D0CDB7DEB78C01DC0139
:1020B0005896ED91FC915997808194969C919497B4
:1020C000892380835A96ED91FC915B978081959648
:1020D0009C919597892380839BB1862F8C7F9370E9
:1020E000892B8BB985B163708C7F682B65B95C9641
:1020F000ED91FC915D97808196969C9196978923AE
:1021000080835C96ED91FC915D97808192969C9185
:102110009297892B80835A96ED91FC915B978081F1
:1021200091969C91892B80838AE090E029833A8361
:102130004B835C830E94471D7BB129813A814B818F
:102140005C81852F9927AA27BB27682F6C7F737026
:10215000672B6BB965B183706C7F862B85B9D8010D
:102160005C96ED91FC915D97808196969C919697F7
:10217000892380835C96ED91FC915D978081929696
:102180009C91892B80838AE090E029833A834B835A
:102190005C830E94471D7BB129813A814B815C8120
:1021A000CA01AA27BB27682F6C7F7370672B6BB996
:1021B00065B183706C7F862B85B9D8015C96ED91F3
:1021C000FC915D97808196969C9196978923808358
:1021D0005C96ED91FC915D97808192969C91892B04
:1021E00080838AE090E029833A834B835C830E945A
:1021F000471DFBB129813A814B815C81BB27A52F0B
:10220000942F832FE82FEC7FF370EF2BEBB9E5B120
:10221000682F6370EC7F6E2B65B9D8015C96ED91E9
:10222000FC915D97808196969C91969789238083F7
:102230005C96ED91FC915D97808192969C91892BA3
:1022400080838AE090E029833A834B835C830E94F9
:10225000471D9BB12981822F8C7F9370892B8BB96D
:1022600085B123708C7F282B25B9D8015C96ED9120
:10227000FC915D97808196969C91969789238083A7
:102280005C96ED91FC915D97808192969C919297DE
:10229000892B80835896ED91FC9159978081909677
:1022A0009C91892B80830F900F900F900F90DF915E
:1022B000CF911F910F9108958F929F92AF92BF92ED
:1022C000CF92DF92EF92FF920F931F93CF93DF9302
:1022D000EC017A016901E88DF98D80819CA1892347
:1022E0008083EF898E2F8B7F09F089C08D898230A2
:1022F00089F0833021F1813081F58FEE90E09C01EF
:10230000201B310B5B014C01841A950A8601640184
:102310007B0113C08FEE90E09C012C193D096C01EC
:10232000C61AD70A8FE391E0AC01401B510B8C0118
:102330000E191F09580146017A01B90110C08FE337
:1023400091E09C012C193D095C01A61AB70A4A01CB
:1023500068018501B701790102C05A014B01AB0147
:10236000E43049F567E370E0CE010E94E10DA6017B
:1023700066E370E0CE010E94E10DA70169E370E021
:10238000CE010E94E10DA80168E370E0CE010E9439
:10239000E10DA40160E270E0CE010E94E10DA50113
:1023A00061E270E0CE010E94E10D40E062E2CE0108
:1023B0000E94A50D6FC060E570E0CE010E94E10DA6
:1023C000A60161E570E0CE010E94E10DA70162E582
:1023D00070E0CE010E94E10DA80163E570E0CE013E
:1023E0000E94E10DA40160E270E0CE010E94E10DC7
:1023F000A50161E270E0CE010E94E10D4BC0E13029
:10240000C9F49B0143E062E0CE010E944B0E9701AC
:1024100047E066E0CE010E944B0E960145E064E085
:10242000CE010E944B0E980149E068E0CE010E9467
:102430004B0E30C08EEF8E0F823010F0E53051F52C
:10244000CB01AA2797FDA095BA2FAC0133272227ED
:10245000C601AA2797FDA095BA2F282B392B4A2B06
:102460005B2B6AE2CE010E944E10C701AA2797FD9E
:10247000A095BA2FAC0133272227C801AA2797FDC0
:10248000A095BA2F282B392B4A2B5B2B6BE2CE0160
:102490000E944E10E88DF98D808198A1892B808350
:1024A000DF91CF911F910F91FF90EF90DF90CF9030
:1024B000BF90AF909F908F900895CF92DF92EF9250
:1024C000FF920F931F93CF93DF93EC016901780183
:1024D000121613060CF04FC057FD4DC08A859B8520
:1024E000481759070CF047C0888599856817790700
:1024F0000CF041C0FB01E20FF31F9F012150310995
:1025000037FD39C077FF03C06F0160E070E0281726
:10251000390734F09C01215031096C01C61AD70AE1
:102520008A01CE010E945C119601442737FD409537
:10253000542FB701CE010E94100A8F89811110C05B
:102540000A851B85015011092885398521503109DB
:1025500040E050E060E070E0CE010E945C110BC0F2
:10256000CE01DF91CF911F910F91FF90EF90DF90FF
:10257000CF900C94C10EDF91CF911F910F91FF90DE
:10258000EF90DF90CF900895CF92DF92EF92FF927D
:102590000F931F93CF93DF93EC016901780112161B
:1025A00013060CF04FC077FD4DC0888599856817DC
:1025B00079070CF047C08A859B85481759070CF0AE
:1025C00041C09A012C0D3D1D89010150110917FDD3
:1025D00039C057FF03C0690140E050E008171907F0
:1025E00034F08C01015011096C01C41AD50A9B0109
:1025F000CE010E945C119601442737FD4095542F6F
:10260000B701CE010E94100A8F89811110C00A857E
:102610001B8501501109288539852150310940E079
:1026200050E060E070E0CE010E945C110BC0CE0172
:10263000DF91CF911F910F91FF90EF90DF90CF909E
:102640000C94C10EDF91CF911F910F91FF90EF90ED
:10265000DF90CF9008958F929F92AF92BF92CF92CA
:10266000DF92EF92FF920F931F93CF93DF93EC01D2
:10267000590168014701121613060CF06BC01016C1
:1026800011060CF067C088859985681779070CF0EA
:1026900061C0EA84FB844E155F050CF05BC0FB0152
:1026A000E20FF31F9F012150310937FD53C0DA01BA
:1026B000A00FB11F8D010150110917FD4BC077FF0D
:1026C00003C05F0160E070E057FF03C06D0140E0B0
:1026D00050E02817390734F09C01215031095C0182
:1026E000A61AB70A0E151F0534F08701015011090B
:1026F0006701C41AD50ACE010E945C119601D5016A
:102700000E94A7239B01AC01B401CE010E94100AD4
:102710008F89811110C00A851B85015011092885F8
:1027200039852150310940E050E060E070E0CE0191
:102730000E945C110FC0CE01DF91CF911F910F91CC
:10274000FF90EF90DF90CF90BF90AF909F908F90D1
:102750000C94C10EDF91CF911F910F91FF90EF90DC
:10276000DF90CF90BF90AF909F908F900895EF92A1
:10277000FF920F931F93CF93DF93EC017B018F891F
:10278000811127C0ED89E150E33068F4F0E0DF010A
:10279000AF5ABE4F4C9150E0EE0FFF1FE55BFE4F6E
:1027A0000081118104C000E010E040E050E0E88DBD
:1027B000F98D80819CA18923808360E270E0CE0145
:1027C0000E94E10DA80161E270E0CE010E94E10DDE
:1027D00012C08150853078F40A851B85015011099B
:1027E000288539852150310940E050E060E070E0F3
:1027F000CE010E945C1120E03CE241E050E0B701D4
:10280000CE01DF91CF911F910F91FF90EF900C942B
:10281000100AAF92BF92CF92DF92EF92FF920F9386
:102820001F93CF93DF93EC015B017A01690177FD80
:10283000E7C057FDE5C088859985681779070CF0D2
:10284000DFC08A859B85481759070CF0D9C0E88DF1
:10285000F98D80819CA1892380838F89982F9B7F0C
:10286000B1F58D89823059F08330B1F08130D1F4E7
:102870008FEE90E0841B950B7B015C0113C08FEE03
:1028800090E09C01261B370B59018FE391E09C01DE
:10289000241B350B790106C08FE391E0861B970B53
:1028A0005A017C01A50160E270E0CE010E94E10DB9
:1028B000A70161E270E0CE010E94E10DA601409502
:1028C000509562E270E0CE010E94E10D93C081302C
:1028D00041F5ED89E150E33028F4F0E0E85BFE4F8C
:1028E000408101C040E066E1CE010E94A50D950146
:1028F00043E062E0CE010E944B0E970147E066E0A4
:10290000CE010E944B0EEA8DFB8D80819DA1892313
:1029100080838BB1837080628BB985B18C7F82603C
:1029200026C09EEF980F923018F0853009F062C0F3
:102930000A851B85015011092885398521503109E7
:10294000A701B501CE010E945C11E88DF98D80814F
:102950009CA189238083EA8DFB8D80819DA18923A1
:1029600080838BB183708C628BB985B18C7F85B984
:10297000EC8DFD8D80819EA189238083EC8DFD8D62
:1029800080819AA1892B8083EA8DFB8D808199A11A
:10299000892B80839BB18D2D8C7F9370892B8BB974
:1029A00095B18D2D83709C7F892B85B9EC8DFD8D24
:1029B00080819EA189238083EC8DFD8D80819AA1E9
:1029C000892B80839BB18C2D8C7F9370892B8BB945
:1029D00095B18C2D83709C7F892B85B9EC8DFD8DF5
:1029E00080819EA189238083EC8DFD8D80819AA1B9
:1029F000892B8083E88DF98D808198A1892B808334
:102A0000DF91CF911F910F91FF90EF90DF90CF90CA
:102A1000BF90AF900895DF92EF92FF920F931F93B4
:102A2000CF93DF93EC010E94A009E88DF98D80819E
:102A30009CA1892380838F898B7F11F5ED89E150DB
:102A4000E33040F4F0E0EE0FFF1FEE5BFE4F4081FD
:102A5000518102C040E350E163E070E0CE010E948A
:102A6000E10D0A851B850150110928853985215002
:102A7000310940E050E060E070E0CE010E945C115E
:102A80008F89813089F4ED89E150E33028F4F0E05A
:102A9000E15CFE4F408101C040E066E1CE010E9452
:102AA000A50DCE010E94C10E8F89823039F58D8926
:102AB000813059F038F0823059F0833059F438E2DF
:102AC000D32E08C028E8D22E05C098EED92E02C019
:102AD00088E4D82E4D2D66E3CE010E94A50D0A850F
:102AE0001B8501501109288539852150310940E0A5
:102AF00050E060E070E0CE010E945C118F8983306D
:102B000031F58D89813059F038F0823059F08330B9
:102B100051F400E6E02E07C010ECE12E04C0B0EA4C
:102B2000EB2E01C0E12C4E2D66E3CE010E94A50DD7
:102B30000A851B85015011092885398521503109E5
:102B400040E050E060E070E0CE010E945C118F89AF
:102B5000853039F58D89813059F038F0823059F05F
:102B6000833059F4A8EEFA2E08C0FAE0FF2E05C013
:102B7000E8E2FE2E02C078E8F72E4F2D66E3CE0184
:102B80000E94A50D0A851B850150110928853985EC
:102B90002150310940E050E060E070E0CE010E9439
:102BA0005C11DF91CF911F910F91FF90EF90DF901B
:102BB00008950F931F93CF93DF93EC018B010E9435
:102BC000B50968EC70E080E090E00E941F1D0532BE
:102BD00083E9180721F00832E3E91E0741F51F8A4F
:102BE000E88DF98D80819CA1892380830FE116E017
:102BF000F80185919491F8013296459154918F3F57
:102C0000910531F4BA0180E090E00E941F1D04C0DC
:102C1000BC01CE010E94E10D0C5F1F4FF6E0073EA4
:102C20001F0731F76D89CE010E940B15FBC10134DE
:102C300083E9180709F078C082E08F8BE88DF98D61
:102C400080819CA18923808380E0E82FF0E0ED540F
:102C5000FA4F949112E0180F61E0680FE62FF0E050
:102C6000ED54FA4F64919F3F31F470E080E090E0C2
:102C70000E941F1D54C0A88DB98D2C913CA1232307
:102C80002C93AA8DBB8D2C913DA123232C933BB17A
:102C9000292F2C7F3370232B2BB925B193702C7FD8
:102CA000922B95B9EC8DFD8D90812EA1922390836E
:102CB000EC8DFD8D90812AA1922B9083EA8DFB8D66
:102CC000908129A1922B9083860F8E5FE12FE817C8
:102CD000F9F031E03E0FF0E0ED54FA4FE4912BB102
:102CE0009E2F9C7F2370922B9BB995B1E3709C7FA4
:102CF000E92BE5B9EC8DFD8D90812EA19223908377
:102D0000EC8DFD8D90812AA1922B9083E32FDFCF54
:102D1000160FE88DF98D808198A1892B80831C3650
:102D200008F009C2812F91CF0735E3E81E0709F0AB
:102D300078C083E08F8BE88DF98D80819CA18923F9
:102D4000808380E0E82FF0E0E951F94F949112E0A0
:102D5000180F61E0680FE62FF0E0E951F94F649138
:102D60009F3F31F470E080E090E00E941F1D54C04E
:102D7000A88DB98D2C913CA123232C93AA8DBB8DBA
:102D80002C913DA123232C933BB1292F2C7F337011
:102D9000232B2BB925B193702C7F922B95B9EC8DF9
:102DA000FD8D90812EA192239083EC8DFD8D9081DD
:102DB0002AA1922B9083EA8DFB8D908129A1922BE1
:102DC0009083860F8E5FE12FE817F9F031E03E0F18
:102DD000F0E0E951F94FE4912BB19E2F9C7F2370D5
:102DE000922B9BB995B1E3709C7FE92BE5B9EC8DF3
:102DF000FD8D90812EA192239083EC8DFD8D90818D
:102E00002AA1922B9083E32FDFCF160FE88DF98D47
:102E1000808198A1892B8083163408F08CC1812F82
:102E200091CF0537F5E71F0761F581E08F8BE88DBE
:102E3000F98D80819CA1892380830DE217E0F80140
:102E40008491319644918F3F39F4642F70E080E093
:102E500090E00E941F1D04C0682FCE010E94A50DA6
:102E60000E5F1F4FF7E003381F0749F76D89CE014A
:102E70000E940B15CE01DF91CF911F910F910C9401
:102E8000C10E043581E0180709F0D8C084E08F8BAB
:102E9000E88DF98D80819CA1892380834AE150E0EF
:102EA00061E170E0CE010E94E10D41E251E362E197
:102EB00070E0CE010E94E10D4CE650E063E170E06D
:102EC000CE010E94E10D49E452E464E170E0CE01DC
:102ED0000E94E10D40E058E060E170E0CE010E9408
:102EE000E10D6AE070E080E090E00E941F1D4AE181
:102EF00051E061E170E0CE010E94E10D6AE070E016
:102F000080E090E00E941F1D4AE153E061E170E023
:102F1000CE010E94E10D6AE070E080E090E00E9446
:102F20001F1D4AE157E061E170E0CE010E94E10D12
:102F30006AE070E080E090E00E941F1D4AE15FE0DF
:102F400061E170E0CE010E94E10D64E170E080E09B
:102F500090E00E941F1D4AE35FE061E170E0CE0156
:102F60000E94E10D6EE170E080E090E00E941F1D84
:102F700048E251E061E070E0CE010E94E10D40E0E6
:102F800051E062E070E0CE010E94E10D40E350E1CB
:102F900063E070E0CE010E94E10D42E150E167E0A4
:102FA00070E0CE010E94E10D43E053E068E070E084
:102FB000CE010E94E10D40E051E16BE070E0CE01F6
:102FC0000E94E10D40E050E06CE070E0CE010E9414
:102FD000E10D41E058E16FE070E0CE010E94E10DAB
:102FE00040E250E065E170E0CE010E94E10D42E177
:102FF00050E067E070E0CE010E94E10D68E270E011
:1030000080E090E00E941F1D43E150E067E070E027
:10301000CE010E94E10D47E150E067E070E0CE0193
:103020000E94E10D0FE311E02FEE30E040E050E0B0
:1030300060E070E0CE010E945C117DC00732134950
:1030400009F077C085E08F8BE88DF98D80819CA198
:103050008923808380E0E82FF0E0ED59FA4F9491C6
:1030600012E0180F61E0680FE62FF0E0ED59FA4F1B
:1030700064919F3F31F470E080E090E00E941F1D5A
:1030800054C0A88DB98D2C913CA123232C93AA8DDB
:10309000BB8D2C913DA123232C933BB1292F2C7F59
:1030A0003370232B2BB925B193702C7F922B95B9BC
:1030B000EC8DFD8D90812EA192239083EC8DFD8D62
:1030C00090812AA1922B9083EA8DFB8D908129A17A
:1030D000922B9083860F8E5FE12FE817F9F031E095
:1030E0003E0FF0E0ED59FA4FE4912BB19E2F9C7FFB
:1030F0002370922B9BB995B1E3709C7FE92BE5B9C6
:10310000EC8DFD8D90812EA192239083EC8DFD8D11
:1031100090812AA1922B9083E32FDFCF160FE88DA9
:10312000F98D808198A1892B8083103520F4812F1F
:1031300092CF8FEF8F8BDF91CF911F910F910895D9
:10314000EF92FF920F93FC014283248303836583F4
:10315000F782E6828AE090E0918380830F91FF906E
:10316000EF9008950F931F93CF93DF93EC016623A5
:1031700059F00E94F01C69837A838B839C83DF91D2
:10318000CF911F910F9108950E94F01C09811A811F
:103190002B813C81601B710B820B930B6233710599
:1031A0008105910530F763E070E080E090E00E94D7
:1031B0001F1DEACF60E00C94B218FC0113AA14AAF8
:1031C00015AA16AA11821282138214824115510582
:1031D0006105710521F0CB01BA010C941F1D089502
:1031E000FB01BA01A901DC01D296FC93EE93D197C1
:1031F00026E0CF010C94091F1F93CF93DF93EC01BE
:10320000162F6CE671E089A99AA90E9487204AE0EE
:1032100050E0612F89A99AA90E942E2163E771E0ED
:1032200089A99AA90E94872062E370E080E090E07B
:10323000DF91CF911F910C941F1D1F93CF93DF93AC
:10324000EC01162F8D81882389F189A99AA9DC01C7
:10325000ED91FC910480F581E02D0995892BA9F36E
:1032600007C02637310519F12835310509F41D82CB
:1032700089A99AA9DC01ED91FC910480F581E02DEA
:1032800009951816190694F489A99AA9DC01ED91FB
:10329000FC910680F781E02D09959C0133272336A8
:1032A0003105F9F6612FCE010E94FC1883E6DF910B
:1032B000CF911F9108950F931F93CF93DF931F9288
:1032C000CDB7DEB78C01662349F081E0F801858334
:1032D00060E0C80149830E941D194981F8014583B6
:1032E0000F90DF91CF911F910F91089580E0089585
:1032F0000895FC01A281B3816A177B07BCF0248189
:1033000035814217530794F0818592858A0F9B1F60
:10331000861797075CF083859485820F931F841727
:10332000950724F081E0828B8683089580E00895DC
:10333000FC01128A81E08683818B089584E090E00D
:103340000E942020FC011382128220913B063091C2
:103350003C063183208390933C0680933B069093F8
:103360003A068093390621E0209308010895FC0174
:1033700081898111118A0895AF92BF92CF92DF9215
:10338000EF92FF920F931F93CF93DF937C016B011A
:103390005A018901E90109900020E9F72197C21B30
:1033A000D30B83E190E00E942020FC01D382C282F3
:1033B000B582A48281E0868388EC91E0918380834A
:1033C00085E08C9F90018D9F300D11242F5F3F4F22
:1033D00046E0429FC001439F900D11249287818750
:1033E00082E390E09487838785E090E096878587E5
:1033F000108B0787128A118AD70112968D919C91A2
:103400001397908787831396FC93EE931297CF01BF
:10341000DF91CF911F910F91FF90EF90DF90CF90B0
:10342000BF90AF900895CF92DF92EF92FF920F93EB
:103430001F93CF93DF93EC018B016A01790183E144
:1034400090E00E942020FC0113830283D582C48275
:1034500081E0868382ED91E091838083F286E1862C
:1034600088E390E09487838785E090E0968785875E
:10347000108A1786128A118A8A819B819087878396
:10348000FB83EA83CF01DF91CF911F910F91FF90D2
:10349000EF90DF90CF90089590933A06809339068D
:1034A00081E0809308010895EF92FF920F931F939C
:1034B000CF93DF938C01EB01FC01E188F288C70117
:1034C0000E94EB25892BF1F0C7010E942220FE010A
:1034D00001900020E9F7CF018C1B9D0B0E94EC238B
:1034E000F801928B818BBE010E94F425BE01F80188
:1034F000878590890E94EB2521E0892B09F420E043
:10350000F8012683DF91CF911F910F91FF90EF90EB
:103510000895FB01608171810C94541AEF92FF921F
:103520000F9382E1E82E0EE02FE040E161E186E4B6
:1035300096E00E944F0C9CE2E92EFF24F39407E0F2
:1035400020E14FE066E08EE396E00E94A0180F9124
:10355000FF90EF900895CF93DF9381E080933D0635
:1035600086E496E00E94B50986E496E00E94C40FC6
:10357000EC01C53283E9D807A9F0CE0187529349FF
:10358000029780F0C53785E7D80761F0C13483E939
:10359000D80741F0C73583E8D80721F0C43581E06A
:1035A000D80769F4BE0186E496E00E94D91560E070
:1035B00070E086E496E0DF91CF910C94B71363EA54
:1035C00077E088E796E00E94622040E150E0BE018B
:1035D00088E796E0DF91CF910C9435211F93CF932C
:1035E000DF93EC01162F662331F060E070E086E493
:1035F00096E00E94B7130A80DB81C02D209789F0E6
:10360000111103C08E81882341F0E881F981019076
:10361000F081E02D612FCE0109950F80D885C02D56
:10362000EDCFDF91CF911F91089580913D068111DB
:1036300006C063E877E088E796E00C94A4208091C8
:10364000390690913A06009731F060910801109286
:1036500008010C94EE1A08952F923F924F925F92B8
:103660006F927F928F929F92AF92BF92CF92DF9292
:10367000EF92FF920F931F93CF93DF93CDB7DEB7F7
:1036800028970FB6F894DEBF0FBECDBF5C017887D8
:103690006F832A0149013801FA82E98216017B0110
:1036A000E20EF31EC12CD12CCA01821993099E830C
:1036B0008D83F901E219F309FC83EB83E1E0EE1A53
:1036C000F108C214D304CCF54F8158854C0D5D1D13
:1036D00083012D813E81B50186E496E00E945D1252
:1036E00009811A819201A701B50186E496E00E9442
:1036F0005D12B6016A0D7B1D83012B813C814F81D8
:10370000588586E496E00E94C412B70168197909C9
:103710006A0D7B1D640D751D8F819885681B790B63
:1037200009811A812B813C81AC0186E496E00E94DC
:10373000C4129FEFC91AD90AC1CF28960FB6F894C0
:10374000DEBF0FBECDBFDF91CF911F910F91FF90D4
:10375000EF90DF90CF90BF90AF909F908F907F9031
:103760006F905F904F903F902F900895CF92DF928F
:10377000EF92FF920F931F93CF93DF93EC011E8282
:10378000662369F10B851C8529853A854C815D810D
:103790006A817B81B4E3EB2EB5EAFB2E86E496E0EA
:1037A0000E942B136D8586E496E00E948E096FE1DE
:1037B00070E086E496E00E9494094C815D81485F48
:1037C0005F4F6A817B816A5F7F4F86E496E00E944B
:1037D00088096F85788986E496E00E948720EA89C7
:1037E0002B853C8549855A856C817D818A819B81A9
:1037F000A3E0CA2ED12CEE2339F0FBEDEF2EFEED27
:10380000FF2E09E41AE406C0E9E4EE2EEAE4FE2EF7
:103810000BED1EED0E942C1BDF91CF911F910F919C
:10382000FF90EF90DF90CF9008958F929F92AF928C
:10383000BF92CF92DF92EF92FF920F931F93CF939D
:10384000DF93EC01F62E1E828F84988809891A89ED
:10385000F80101900020E9F7CF0101975C01A01A5F
:10386000B10AC50101960E94EC23988B8F87B8019D
:103870000E94F425FF2019F10B851C8529853A85C6
:103880004C815D816A817B81F4E3EF2EF5EAFF2EA6
:1038900086E496E00E942B132B853C8549855A854A
:1038A0006C817D81A3E0CA2ED12CB9E4EB2EBAE461
:1038B000FB2E09E41AE48A819B810E942C1B6D85F2
:1038C00086E496E00E948E0944E355EA60E078EFD2
:1038D00086E496E00E949A094C815D81485F5F4FC3
:1038E0006A817B816A5F7F4F86E496E00E94880947
:1038F0006F85788986E496E00E948720F401019024
:103900000020E9F73197E819F909AE16BF067CF4F3
:1039100044E355EA64E375EA86E496E00E949A0976
:10392000B4016A0D7B1D86E496E00E948720C401E5
:10393000DF91CF911F910F91FF90EF90DF90CF908B
:10394000BF90AF909F908F900C9422201F920F9267
:103950000FB60F9211242F933F938F939F93AF93A2
:10396000BF938091700690917106A0917206B091FC
:10397000730630916F0623E0230F2D3720F4019654
:10398000A11DB11D05C026E8230F0296A11DB11D82
:1039900020936F068093700690937106A093720631
:1039A000B09373068091740690917506A091760687
:1039B000B09177060196A11DB11D80937406909376
:1039C0007506A0937606B0937706BF91AF919F914D
:1039D0008F913F912F910F900FBE0F901F901895D0
:1039E0002FB7F894609170067091710680917206FD
:1039F000909173062FBF08953FB7F8948091740695
:103A000090917506A0917606B091770626B5A89B91
:103A100005C02F3F19F00196A11DB11D3FBF6627BC
:103A2000782F892F9A2F620F711D811D911D42E001
:103A3000660F771F881F991F4A95D1F70895CF9277
:103A4000DF92EF92FF92CF93DF936B017C010E9494
:103A5000FC1CEB01C114D104E104F10489F00E94C3
:103A600093220E94FC1C6C1B7D0B683E734090F3FC
:103A700081E0C81AD108E108F108C851DC4FEACF4B
:103A8000DF91CF91FF90EF90DF90CF900895019755
:103A900039F0880F991F880F991F02970197F1F746
:103AA0000895789484B5826084BD84B5816084BDB6
:103AB00085B5826085BD85B5816085BDEEE6F0E0A7
:103AC000808181608083E1E8F0E010828081826003
:103AD0008083808181608083E0E8F0E08081816084
:103AE0008083E1EBF0E0808184608083E0EBF0E0B4
:103AF000808181608083EAE7F0E080818460808358
:103B00008081826080838081816080838081806801
:103B100080831092C1000895833081F028F48130B1
:103B200099F08230A1F008958730A9F08830B9F07B
:103B30008430D1F4809180008F7D03C0809180001B
:103B40008F7780938000089584B58F7702C084B505
:103B50008F7D84BD08958091B0008F7703C08091E0
:103B6000B0008F7D8093B0000895CF93DF9390E0F5
:103B7000FC01EF52F84F2491FC01EB51F84F849176
:103B8000882349F190E0880F991FFC01ED5FF74F02
:103B9000A591B4918750984FFC01C591D4919FB7DE
:103BA000611108C0F8948C91209582238C938881B0
:103BB00082230AC0623051F4F8948C91322F3095F0
:103BC00083238C938881822B888304C0F8948C9102
:103BD000822B8C939FBFDF91CF9108950F931F93FA
:103BE000CF93DF931F92CDB7DEB7282F30E0F901D6
:103BF000E354F84F8491F901EF52F84F1491F90111
:103C0000EB51F84F04910023C9F0882321F0698318
:103C10000E948C1D6981E02FF0E0EE0FFF1FE7503E
:103C2000F84FA591B4919FB7F8948C91611103C09E
:103C30001095812301C0812B8C939FBF0F90DF9142
:103C4000CF911F910F9108950E94DD25FC01818D78
:103C5000228D90E0805C9F4F821B91098F73992782
:103C60000895FC01918D828D981731F0828DE80FB7
:103C7000F11D858D90E008958FEF9FEF0895FC0171
:103C8000918D828D981761F0828DDF01A80FB11D93
:103C90005D968C91928D9F5F9F73928F90E00895B7
:103CA0008FEF9FEF089583EC9FE1892B49F080E02F
:103CB00090E0892B29F00E94C31F81110C94000011
:103CC0000895FC01848DDF01A80FB11DA35ABF4FD9
:103CD0002C91848D90E001968F739927848FA6890B
:103CE000B7892C93A089B1898C9180648C93938D32
:103CF000848D981306C00288F389E02D80818F7D22
:103D000080830895CF93DF93EC01888D8823C9F0D9
:103D1000EA89FB89808185FD05C0A889B9898C91D4
:103D200086FD0FC00FB607FCF5CF808185FFF2CF6F
:103D3000A889B9898C9185FFEDCFCE010E94611EC3
:103D4000E7CFDF91CF910895CF92DF92FF920F934B
:103D50001F93CF93DF931F92CDB7DEB76C01DC01C9
:103D60005B969C915B975C968C915C97981307C0CF
:103D70005096ED91FC915197808185FD32C0F601FE
:103D8000038D10E00F5F1F4F0F731127F02EF60108
:103D9000848DF81211C00FB607FCF9CFD6015096EA
:103DA000ED91FC915197808185FFF1CFC601698328
:103DB0000E94611E6981EBCF838DE80FF11DE35AEC
:103DC000FF4F6083D6015B960C935B975296ED9103
:103DD000FC91539780818062808381E058968C9318
:103DE0000DC0D6015696ED91FC9157976083509681
:103DF000ED91FC91519780818064808381E090E017
:103E00000F90DF91CF911F910F91FF90DF90CF9096
:103E10000895BF92CF92DF92EF92FF92CF93DF93FC
:103E2000EC016A017B01B22EE889F98982E0808386
:103E3000411581EE580761057105A1F060E079E058
:103E40008DE390E0A70196010E948523215031095E
:103E5000410951095695479537952795211580E1D8
:103E6000380798F0E889F989108260E874E88EE1F3
:103E700090E0A70196010E94852321503109410954
:103E800051095695479537952795EC85FD853083E3
:103E9000EE85FF852083188EEC89FD89B082EA8942
:103EA000FB89808180618083EA89FB8980818860C9
:103EB0008083EA89FB89808180688083EA89FB8925
:103EC00080818F7D8083DF91CF91FF90EF90DF9095
:103ED000CF90BF9008951F920F920FB60F921124AA
:103EE0002F938F939F93EF93FF93E0918806F09128
:103EF00089068081E0918E06F0918F0682FD12C0C6
:103F00009081809191068F5F8F7320919206821726
:103F100051F0E0919106F0E0E858F94F958F8093C9
:103F2000910601C08081FF91EF919F918F912F9118
:103F30000F900FBE0F901F9018951F920F920FB603
:103F40000F9211242F933F934F935F936F937F931F
:103F50008F939F93AF93BF93EF93FF9388E796E080
:103F60000E94611EFF91EF91BF91AF919F918F9140
:103F70007F916F915F914F913F912F910F900FBE65
:103F80000F901F90189588E796E00E94261E21E06A
:103F9000892B09F420E0822F089510927B0610925D
:103FA0007A0688EE93E0A0E0B0E080937C069093E0
:103FB0007D06A0937E06B0937F068CED91E09093F2
:103FC00079068093780685EC90E09093850680933F
:103FD000840684EC90E0909387068093860680ECBC
:103FE00090E0909389068093880681EC90E090930E
:103FF0008B0680938A0682EC90E090938D068093E6
:104000008C0686EC90E090938F0680938E0610923B
:1040100091061092920610929306109294060895BB
:1040200008950E94511D0E9410200E947205C3E550
:10403000DEE10E94BB052097E1F30E94531EF9CFF9
:104040000C94EC230C948424CF92DF92EF92FF9295
:104050000F931F93CF93DF936C017A01EB01E60E70
:10406000F71E00E010E0CE15DF0561F06991D60182
:10407000ED91FC910190F081E02DC6010995080FAA
:10408000191FF1CFC801DF91CF911F910F91FF90C0
:10409000EF90DF90CF9008956115710581F0DB01FD
:1040A0000D900020E9F7AD0141505109461B570B17
:1040B000DC01ED91FC910280F381E02D099480E018
:1040C00090E00895EF92FF920F931F93CF93DF93A9
:1040D0008C01FB01C0E0D0E064917F018FEFE81A12
:1040E000F80A662361F0D801ED91FC910190F0810E
:1040F000E02DC8010995C80FD91FF701EDCFCE01FA
:10410000DF91CF911F910F91FF90EF9008950C9444
:104110004C20DC01ED91FC910190F081E02D09949F
:104120000F931F93CF93DF93EC016DE00E948920E2
:104130008C016AE0CE010E948920800F911FDF91DF
:10414000CF911F910F9108950F931F93CF93DF93FA
:10415000EC010E9462208C01CE010E949020800F11
:10416000911FDF91CF911F910F9108950F931F938E
:10417000CF93DF93EC010E944C208C01CE010E9472
:104180009020800F911FDF91CF911F910F91089583
:104190008F929F92AF92BF92CF92DF92EF92FF9257
:1041A0000F931F93CF93DF93CDB7DEB7A1970FB6D1
:1041B000F894DEBF0FBECDBF7C01C42EE52FCB012E
:1041C000D22E19A221E02D1510F02AE0D22E8E0158
:1041D0000F5D1F4F8D2C912CA12CB12C6C2D7E2F9F
:1041E000A50194010E9485238C2DD29E8019112453
:1041F000015011098A3014F4805D01C0895CF80116
:104200008083211531054105510521F0C22EE32F90
:10421000CA01E4CFB801C7010E944C20A1960FB695
:10422000F894DEBF0FBECDBFDF91CF911F910F91EC
:10423000FF90EF90DF90CF90BF90AF909F908F90C6
:1042400008952115310541F4DC01ED91FC910190B7
:10425000F081E02D642F09940C94C8209A01462F18
:1042600050E060E070E00C9421210F931F93CF93F6
:10427000DF93EC019A01AB0160E070E00E94212124
:104280008C01CE010E949020800F911FDF91CF9171
:104290001F910F910895FC01808191810C948424D9
:1042A000CF93DF93EC0188819981009711F00E94F0
:1042B0008424198218821D821C821B821A82DF913B
:1042C000CF9108950F931F93CF93DF93EC018B0150
:1042D0006F5F7F4F888199810E941325009731F08D
:1042E000998388831B830A8381E001C080E0DF918A
:1042F000CF911F910F910895CF93DF93EC018881A7
:104300009981892B29F08A819B818617970760F410
:10431000CE010E946221882341F08C819D81892BEE
:1043200019F4E881F981108281E0DF91CF9108953D
:10433000EF92FF920F931F93CF93DF93EC017B01DA
:104340008A01BA010E947C21811104C0CE010E9421
:10435000502107C01D830C83B701888199810E9479
:10436000F425CE01DF91CF911F910F91FF90EF9037
:104370000895CF93DF93EC01FB018617970761F057
:10438000608171816115710529F0448155810E9418
:10439000982102C00E945021CE01DF91CF91089553
:1043A000FC011182108213821282158214820C94F5
:1043B000B921CF93DF93EC016115710561F0FB0129
:1043C00001900020E9F7AF0141505109461B570BFE
:1043D0000E94982102C00E945021CE01DF91CF910E
:1043E00008950F931F93CF93DF93CDB7DEB76197F7
:1043F0000FB6F894DEBF0FBECDBF8C01CB01F80124
:1044000011821082138212821582148250E0BE0142
:104410006F5F7F4F0E94FB25BE016F5F7F4FC8011A
:104420000E94D92161960FB6F894DEBF0FBECDBFB2
:10443000DF91CF911F910F910895EF92FF920F930B
:104440001F93CF93DF93CDB7DEB7A1970FB6F89444
:10445000DEBF0FBECDBF7C01CB01BA01F7011182D7
:104460001082138212821582148242E0420F8E0162
:104470000F5F1F4F0E94CB23BC01C7010E94D921AF
:10448000A1960FB6F894DEBF0FBECDBFDF91CF91DE
:104490001F910F91FF90EF900895EF92FF920F936D
:1044A0001F93CF93DF93EC017B010C811D8161157C
:1044B000710511F480E016C04115510591F0040F0B
:1044C000151FB8010E947C218823A1F3288139811E
:1044D0008C819D81B701820F931F0E94F4251D835B
:1044E0000C8381E0DF91CF911F910F91FF90EF90AE
:1044F0000895CF93DF93EC016115710569F0FB011D
:1045000001900020E9F7AF0141505109461B570BBC
:104510000E944D22811103C0CE010E945021CE0184
:10452000DF91CF9108950895E89409C097FB3EF478
:1045300090958095709561957F4F8F4F9F4F9923F0
:10454000A9F0F92F96E9BB279395F695879577956E
:104550006795B795F111F8CFFAF4BB0F11F460FF2E
:104560001BC06F5F7F4F8F4F9F4F16C0882311F086
:1045700096E911C0772321F09EE8872F762F05C09A
:10458000662371F096E8862F70E060E02AF09A9535
:10459000660F771F881FDAF7880F9695879597F92A
:1045A000089597F99F6780E870E060E008959FEFB5
:1045B00080EC089500240A941616170618060906BA
:1045C000089500240A941216130614060506089589
:1045D000092E0394000C11F4882352F0BB0F40F411
:1045E000BF2B11F460FF04C06F5F7F4F8F4F9F4F51
:1045F000089557FD9058440F551F59F05F3F71F0D3
:104600004795880F97FB991F61F09F3F79F0879539
:104610000895121613061406551FF2CF4695F1DFC2
:1046200008C0161617061806991FF1CF8695710552
:10463000610508940895E894BB2766277727CB0186
:1046400097F908950BD0C4CFB5DF28F0BADF18F082
:10465000952309F0A6CFABCF1124EECFCADFA0F38C
:10466000959FD1F3950F50E0551F629FF001729F07
:10467000BB27F00DB11D639FAA27F00DB11DAA1F26
:10468000649F6627B00DA11D661F829F2227B00D73
:10469000A11D621F739FB00DA11D621F839FA00DFE
:1046A000611D221F749F3327A00D611D231F849F4E
:1046B000600D211D822F762F6A2F11249F575040A5
:1046C0008AF0E1F088234AF0EE0FFF1FBB1F661F40
:1046D000771F881F91505040A9F79E3F510570F0F9
:1046E00060CFAACF5F3FECF3983EDCF386957795D9
:1046F0006795B795F795E7959F5FC1F7FE2B880FF4
:10470000911D9695879597F90895A1E21A2EAA1BF7
:10471000BB1BFD010DC0AA1FBB1FEE1FFF1FA21771
:10472000B307E407F50720F0A21BB30BE40BF50B6E
:10473000661F771F881F991F1A9469F760957095F7
:10474000809590959B01AC01BD01CF0108950E9419
:10475000AF23332312F48A1B9B0B0C94C023A29F1C
:10476000B001B39FC001A39F700D811D1124911D45
:10477000B29F700D811D1124911D08950E94AF23D9
:10478000B7FF0895821B930B0895EE0FFF1F05904E
:10479000F491E02D0994EF920F931F93CF93DF9341
:1047A000E80147FF02C034E101C034E0E42FFF27F5
:1047B000E7FDF095F7FF03C0F195E195F109E32ED0
:1047C000022F2E2FAE010E942026CE01DF91CF9125
:1047D0001F910F91EF900895CF93DF938230910551
:1047E00010F482E090E0E0911707F091180720E0C4
:1047F00030E0A0E0B0E0309739F1408151814817B6
:104800005907B8F04817590771F4828193811097BE
:1048100029F013969C938E9312972CC090931807AF
:104820008093170727C02115310531F04217530730
:1048300018F0A901DB0101C0EF019A01BD01DF0100
:104840000280F381E02DD7CF21153105F9F0281B27
:10485000390B2430310580F48A819B816115710503
:1048600021F0FB019383828304C090931807809307
:104870001707FE01329644C0FE01E20FF31F819339
:10488000919322503109398328833AC0209115072A
:1048900030911607232B41F420910201309103013E
:1048A00030931607209315072091000130910101E4
:1048B0002115310541F42DB73EB7409104015091C7
:1048C0000501241B350BE0911507F0911607E2173F
:1048D000F307A0F42E1B3F0B2817390778F0AC0123
:1048E0004E5F5F4F2417350748F04E0F5F1F509300
:1048F0001607409315078193919302C0E0E0F0E022
:10490000CF01DF91CF910895CF93DF93009709F402
:1049100087C0FC01329713821282C0911707D09191
:104920001807209781F420813181280F391F809149
:104930001507909116078217930779F5F0931607DC
:10494000E09315076DC0DE0120E030E0AE17BF0731
:1049500050F412964D915C9113979D0141155105AC
:1049600009F1DA01F3CFB383A28340815181840F2F
:10497000951F8A179B0771F48D919C911197840F55
:10498000951F02969183808312968D919C91139727
:10499000938382832115310529F4F0931807E0935E
:1049A00017073EC0D9011396FC93EE9312974D91D1
:1049B0005D91A40FB51FEA17FB0779F480819181FF
:1049C000840F951F0296D90111969C938E93828134
:1049D000938113969C938E931297E0E0F0E08A8186
:1049E0009B81009719F0FE01EC01F9CFCE010296F0
:1049F00028813981820F931F209115073091160766
:104A00002817390769F4309729F410921807109283
:104A1000170702C013821282D0931607C09315079E
:104A2000DF91CF910895A0E0B0E0E9E1F5E20C94C8
:104A30008A28EC01CB01209719F40E94EC23B8C01E
:104A4000FE01E60FF71F9E0122503109E217F3071E
:104A500008F4ACC0D9010D911C91119706171707E6
:104A6000B8F00530110508F49FC0A8014450510961
:104A70004617570708F498C002501109061B170B78
:104A8000019311936D937C93CF010E9484248CC079
:104A90005B01A01AB10A4E01800E911EA09117076A
:104AA000B0911807612C712C60E070E0109709F448
:104AB00049C0A815B905C9F5ED90FC90119767019B
:104AC00042E0C40ED11CCA14DB0478F147018A18F5
:104AD0009B08640142E0C40ED11C1296BC90129750
:104AE0001396AC91B5E0CB16D10440F0B282A3830B
:104AF00091828082D9018D939C9309C00E5F1F4FD4
:104B00000E0D1F1DF90111830083EB2DFA2F611586
:104B1000710531F0DB011396FC93EE93129744C0BC
:104B2000F0931807E09317073FC06D917C911197A0
:104B30006616770608F43B01BD0112960D90BC91F4
:104B4000A02DB4CF609115077091160768157905EF
:104B5000E9F468167906D0F4409100015091010102
:104B60004115510541F44DB75EB760910401709154
:104B70000501461B570BE417F507C0F4F093160721
:104B8000E0931507F901918380830EC00E94EC2306
:104B90007C01009759F0A801BE010E94E225CE01D8
:104BA0000E948424C70104C0CE0102C080E090E0CE
:104BB000CDB7DEB7EEE00C94A62881E090E0F89443
:104BC0000C94BD28FB01DC0102C001900D92415004
:104BD0005040D8F70895FB01DC018D9101908019B8
:104BE0000110D9F3990B0895FB01DC0101900D929E
:104BF0000020E1F708954532510520F4423010F0CD
:104C00000C940626FB011082CB010895BB27FB0103
:104C10005527AA27880F991FAA1FA41710F0A41BB5
:104C200083955051B9F7A05DAA3308F0A95DA1930F
:104C3000009779F7B111B1931192CB010C947628BA
:104C40006F927F929F92AF92BF92CF92DF92EF923C
:104C5000FF920F931F93CF93DF93CDB7DEB72997C2
:104C60000FB6F894DEBF0FBECDBF6A01B22E102F73
:104C70000C3320F4FF24F394F00E02C04CE3F42E26
:104C80000F2D27E0AE014F5F5F4F0E949E27798175
:104C9000272F2970213031F0E1FC06C0E0FC06C06E
:104CA00060E005C06DE203C06BE201C060E2AE2DC2
:104CB000A07173FF36C0662311F084E001C083E069
:104CC0008B1510F4B81A01C0B12CA1110BC0F6015C
:104CD0008B2D90E2882319F091938150FBCFCB0C60
:104CE000D11CB12C662331F0F601608396012F5F51
:104CF0003F4F6901C6010396E2FE05C02EE4F601AE
:104D0000208331E404C02EE6F601208331E63183AE
:104D10002283FC012B2D30E22223F1F1319321502B
:104D2000FBCF72FF40C0662311F084E001C083E036
:104D30008B1510F4B81A01C0B12CA1110BC0F601EB
:104D40008B2D90E2882319F091938150FBCFCB0CEF
:104D5000D11CB12C662331F0F601608396012F5FE0
:104D60003F4F6901C6010396E2FE07C029E4F60140
:104D700020832EE4218326E406C029E6F601208361
:104D80002EE6218326E62283FC012B2D30E222230E
:104D900019F031932150FBCFFC01EB0DF11D108276
:104DA0008EEF9FEFB7C0B1E0611101C0B0E04B2FB3
:104DB00050E01816190624F49C012F5F3F4F02C0E3
:104DC00021E030E0240F351F112329F0412F50E05E
:104DD0004F5F5F4F02C040E050E0420F531F2B2D4A
:104DE00030E04217530714F4B41A01C0B12C2E2D31
:104DF000287159F4F6012B2D30E2222319F031935A
:104E00002150FBCFCB0CD11CB12CBB2331F0F601D0
:104E1000608396012F5F3F4F6901A1110BC0F6011E
:104E20002B2D30E3222319F031932150FBCFCB0CF3
:104E3000D11CB12CF80E0A81372F3071A32E74FFCC
:104E400003C0013309F4FA941F142CF42F2D2930D8
:104E500018F028E001C021E0682F392F97FF02C029
:104E600060E030E0462F532F612C712C3EE2932EF0
:104E7000BC01621B71099B01DC01A41BB50BE1E0C5
:104E8000F0E0EC0FFD1FAE0FBF1FE12EF12CF194EF
:104E9000E194F1084F3FFFEF5F0731F4F601908294
:104EA000B6016F5F7F4F6B01841795074CF0241795
:104EB000350734F4BD01660D771DFB01118101C07A
:104EC00010E341505109FFEF6F1A7F0AB6016F5F7F
:104ED0007F4F4E155F0524F0F60110836B01DACF8A
:104EE0004817590739F4063320F4053319F4A11093
:104EF00001C011E3F6011083FB018B2D90E28823A2
:104F000019F091938150FBCFFB01EB0DF11D108245
:104F100080E090E029960FB6F894DEBF0FBECDBFBB
:104F2000DF91CF911F910F91FF90EF90DF90CF9085
:104F3000BF90AF909F907F906F900895283008F0B9
:104F400027E03327DA01990F311D87FD9160009624
:104F50006105710539F432602E5F3D9330E32A9587
:104F6000E1F708959F3F30F080387105610509F041
:104F70003C5F3C5F3D93913008F08068911DDF936A
:104F8000CF931F930F93FF92EF92192F987F9695CF
:104F9000E92F96959695E90FFF27E959F74F99273D
:104FA0003327EE24FF24A701E70105900894079416
:104FB00028F4360FE71EF81E491F511D660F771F94
:104FC000881F991F0694A1F70590079428F4E70E0F
:104FD000F81E491F561FC11D770F881F991F661F96
:104FE0000694A1F70590079428F4F80E491F561F60
:104FF000C71FD11D880F991F661F771F0694A1F741
:105000000590079420F4490F561FC71FD81F990F0A
:10501000661F771F881F0694A9F784911095177053
:1050200041F0D695C79557954795F794E7941A950B
:10503000C1F7EDE0F8E06894159015913591659110
:10504000959105907FE27395E118F10A430B560B99
:10505000C90BD009C0F7E10CF11E431F561FC91F31
:10506000D01D7EF4703311F48A95E6CFE894015098
:1050700030F0080F0AF40027021708F4202F2395B8
:10508000022F7A3328F079E37D932A95E9F710C04F
:105090007D932A9589F60694979567953795179588
:1050A0001794E118F10A430B560BC90BD00998F07D
:1050B00023957E9173957A3308F070E37C932013E7
:1050C000B8F77E9170617D9330F0839571E37D93A5
:1050D00070E32A95E1F71124EF90FF900F911F9153
:1050E000CF91DF91992787FD90950895DC01FC0110
:1050F000672F71917723E1F7329704C07C916D930C
:1051000070836291AE17BF07C8F308952F923F9244
:105110004F925F926F927F928F929F92AF92BF92C7
:10512000CF92DF92EF92FF920F931F93CF93DF9373
:10513000CDB7DEB7CA1BDB0B0FB6F894DEBF0FBED0
:10514000CDBF09942A88398848885F846E847D841D
:105150008C849B84AA84B984C884DF80EE80FD801F
:105160000C811B81AA81B981CE0FD11D0FB6F89495
:0E517000DEBF0FBECDBFED010895F894FFCF56
:10517E00000019078000F00301564D4450565F3170
:10518E007C315F564D4450560D0A005354415254D3
:10519E000056002D002B00000000003409242024AE
:1051AE001EB706BD07D4076E07EA071F083D086045
:1051BE00C0A028100010181060C0A000003F013FD2
:1051CE0001EFEF0000000000340924200914B70697
:1051DE00C4125D126E072B13B7133D08564D445083
:1051EE00435F005F564D4450430D0A004572726F87
:1051FE00723A20417474656D707420746F207365FB
:10520E0074206120726561642D6F6E6C79207661F9
:10521E00726961626C65206F7220646174612074C2
:10522E00797065206E6F7420737570706F7274650F
:10523E00640D0A0000000000B61B791998190000D1
:10524E000000151C7619781900000000A41E2420F9
:08525E00261E3F1E311E821EB8
:00000001FF
