:100000000C940A040C9432040C9432040C943204C0
:100010000C9432040C9432040C9432040C94320488
:100020000C9432040C9432040C9432040C94320478
:100030000C9432040C9432040C9432040C94320468
:100040000C94331A0C9432040C94A71B0C94D91BF7
:100050000C9432040C9432040C9432040C94320448
:100060000C9432040C94320400000000003E5B4FFC
:100070005B3E3E6B4F6B3E1C3E7C3E1C183C7E3C08
:10008000181C577D571C1C5E7F5E1C00183C180016
:10009000FFE7C3E7FF0018241800FFE7DBE7FF30A6
:1000A000483A060E2629792926407F050507407F14
:1000B00005253F5A3CE73C5A7F3E1C1C08081C1C87
:1000C0003E7F14227F22145F5F005F5F06097F017D
:1000D0007F006689956A606060606094A2FFA29468
:1000E00008047E040810207E201008082A1C080836
:1000F0001C2A08081E101010100C1E0C1E0C303884
:100100003E3830060E3E0E06000000000000005F84
:1001100000000007000700147F147F14242A7F2AA0
:100120001223130864623649562050000807030062
:10013000001C2241000041221C002A1C7F1C2A08AE
:10014000083E080800807030000808080808000011
:1001500060600020100804023E5149453E00427F85
:10016000400072494949462141494D331814127FD4
:100170001027454545393C4A494931412111090774
:100180003649494936464949291E000014000000F5
:1001900040340000000814224114141414140041C7
:1001A00022140802015909063E415D594E7C121184
:1001B000127C7F494949363E414141227F414141BC
:1001C0003E7F494949417F090909013E4141517337
:1001D0007F0808087F00417F41002040413F017FA8
:1001E000081422417F404040407F021C027F7F0470
:1001F00008107F3E4141413E7F090909063E4151B9
:10020000215E7F09192946264949493203017F01A8
:10021000033F4040403F1F2040201F3F4038403FA9
:10022000631408146303047804036159494D4300BF
:100230007F4141410204081020004141417F0402F6
:10024000010204404040404000030708002054548D
:1002500078407F284444383844444428384444286B
:100260007F385454541800087E090218A4A49C78BE
:100270007F0804047800447D40002040403D007F1A
:100280001028440000417F40007C047804787C08FA
:100290000404783844444438FC18242418182424CE
:1002A00018FC7C08040408485454542404043F44B3
:1002B000243C4040207C1C2040201C3C4030403CE2
:1002C00044281028444C9090907C4464544C440042
:1002D00008364100000077000000413608000201A6
:1002E0000204023C2623263C1EA1A161123A404092
:1002F000207A38545455592155557941225454780F
:1003000042215554784020545579400C1E527212A7
:100310003955555559395454545939555454580030
:1003200000457C410002457D420001457C407D1234
:1003300011127DF0282528F07C5455450020545496
:100340007C547C0A097F4932494949323A44444441
:100350003A324A4848303A4141217A3A424020787C
:10036000009DA0A07D3D4242423D3D4040403D3C7D
:1003700024FF2424487E4943662B2FFC2F2BFF09A2
:1003800029F620C0887E0903205454794100004496
:100390007D413048484A32384040227A007A0A0A81
:1003A000727D0D19317D2629292F282629292926F4
:1003B00030484D4020380808080808080808382F39
:1003C00010C8ACBA2F102834FA00007B00000814C3
:1003D0002A142222142A1408AA005500AAAA55AAEF
:1003E00055AA000000FF00101010FF00141414FFA5
:1003F000001010FF00FF1010F010F0141414FC0097
:100400001414F700FF0000FF00FF1414F404FC14A0
:100410001417101F10101F101F1414141F00101099
:1004200010F0000000001F101010101F101010100E
:10043000F010000000FF101010101010101010FF2E
:1004400010000000FF140000FF00FF00001F101745
:100450000000FC04F414141710171414F404F4002E
:1004600000FF00F714141414141414F700F71414F4
:1004700014171410101F101F141414F4141010F07B
:1004800010F000001F101F0000001F14000000FCEF
:10049000140000F010F01010FF10FF141414FF14DB
:1004A0001010101F00000000F010FFFFFFFFFFF012
:1004B000F0F0F0F0FFFFFF0000000000FFFF0F0F63
:1004C0000F0F0F3844443844FC4A4A4A347E020233
:1004D0000606027E027E0263554941633844443C6D
:1004E00004407E201E2006027E020299A5E7A599FF
:1004F0001C2A492A1C4C7201724C304A4D4D303036
:1005000048784830BC625A463D3E494949007E0120
:1005100001017E2A2A2A2A2A44445F444440514A3F
:10052000444040444A51400000FF0103E080FF0086
:100530000008086B6B083612362436060F090F06C2
:10054000000018180000001010003040FF010100EA
:100550001F01011E00191D1712003C3C3C3C00000D
:100560000000000100E901201100FF64D1030071C7
:1005700019D0030701083601483A0105C1041010DB
:100580000202C006003100000102C50104D20201CE
:1005900044C80F04673504080624013740031008D7
:1005A00080002A04000000EF2B050000013F8F2986
:1005B000002C000100CB05392C003402CF0300C110
:1005C00030E803850078EA020000ED04640312813C
:1005D000F70120C00123C10110C5023E28C70186D2
:1005E0003601483A0155B1020018B603088227F2D5
:1005F0000100260101E00F0F312B0C0E084EF137E0
:100600000710030E0900E10F000E1403110731C19A
:1006100048080F0C31360F1100FF9629002C0000FE
:10062000000100FF0032000100000102000007038A
:10063000003010040000000700000008000202095A
:100640000000000A0000000C0000000D0000000F78
:10065000000000100000001100070012000000134D
:10066000000000FF00C8001000901611000800FFF5
:1006700000320012001800FF0032001300000029B1
:10068000002A00FF0032003000000031000000327C
:100690000000003500060236000808370007003861
:1006A000000102390000003C0000003D0000005045
:1006B0000000005100EF005200000053003F0160B5
:1006C0000000A7610003006A000000900010009283
:1006D00000000093000300950000119700000098AF
:1006E000000000070033010100B903FF8357FFFA40
:1006F000B30400000606B60125B00168CC0105B1BF
:100700000600151C1C83AAC0065050013C1E08B4EC
:10071000070240002A2A0D783A01553601C03501FA
:1007200000440200021100FF962900FF322E8929A1
:100730008F2B02E200E401E510E601E710E870F219
:1007400000EA00EB20EC3CEDC8E938F1011B1A1A75
:10075000022461255C183619011F88FF051F80FFE0
:10076000051F90FF051FD4FF05170536092838FF20
:1007700028283C02000300040005EF0600070008DB
:1007800001093F57696E646F774D616E61676572ED
:100790002069736E277420696E697469616C697A67
:1007A000656400556E6B6E6F776E204C4344206419
:1007B000726976657220636869703A2000000000F3
:1007C0000800020100000304070000000000000010
:1007D00000010204081020408001020408102001DA
:1007E00002040810200404040404040404020202A5
:1007F0000202020303030303030000000025002894
:10080000002B0000000000240027002A00008A04BA
:100810001B18091C11241FBECFEFD8E0DEBFCDBFCF
:1008200011E0A0E0B1E0E4EAF3E402C005900D922B
:10083000A038B107D9F722E0A0E8B1E001C01D92CD
:10084000A037B207E1F718E0C4E1D8E004C022976E
:10085000FE010E94461FCE30D107C9F70E944D1CF1
:100860000C94D0210C9400000E94381880918C01C7
:1008700090918D010C94BB1780918401909185011A
:100880000E942317882331F080918A0190918B0177
:100890000E94BB1780918001909181010E942317D3
:1008A000882351F080918C0190918D010E94BB179B
:1008B00010928F0110928E01809188019091890190
:1008C0000E942817882349F080918E0190918F0112
:1008D000019690938F0180938E0180918601909173
:1008E00087010E942317882349F080918E019091FF
:1008F0008F01019790938F0180938E0160918E01FB
:1009000070918F0180918201909183010E94F8176C
:100910000C94A2180E940A1790938D0180938C0169
:100920000E940A1790938B0180938A0127E031E09F
:1009300046E450E060E070E080918C0190918D0180
:100940000E942B17909389018093880129E031E060
:1009500046E450E066E470E080918C0190918D0156
:100960000E942B1790938701809386012BE031E042
:1009700046E950E060E070E080918C0190918D013B
:100980000E942B17909385018093840124E630E028
:1009900040E050E064E170E080918C0190918D0125
:1009A0000E948217909383018093820120E131E0BD
:1009B00044E650E060E070E080918A0190918B0104
:1009C0000E942B17909381018093800108952F92AC
:1009D0003F924F925F926F927F928F929F92AF92CF
:1009E000BF92CF92DF92EF92FF920F931F93CF931C
:1009F000DF9300D000D0CDB7DEB74C017C836B8392
:100A00006A015901C8018701AC014C195D0957FF02
:100A100003C051954195510995016B817C81261B3D
:100A2000370B37FF03C031952195310922242394D8
:100A3000312C2417350714F0212C312C21143104CA
:100A400059F03A2D2B2D5C01832F922F3B812C8165
:100A5000DC82CB82C32ED22EAB81BC81AA16BB0610
:100A60005CF43C2D2D2D6C01832F922F3B812C812A
:100A7000BC82AB82A32EB22E2501EB81FC814E1AE3
:100A80005F0A3C016C187D0877FE03C07194619485
:100A90007108720157FE03C0FFEFEF1AFF0AF594C9
:100AA000E794C816D9062CF421E030E03A83298374
:100AB00024C06FEF7FEF7A8369831FC0D401ED916B
:100AC000FC910480F581E02D980121143104D9F0C6
:100AD0004B815C81B601C4010995E618F708F7FE61
:100AE00006C0E981FA81CE0EDF1EE40CF51C2B81D5
:100AF0003C812F5F3F4F3C832B836B817C81A6160B
:100B0000B706E4F604C0A6016B817C81E4CF0F90A8
:100B10000F900F900F90DF91CF911F910F91FF9049
:100B2000EF90DF90CF90BF90AF909F908F907F908D
:100B30006F905F904F903F902F9008956F927F92AB
:100B40008F929F92AF92BF92CF92DF92EF92FF92DD
:100B50000F931F93CF93DF93EC015B016A0139017F
:100B60004801E881F9810284F385E02D8701099528
:100B7000E881F981A601480D591D415051090284AF
:100B8000F385E02D9301B501CE010995E881F98146
:100B90000084F185E02D9401A601B501CE010995EF
:100BA000E881F981B501660D771D615071090084F6
:100BB000F185E02D9401A601CE010995DF91CF9139
:100BC0001F910F91FF90EF90DF90CF90BF90AF906B
:100BD0009F908F907F906F900895EF92FF920F9368
:100BE0001F93DC01ED91FC91240F351F2150310939
:100BF0000680F781E02D780189019B0109951F91FD
:100C00000F91FF90EF900895EF92FF920F931F9333
:100C1000DC01ED91FC91260F371F21503109068030
:100C2000F781E02D78018A0109951F910F91FF90BE
:100C3000EF9008956F927F928F929F92AF92BF92A2
:100C4000CF92DF92EF92FF920F931F93CF93DF9398
:100C50005C014A0169013801EB01C60ED71ECC15B3
:100C6000DD0574F4D501ED91FC910084F185E02D52
:100C700087019301A401BE01C50109952196EFCF1B
:100C8000DF91CF911F910F91FF90EF90DF90CF9068
:100C9000BF90AF909F908F907F906F900895EF924C
:100CA000FF920F931F93DC01ED91FC9111971A961F
:100CB0000D911C911B9718962D913C9119970684C4
:100CC000F785E02D7B0140E050E060E070E00995A1
:100CD0001F910F91FF90EF9008950895FC011382EA
:100CE00012828AE191E091838083758364835783C4
:100CF00046837187608753874287158A15861486D5
:100D00001786168621E0248B8FEF9FEF938B828BC3
:100D1000918B808B268B08952F923F924F925F92FA
:100D20006F927F928F929F92AF92BF92CF92DF92FB
:100D3000EF92FF920F931F93CF93DF93CDB7DEB760
:100D40002C970FB6F894DEBF0FBECDBF9C878B8764
:100D50003A0118870F83FA86E986CD82DC0118965E
:100D60008D919C911997681779070CF094C01A9689
:100D70008D919C911B97481759070CF08CC08C2CB7
:100D8000912CCB01B6E0CB9E800D911D112418163D
:100D900019060CF080C0C40153E0880F991F5A95C2
:100DA000E1F7860D971D181619060CF074C0F5E0D2
:100DB0002F9F200111245B016B011C829201285995
:100DC0003F4F2901461A570A3C81353031F0F20174
:100DD000EA0DFB1D44914B8301C01B827A8269821C
:100DE00013011E828B8180FF13C0AB85BC85ED9102
:100DF000FC91BD81B13031F40480F581E02D2F816B
:100E0000388519C00684F785E02DEF80F8841EC070
:100E1000E985FA852F813885E217F307F9F0AB856C
:100E2000BC85ED91FC91BD81B13059F40480F58110
:100E3000E02D29853A85A101B5018B859C85099511
:100E40000DC00684F785E02DE984FA8484019401BD
:100E500049815A81B6018B859C850995EB81E69580
:100E6000EB83FE81FF5FFE8329813A81280D391DC6
:100E70003A8329833FEF231A330AF83009F0B2CFBF
:100E80004C814F5F4C83C80CD91C8FEFA81AB80A4D
:100E9000463009F099CF2C960FB6F894DEBF0FBEFE
:100EA000CDBFDF91CF911F910F91FF90EF90DF9019
:100EB000CF90BF90AF909F908F907F906F905F90FA
:100EC0004F903F902F900895CF92EF92FF920F9303
:100ED0001F93CF93DF93EC01262F6A3049F42C89BE
:100EE0008E859F8538E0239F800D911D112432C08F
:100EF0006D30A1F1EA88FB88088919894E855F85E4
:100F00006C857D85CC880E948C062C89422F50E010
:100F10008C859D8536E0239F800D911D11249D8732
:100F20008C872E892223D1F06AEF64039001659F9C
:100F3000300D112468857985260F371F281739074A
:100F40006CF463E0440F551F6A95E1F78E859F8529
:100F5000840F951F9F878E871D861C8681E090E0F9
:100F6000DF91CF911F910F91FF90EF90CF90089557
:100F7000FC0175876487578746870895611101C012
:100F800061E0FC01648B0895FC01738B628B718BB3
:100F9000608B0895FC01718B608B538B428B08959D
:100FA000FC016370658B8481958126813781613076
:100FB00039F0633029F0918780873387228708953D
:100FC00031872087938782870895CF93DF93EC0141
:100FD000E88DF98D808198A1892B8083EC8DFD8D22
:100FE00080819AA1892B8083EE8DFF8D80819BA1CA
:100FF000892B808388A5882369F060E00E946F1B9D
:1010000062E070E080E090E00E94A01A61E088A5B4
:101010000E946F1BE88DF98D80819CA189238083BC
:10102000EA8DFB8D80819DA1892380838BB18370A4
:101030008BB985B18C7F85B9EC8DFD8D80819EA1AA
:1010400089238083EC8DFD8D80819AA1892B8083FB
:1010500083E0EC8DFD8D90812EA192239083EC8D09
:10106000FD8D90812AA1922B9083815091F7E88D7C
:10107000F98D808198A1892B8083DF91CF9108958C
:10108000DF92EF92FF920F931F93CF93DF93FC01B8
:1010900060957095CB01A08DB18DCC91D4A1CD235D
:1010A000CC93A28DB38DCC91D5A1CD23CC93A78920
:1010B000A230C9F0A530B9F0A11113C0ABB1A37033
:1010C000ABB9A5B1AC7FA5B9A48DB58DCC91D6A196
:1010D000CD23CC93A48DB58DCC91D2A1CD2BCC9327
:1010E00009C0A33039F4ABB1A370AC62ABB9A5B100
:1010F000AC7F07C0ABB1A370A062ABB9A5B1AC7FA8
:10110000A260A5B9A48DB58DCC91D6A1CD23CC93E9
:10111000A48DB58DCC91D2A1CD2BCC93A28DB38DC6
:10112000CC91D1A1CD2BCC93ABB1C72FCC7FA370E9
:10113000AC2BABB9A5B1D72FD370AC7FAD2BA5B974
:10114000A48DB58D7C9116A171237C93A48DB58D52
:101150007C9112A1712B7C937BB1A62FAC7FFA2ED0
:1011600073707A2B7BB975B1A62FA370EA2E7C7FA2
:101170007A2B75B9A48DB58D6C9176A167236C938C
:10118000A48DB58D6C9172A1672B6C93BA01A901E6
:1011900041505109610971098A019B0156E0369558
:1011A0002795179507955A95D1F7981719F080E06C
:1011B00090E03AC180E090E00817190709F466C092
:1011C00020E1A48DB58D3C91C6A13C233C93A48D18
:1011D000B58D3C91C2A13C2B3C93A48DB58D3C9127
:1011E000C6A13C233C93A48DB58D3C91C2A13C2B60
:1011F0003C93A48DB58D3C91C6A13C233C93A48D1A
:10120000B58D3C91C2A13C2B3C93A48DB58D3C91F6
:10121000C6A13C233C93A48DB58D3C91C2A13C2B2F
:101220003C93A48DB58D3C91C6A13C233C93A48DE9
:10123000B58D3C91C2A13C2B3C93A48DB58D3C91C6
:10124000C6A13C233C93A48DB58D3C91C2A13C2BFF
:101250003C93A48DB58D3C91C6A13C233C93A48DB9
:10126000B58D3C91C2A13C2B3C93A48DB58D3C9196
:10127000C6A13C233C93A48DB58D3C91C2A13C2BCF
:101280003C93215009F09DCF019696CF4F7341506A
:10129000C8F0A48DB58D8C9196A189238C93A48DD3
:1012A000B58D8C9192A1892B8C93A48DB58D8C9149
:1012B00096A189238C93A48DB58D8C9192A1892BB5
:1012C0008C93E5CFA08DB18D8C9190A1892B8C93BF
:1012D000DF91CF911F910F91FF90EF90DF900895D4
:1012E0003BB133703C2B3BB935B13C7F3D2B35B91D
:1012F000A48DB58D3C91D6A03D213C93A48DB58D98
:101300003C91D2A03D293C933BB133703F293BB97E
:1013100035B13C7F3E2935B9A48DB58D3C91D6A021
:101320003D213C93A48DB58D3C91D2A03D293C93A9
:101330003BB133703C2B3BB935B13C7F3D2B35B9CC
:10134000A48DB58D3C91D6A03D213C93A48DB58D47
:101350003C91D2A03D293C933BB133703F293BB92E
:1013600035B13C7F3E2935B9A48DB58D3C91D6A0D1
:101370003D213C93A48DB58D3C91D2A03D293C9359
:101380003BB133703C2B3BB935B13C7F3D2B35B97C
:10139000A48DB58D3C91D6A03D213C93A48DB58DF7
:1013A0003C91D2A03D293C933BB133703F293BB9DE
:1013B00035B13C7F3E2935B9A48DB58D3C91D6A081
:1013C0003D213C93A48DB58D3C91D2A03D293C9309
:1013D0003BB133703C2B3BB935B13C7F3D2B35B92C
:1013E000A48DB58D3C91D6A03D213C93A48DB58DA7
:1013F0003C91D2A03D293C933BB133703F293BB98E
:1014000035B13C7F3E2935B9A48DB58D3C91D6A030
:101410003D213C93A48DB58D3C91D2A03D293C93B8
:10142000215009F05DCF01960817190711F020E14E
:1014300057CF4F73415008F445CF8BB183708C2B3D
:101440008BB985B18C7F8D2B85B9A48DB58D8C9191
:1014500096A189238C93A48DB58D8C9192A1892B13
:101460008C938BB183708F298BB985B18C7F8E293A
:1014700085B9A48DB58D8C9196A189238C93A48D6B
:10148000B58D8C9192A1892B8C93D4CFFC01A68D24
:10149000B78D8C9197A189238C9300C000C000C0A8
:1014A000000089B193B1A68DB78D2C9133A1232B68
:1014B0002C9393708C7F892B08958AB18C6F8AB995
:1014C00084B1836084B90895CF93DF93EC010E94C7
:1014D0005D0A1D8A1D861C861F861E8681E08C8BF8
:1014E0008FEF9FEF998B888B80EF90E099878887AB
:1014F00080E491E09B878A87DF91CF9108959F9246
:10150000AF92BF92CF92DF92EF92FF920F931F9311
:10151000CF93DF93EC01A62EF42EB22E902E40E452
:1015200051E060EF70E00E946E0687E491E09983DD
:101530008883E8A66A2D70E0FB01EB51F84FE49137
:10154000F0E0EE0FFF1FE750F84FA591B491B98F6F
:10155000A88F4F2D50E0FA01EB51F84FE491F0E0E5
:10156000EE0FFF1FE750F84F859194919B8F8A8F64
:101570002B2D30E0F901EB51F84FE491F0E0EE0F44
:10158000FF1FE750F84F859194919D8F8C8F092D07
:1015900010E0F801EB51F84FE491F0E0EE0FFF1F7F
:1015A000E750F84FC590D490DF8ECE8EFB01EF52FE
:1015B000F84F649168A3FA01EF52F84F449149A3A0
:1015C000F901EF52F84F24912AA3F801EF52F84F96
:1015D00004910BA398A1892F80958CA389A1809554
:1015E0008DA38AA180958EA300950FA38C91892B42
:1015F0008C93EA8DFB8D808199A1892B8083EC8D62
:10160000FD8D80819AA1892B8083EE8DFF8D808155
:101610009BA1892B808361E08A2D0E94361B61E0AB
:101620008F2D0E94361B61E08B2D0E94361B61E0DE
:10163000892D0E94361BEE2041F061E08E2D0E9424
:101640006F1B61E08E2D0E94361BCE01DF91CF9182
:101650001F910F91FF90EF90DF90CF90BF90AF90D0
:101660009F900C94640A8AB183708AB984B18C7F8C
:1016700084B90895CF92DF92EF92FF920F931F9358
:10168000CF93DF931F92CDB7DEB78C01DC01589664
:10169000ED91FC915997808194969C919497892320
:1016A00080835A96ED91FC915B97808195969C91F1
:1016B0009597892380839BB1862F8C7F9370892B8C
:1016C0008BB995B1862F83709C7F892B85B95C96E9
:1016D000ED91FC915D97808196969C9196978923D8
:1016E00080835C96ED91FC915D97808192969C91B0
:1016F000892B8083C80169830E94330BD8015A96D5
:10170000ED91FC915B97808191969C91892B8083D0
:1017100082E390E00E94C81AC8010E94460AC82EBF
:10172000D12CE12CF12CFE2CED2CDC2CCC24C8018E
:101730000E94460AC82AFE2CED2CDC2CCC24C801C1
:101740000E94460AC82AFE2CED2CDC2CCC24C801B1
:101750000E94460AC82A69816F3E41F4FE2CED2C96
:10176000DC2CCC24C8010E94460AC82AD80158960D
:10177000ED91FC915997808190969C91892B808363
:10178000C8010E945D0A66E970E080E090E00E9476
:10179000A01AC701B6010F90DF91CF911F910F9151
:1017A000FF90EF90DF90CF900895FC01A28DB38D54
:1017B0008C9195A189238C939BB1862F8C7F9370FC
:1017C000892B8BB985B163708C7F682B65B9A48D2B
:1017D000B58D8C9196A189238C93A48DB58D8C9118
:1017E00092A1892B8C93A28DB38D8C9191A1892B81
:1017F0008C939BB1842F8C7F9370892B8BB985B18F
:1018000043708C7F482B45B9A48DB58D8C9196A1E2
:1018100089238C93A48DB58D8C9192A1892B8C9367
:101820000895FC01A28DB38D8C9195A189238C9391
:101830009BB1872F8C7F9370892B8BB985B1737087
:101840008C7F782B75B9A48DB58D8C9196A1892349
:101850008C93A48DB58D8C9192A1892B8C939BB187
:10186000862F8C7F9370892B8BB985B163708C7FA9
:10187000682B65B9A48DB58D8C9196A189238C9325
:10188000A48DB58D8C9192A1892B8C93A28DB38D53
:101890008C9191A1892B8C939BB1852F8C7F937018
:1018A000892B8BB985B153708C7F582B55B9A48D7A
:1018B000B58D8C9196A189238C93A48DB58D8C9137
:1018C00092A1892B8C939BB1842F8C7F9370892B51
:1018D0008BB985B143708C7F482B45B9A48DB58DEC
:1018E0008C9196A189238C93A48DB58D8C9192A116
:1018F000892B8C930895FC01A28DB38D8C9195A1B9
:1019000089238C939BB1862F8C7F9370892B8BB905
:1019100085B163708C7F682B65B9A48DB58D8C9172
:1019200096A189238C93A48DB58D8C9192A1892B3E
:101930008C93A28DB38D8C9191A1892B8C939BB1AB
:10194000832F8C7F9370892B8BB985B133708C7FFB
:10195000382B35B9A48DB58D8C9196A189238C93A4
:10196000A48DB58D8C9192A1892B8C93A28DB38D72
:101970008C9195A189238C939BB1842F8C7F93703C
:10198000892B8BB985B143708C7F482B45B9A48DC9
:10199000B58D8C9196A189238C93A48DB58D8C9156
:1019A00092A1892B8C93A28DB38D8C9191A1892BBF
:1019B0008C939BB1822F8C7F9370892B8BB985B1CF
:1019C00023708C7F282B25B9A48DB58D8C9196A181
:1019D00089238C93A48DB58D8C9192A1892B8C93A6
:1019E0000895CF93DF93EC01E88DF98D80819CA160
:1019F00089238083288539852150310945E064E0B9
:101A0000CE010E947B0C2A853B852150310949E09B
:101A100068E0CE010E947B0CE88DF98D808198A151
:101A2000892B8083DF91CF9108950F931F93CF93DC
:101A3000DF9300D000D0CDB7DEB78C01DC01589623
:101A4000ED91FC915997808194969C91949789236C
:101A500080835A96ED91FC915B97808195969C913D
:101A60009597892380839BB1862F8C7F9370892BD8
:101A70008BB985B163708C7F682B65B95C96ED91ED
:101A8000FC915D97808196969C919697892380839F
:101A90005C96ED91FC915D97808192969C919297D6
:101AA000892B80835A96ED91FC915B97808191966A
:101AB0009C91892B80838AE090E029833A834B8331
:101AC0005C830E94C81A7BB129813A814B815C8179
:101AD000CA01AA27BB27682F6C7F7370672B6BB96D
:101AE00065B183706C7F862B85B9D8015C96ED91CA
:101AF000FC915D97808196969C919697892380832F
:101B00005C96ED91FC915D97808192969C91892BDA
:101B100080838AE090E029833A834B835C830E9430
:101B2000C81AFBB129813A814B815C81BB27A52F63
:101B3000942F832FE82FEC7FF370EF2BEBB9E5B1F7
:101B4000682F6370EC7F6E2B65B9D8015C96ED91C0
:101B5000FC915D97808196969C91969789238083CE
:101B60005C96ED91FC915D97808192969C91892B7A
:101B700080838AE090E029833A834B835C830E94D0
:101B8000C81A9BB12981822F8C7F9370892B8BB9C6
:101B900085B123708C7F282B25B9D8015C96ED91F7
:101BA000FC915D97808196969C919697892380837E
:101BB0005C96ED91FC915D97808192969C919297B5
:101BC000892B80835896ED91FC915997808190964E
:101BD0009C91892B80830F900F900F900F90DF9135
:101BE000CF911F910F9108950F931F93CF93DF9380
:101BF000EC0164E00E943A0B611570488105910583
:101C000049F063EDCE010E943A0B6134734909F447
:101C10006BC01AC027E533E84FEF50E069EBCE0107
:101C20000E94150D6CE271E080E090E00E94A01A25
:101C300060EDCE010E943A0B61157105894991054D
:101C400001F787E593E855C06FEECE010E943A0B8D
:101C50006732734909F44BC0E88DF98D80819CA1EE
:101C600089238083EA8DFB8D80819DA189238083D8
:101C70008BB183708BB985B18C7F85B9EC8DFD8D6F
:101C800080819EA189238083EC8DFD8D80819AA126
:101C9000892B8083EC8DFD8D80819EA1892380839B
:101CA000EC8DFD8D80819AA1892B8083CE010E94CD
:101CB000330BEA8DFB8D808199A1892B8083CE0126
:101CC0000E94460A182FCE010E94460A082FCE0114
:101CD0000E945D0AE88DF98D908188A1982B9083F0
:101CE000802F90E0912B05C081E493E902C087E248
:101CF00093E9DF91CF911F910F9108950F931F9357
:101D0000CF93DF9300D000D0CDB7DEB78C01DC01DC
:101D10005896ED91FC915997808194969C91949757
:101D2000892380835A96ED91FC915B9780819596EB
:101D30009C919597892380839BB1862F8C7F93708C
:101D4000892B8BB985B163708C7F682B65B95C96E4
:101D5000ED91FC915D97808196969C919697892351
:101D600080835C96ED91FC915D97808192969C9129
:101D70009297892B80835A96ED91FC915B97808195
:101D800091969C91892B80838AE090E029833A8305
:101D90004B835C830E94C81A7BB129813A814B81B5
:101DA0005C81852F9927AA27BB27682F6C7F7370CA
:101DB000672B6BB965B183706C7F862B85B9D801B1
:101DC0005C96ED91FC915D97808196969C9196979B
:101DD000892380835C96ED91FC915D97808192963A
:101DE0009C91892B80838AE090E029833A834B83FE
:101DF0005C830E94C81A7BB129813A814B815C8146
:101E0000CA01AA27BB27682F6C7F7370672B6BB939
:101E100065B183706C7F862B85B9D8015C96ED9196
:101E2000FC915D97808196969C91969789238083FB
:101E30005C96ED91FC915D97808192969C91892BA7
:101E400080838AE090E029833A834B835C830E94FD
:101E5000C81AFBB129813A814B815C81BB27A52F30
:101E6000942F832FE82FEC7FF370EF2BEBB9E5B1C4
:101E7000682F6370EC7F6E2B65B9D8015C96ED918D
:101E8000FC915D97808196969C919697892380839B
:101E90005C96ED91FC915D97808192969C91892B47
:101EA00080838AE090E029833A834B835C830E949D
:101EB000C81A9BB12981822F8C7F9370892B8BB993
:101EC00085B123708C7F282B25B9D8015C96ED91C4
:101ED000FC915D97808196969C919697892380834B
:101EE0005C96ED91FC915D97808192969C91929782
:101EF000892B80835896ED91FC915997808190961B
:101F00009C91892B80830F900F900F900F90DF9101
:101F1000CF911F910F9108958F929F92AF92BF9290
:101F2000CF92DF92EF92FF920F931F93CF93DF93A5
:101F3000EC017A016901E88DF98D80819CA18923EA
:101F40008083EF898E2F8B7F09F089C08D89823045
:101F500089F0833021F1813081F58FEE90E09C0192
:101F6000201B310B5B014C01841A950A8601640128
:101F70007B0113C08FEE90E09C012C193D096C0190
:101F8000C61AD70A8FE391E0AC01401B510B8C01BC
:101F90000E191F09580146017A01B90110C08FE3DB
:101FA00091E09C012C193D095C01A61AB70A4A016F
:101FB00068018501B701790102C05A014B01AB01EB
:101FC000E43049F567E370E0CE010E94110CA601F0
:101FD00066E370E0CE010E94110CA70169E370E096
:101FE000CE010E94110CA80168E370E0CE010E94AE
:101FF000110CA40160E270E0CE010E94110CA50159
:1020000061E270E0CE010E94110C40E062E2CE017C
:102010000E94D50B6FC060E570E0CE010E94110CEC
:10202000A60161E570E0CE010E94110CA70162E5F6
:1020300070E0CE010E94110CA80163E570E0CE01B2
:102040000E94110CA40160E270E0CE010E94110C0C
:10205000A50161E270E0CE010E94110C4BC0E1309D
:10206000C9F49B0143E062E0CE010E947B0C970122
:1020700047E066E0CE010E947B0C960145E064E0FB
:10208000CE010E947B0C980149E068E0CE010E94DD
:102090007B0C30C08EEF8E0F823010F0E53051F5A2
:1020A000CB01AA2797FDA095BA2FAC013327222791
:1020B000C601AA2797FDA095BA2F282B392B4A2BAA
:1020C0005B2B6AE2CE010E947E0EC701AA2797FD14
:1020D000A095BA2FAC0133272227C801AA2797FD64
:1020E000A095BA2F282B392B4A2B5B2B6BE2CE0104
:1020F0000E947E0EE88DF98D808198A1892B8083C6
:10210000DF91CF911F910F91FF90EF90DF90CF90D3
:10211000BF90AF909F908F900895CF92DF92EF92F3
:10212000FF920F931F93CF93DF93EC016901780126
:10213000121613060CF04FC057FD4DC08A859B85C3
:10214000481759070CF047C08885998568177907A3
:102150000CF041C0FB01E20FF31F9F012150310938
:1021600037FD39C077FF03C06F0160E070E02817CA
:10217000390734F09C01215031096C01C61AD70A85
:102180008A01CE010E948C0F9601442737FD4095AD
:10219000542FB701CE010E9440088F89811110C0D1
:1021A0000A851B850150110928853985215031097F
:1021B00040E050E060E070E0CE010E948C0F0BC068
:1021C000CE01DF91CF911F910F91FF90EF90DF90A3
:1021D000CF900C94F10CDF91CF911F910F91FF9054
:1021E000EF90DF90CF900895CF92DF92EF92FF9221
:1021F0000F931F93CF93DF93EC01690178011216BF
:1022000013060CF04FC077FD4DC08885998568177F
:1022100079070CF047C08A859B85481759070CF051
:1022200041C09A012C0D3D1D89010150110917FD76
:1022300039C057FF03C0690140E050E00817190793
:1022400034F08C01015011096C01C41AD50A9B01AC
:10225000CE010E948C0F9601442737FD4095542FE4
:10226000B701CE010E9440088F89811110C00A85F4
:102270001B8501501109288539852150310940E01D
:1022800050E060E070E0CE010E948C0F0BC0CE01E8
:10229000DF91CF911F910F91FF90EF90DF90CF9042
:1022A0000C94F10CDF91CF911F910F91FF90EF9063
:1022B000DF90CF9008958F929F92AF92BF92CF926E
:1022C000DF92EF92FF920F931F93CF93DF93EC0176
:1022D000590168014701121613060CF06BC0101665
:1022E00011060CF067C088859985681779070CF08E
:1022F00061C0EA84FB844E155F050CF05BC0FB01F6
:10230000E20FF31F9F012150310937FD53C0DA015D
:10231000A00FB11F8D010150110917FD4BC077FFB0
:1023200003C05F0160E070E057FF03C06D0140E053
:1023300050E02817390734F09C01215031095C0125
:10234000A61AB70A0E151F0534F0870101501109AE
:102350006701C41AD50ACE010E948C0F9601D501DF
:102360000E94261F9B01AC01B401CE010E944008CF
:102370008F89811110C00A851B850150110928859C
:1023800039852150310940E050E060E070E0CE0135
:102390000E948C0F0FC0CE01DF91CF911F910F9142
:1023A000FF90EF90DF90CF90BF90AF909F908F9075
:1023B0000C94F10CDF91CF911F910F91FF90EF9052
:1023C000DF90CF90BF90AF909F908F900895EF9245
:1023D000FF920F931F93CF93DF93EC017B018F89C3
:1023E000811127C0ED89E150E33068F4F0E0DF01AE
:1023F000A05CBE4F4C9150E0EE0FFF1FE65CFE4F1D
:102400000081118104C000E010E040E050E0E88D60
:10241000F98D80819CA18923808360E270E0CE01E8
:102420000E94110CA80161E270E0CE010E94110C23
:1024300012C08150853078F40A851B85015011093E
:10244000288539852150310940E050E060E070E096
:10245000CE010E948C0F20E03CE241E050E0B70149
:10246000CE01DF91CF911F910F91FF90EF900C94CF
:102470004008AF92BF92CF92DF92EF92FF920F93FC
:102480001F93CF93DF93EC015B017A01690177FD24
:10249000E7C057FDE5C088859985681779070CF076
:1024A000DFC08A859B85481759070CF0D9C0E88D95
:1024B000F98D80819CA1892380838F89982F9B7FB0
:1024C000B1F58D89823059F08330B1F08130D1F48B
:1024D0008FEE90E0841B950B7B015C0113C08FEEA7
:1024E00090E09C01261B370B59018FE391E09C0182
:1024F000241B350B790106C08FE391E0861B970BF7
:102500005A017C01A50160E270E0CE010E94110C2D
:10251000A70161E270E0CE010E94110CA601409576
:10252000509562E270E0CE010E94110C93C08130A0
:1025300041F5ED89E150E33028F4F0E0E95CFE4F2D
:10254000408101C040E066E1CE010E94D50B9501BB
:1025500043E062E0CE010E947B0C970147E066E019
:10256000CE010E947B0CEA8DFB8D80819DA1892389
:1025700080838BB1837080628BB985B18C7F8260E0
:1025800026C09EEF980F923018F0853009F062C097
:102590000A851B850150110928853985215031098B
:1025A000A701B501CE010E948C0FE88DF98D8081C5
:1025B0009CA189238083EA8DFB8D80819DA1892345
:1025C00080838BB183708C628BB985B18C7F85B928
:1025D000EC8DFD8D80819EA189238083EC8DFD8D06
:1025E00080819AA1892B8083EA8DFB8D808199A1BE
:1025F000892B80839BB18D2D8C7F9370892B8BB918
:1026000095B18D2D83709C7F892B85B9EC8DFD8DC7
:1026100080819EA189238083EC8DFD8D80819AA18C
:10262000892B80839BB18C2D8C7F9370892B8BB9E8
:1026300095B18C2D83709C7F892B85B9EC8DFD8D98
:1026400080819EA189238083EC8DFD8D80819AA15C
:10265000892B8083E88DF98D808198A1892B8083D7
:10266000DF91CF911F910F91FF90EF90DF90CF906E
:10267000BF90AF900895DF92EF92FF920F931F9358
:10268000CF93DF93EC010E94D007E88DF98D808114
:102690009CA1892380838F898B7F11F5ED89E1507F
:1026A000E33040F4F0E0EE0FFF1FEF5CFE4F40819F
:1026B000518102C040E350E163E070E0CE010E942E
:1026C000110C0A851B850150110928853985215077
:1026D000310940E050E060E070E0CE010E948C0FD4
:1026E0008F89813089F4ED89E150E33028F4F0E0FE
:1026F000E25DFE4F408101C040E066E1CE010E94F4
:10270000D50BCE010E94F10C8F89823039F58D896D
:10271000813059F038F0823059F0833059F438E282
:10272000D32E08C028E8D22E05C098EED92E02C0BC
:1027300088E4D82E4D2D66E3CE010E94D50B0A8584
:102740001B8501501109288539852150310940E048
:1027500050E060E070E0CE010E948C0F8F898330E2
:1027600031F58D89813059F038F0823059F083305D
:1027700051F400E6E02E07C010ECE12E04C0B0EAF0
:10278000EB2E01C0E12C4E2D66E3CE010E94D50B4D
:102790000A851B8501501109288539852150310989
:1027A00040E050E060E070E0CE010E948C0F8F8925
:1027B000853039F58D89813059F038F0823059F003
:1027C000833059F4A8EEFA2E08C0FAE0FF2E05C0B7
:1027D000E8E2FE2E02C078E8F72E4F2D66E3CE0128
:1027E0000E94D50B0A851B85015011092885398562
:1027F0002150310940E050E060E070E0CE010E94DD
:102800008C0FDF91CF911F910F91FF90EF90DF9090
:1028100008950F931F93CF93DF93EC018B010E94D8
:10282000E50768EC70E080E090E00E94A01A0532B5
:1028300083E9180721F00832E3E91E0741F51F8AF2
:10284000E88DF98D80819CA1892380830FE116E0BA
:10285000F80185919491F8013296459154918F3FFA
:10286000910531F4BA0180E090E00E94A01A04C002
:10287000BC01CE010E94110C0C5F1F4FF6E0073E19
:102880001F0731F76D89CE010E943B13FBC1013454
:1028900083E9180709F078C082E08F8BE88DF98D05
:1028A00080819CA18923808380E0E82FF0E0ED54B3
:1028B000FA4F949112E0180F61E0680FE62FF0E0F4
:1028C000ED54FA4F64919F3F31F470E080E090E066
:1028D0000E94A01A54C0A88DB98D2C913CA123232D
:1028E0002C93AA8DBB8D2C913DA123232C933BB11E
:1028F000292F2C7F3370232B2BB925B193702C7F7C
:10290000922B95B9EC8DFD8D90812EA19223908311
:10291000EC8DFD8D90812AA1922B9083EA8DFB8D09
:10292000908129A1922B9083860F8E5FE12FE8176B
:10293000F9F031E03E0FF0E0ED54FA4FE4912BB1A5
:102940009E2F9C7F2370922B9BB995B1E3709C7F47
:10295000E92BE5B9EC8DFD8D90812EA1922390831A
:10296000EC8DFD8D90812AA1922B9083E32FDFCFF8
:10297000160FE88DF98D808198A1892B80831C36F4
:1029800008F009C2812F91CF0735E3E81E0709F04F
:1029900078C083E08F8BE88DF98D80819CA189239D
:1029A000808380E0E82FF0E0E951F94F949112E044
:1029B000180F61E0680FE62FF0E0E951F94F6491DC
:1029C0009F3F31F470E080E090E00E94A01A54C074
:1029D000A88DB98D2C913CA123232C93AA8DBB8D5E
:1029E0002C913DA123232C933BB1292F2C7F3370B5
:1029F000232B2BB925B193702C7F922B95B9EC8D9D
:102A0000FD8D90812EA192239083EC8DFD8D908180
:102A10002AA1922B9083EA8DFB8D908129A1922B84
:102A20009083860F8E5FE12FE817F9F031E03E0FBB
:102A3000F0E0E951F94FE4912BB19E2F9C7F237078
:102A4000922B9BB995B1E3709C7FE92BE5B9EC8D96
:102A5000FD8D90812EA192239083EC8DFD8D908130
:102A60002AA1922B9083E32FDFCF160FE88DF98DEB
:102A7000808198A1892B8083163408F08CC1812F26
:102A800091CF0537F5E71F0761F581E08F8BE88D62
:102A9000F98D80819CA1892380830DE217E0F801E4
:102AA0008491319644918F3F39F4642F70E080E037
:102AB00090E00E94A01A04C0682FCE010E94D50B9E
:102AC0000E5F1F4FF7E003381F0749F76D89CE01EE
:102AD0000E943B13CE01DF91CF911F910F910C9477
:102AE000F10C043581E0180709F0D8C084E08F8B21
:102AF000E88DF98D80819CA1892380834AE150E093
:102B000061E170E0CE010E94110C41E251E362E10B
:102B100070E0CE010E94110C4CE650E063E170E0E1
:102B2000CE010E94110C49E452E464E170E0CE0150
:102B30000E94110C40E058E060E170E0CE010E947C
:102B4000110C6AE070E080E090E00E94A01A4AE177
:102B500051E061E170E0CE010E94110C6AE070E08A
:102B600080E090E00E94A01A4AE153E061E170E049
:102B7000CE010E94110C6AE070E080E090E00E94BB
:102B8000A01A4AE157E061E170E0CE010E94110C09
:102B90006AE070E080E090E00E94A01A4AE15FE005
:102BA00061E170E0CE010E94110C64E170E080E010
:102BB00090E00E94A01A4AE35FE061E170E0CE017C
:102BC0000E94110C6EE170E080E090E00E94A01A7B
:102BD00048E251E061E070E0CE010E94110C40E05B
:102BE00051E062E070E0CE010E94110C40E350E140
:102BF00063E070E0CE010E94110C42E150E167E019
:102C000070E0CE010E94110C43E053E068E070E0F8
:102C1000CE010E94110C40E051E16BE070E0CE016A
:102C20000E94110C40E050E06CE070E0CE010E9488
:102C3000110C41E058E16FE070E0CE010E94110CF0
:102C400040E250E065E170E0CE010E94110C42E1EB
:102C500050E067E070E0CE010E94110C68E270E085
:102C600080E090E00E94A01A43E150E067E070E04D
:102C7000CE010E94110C47E150E067E070E0CE0108
:102C80000E94110C0FE311E02FEE30E040E050E025
:102C900060E070E0CE010E948C0F7DC007321349C6
:102CA00009F077C085E08F8BE88DF98D80819CA13C
:102CB0008923808380E0E82FF0E0ED59FA4F94916A
:102CC00012E0180F61E0680FE62FF0E0ED59FA4FBF
:102CD00064919F3F31F470E080E090E00E94A01A80
:102CE00054C0A88DB98D2C913CA123232C93AA8D7F
:102CF000BB8D2C913DA123232C933BB1292F2C7FFD
:102D00003370232B2BB925B193702C7F922B95B95F
:102D1000EC8DFD8D90812EA192239083EC8DFD8D05
:102D200090812AA1922B9083EA8DFB8D908129A11D
:102D3000922B9083860F8E5FE12FE817F9F031E038
:102D40003E0FF0E0ED59FA4FE4912BB19E2F9C7F9E
:102D50002370922B9BB995B1E3709C7FE92BE5B969
:102D6000EC8DFD8D90812EA192239083EC8DFD8DB5
:102D700090812AA1922B9083E32FDFCF160FE88D4D
:102D8000F98D808198A1892B8083103520F4812FC3
:102D900092CF8FEF8F8BDF91CF911F910F9108957D
:102DA000EF92FF920F93FC01428324830383658398
:102DB000F782E6828AE090E0918380830F91FF9012
:102DC000EF90089580E008950895FC01A281B381F9
:102DD0006A177B07BCF0248135814217530794F0B2
:102DE000818592858A0F9B1F861797075CF08385E4
:102DF0009485820F931F8417950724F081E0828BBE
:102E00008683089580E00895FC01128A81E086831C
:102E1000818B089584E090E00E945C1CFC01138289
:102E200012822091920130919301318320839093FB
:102E3000930180939201909391018093900121E0FE
:102E4000209306010895FC0181898111118A08955A
:102E5000FC0182890895AF92BF92CF92DF92EF92E8
:102E6000FF920F931F93CF93DF937C016B015A0165
:102E70008901E90109900020E9F72197C21BD30BD2
:102E800083E190E00E945C1CFC01D382C282B58287
:102E9000A48281E086838FE591E09183808385E041
:102EA0008C9F90018D9F300D11242F5F3F4F46E086
:102EB000429FC001439F900D11249287818782E336
:102EC00090E09487838785E090E096878587108BD4
:102ED0000787128A118AD70112968D919C911397B8
:102EE000908787831396FC93EE931297CF01DF911F
:102EF000CF911F910F91FF90EF90DF90CF90BF90F7
:102F0000AF900895CF92DF92EF92FF920F931F93AD
:102F1000CF93DF93EC018B016A01790183E190E0AB
:102F20000E945C1CFC0113830283D582C48281E071
:102F3000868389E691E091838083F286E18688E347
:102F400090E09487838785E090E096878587108A54
:102F50001786128A118A8A819B8190878783FB83D7
:102F6000EA83CF01DF91CF911F910F91FF90EF90F6
:102F7000DF90CF900895909391018093900181E02C
:102F8000809306010895EF92FF920F931F93CF93C2
:102F9000DF938C01EB01FC01E188F288C7010E94FC
:102FA0004921892BF1F0C7010E945E1CFE010190AE
:102FB0000020E9F7CF018C1B9D0B0E944A1FF801EE
:102FC000928B818BBE010E945221BE01F801878540
:102FD00090890E94492121E0892B09F420E0F80121
:102FE0002683DF91CF911F910F91FF90EF9008956D
:102FF0000F931F93CF93DF9300D000D000D0CDB7B5
:10300000DEB78C014AE0CE0101960E94F41D698171
:103010007A81C8010E94C317CE0101960E946E1DDD
:1030200026960FB6F894DEBF0FBECDBFDF91CF91CD
:103030001F910F910895EF92FF920F9382E1E82E76
:103040000EE02FE040E161E18DE991E00E947F0A0E
:103050009CE2E92EFF24F39407E020E14FE066E0D4
:1030600085E991E00E94D0160F91FF90EF900895AE
:10307000CF93DF9381E0809394018DE991E00E94EA
:10308000E5078DE991E00E94F40DEC01C53283E97A
:10309000D807A9F0CE0187529349029780F0C5372F
:1030A00085E7D80761F0C13483E9D80741F0C73517
:1030B00083E8D80721F0C43581E0D80769F4BE0160
:1030C0008DE991E00E94091460E070E08DE991E0E3
:1030D000DF91CF910C94E71163EA77E08FEC91E0F8
:1030E0000E949E1C40E150E0BE018FEC91E0DF9118
:1030F000CF910C94581D1F93CF93DF93EC01162FA3
:10310000662331F060E070E08DE991E00E94E71104
:103110000A80DB81C02D209789F0111103C08E81B8
:10312000882341F0E881F9810190F081E02D612F41
:10313000CE0109950F80D885C02DEDCFDF91CF91BD
:103140001F91089580919401811106C063E877E092
:103150008FEC91E00C94E01C809190019091910192
:10316000009731F060910601109206010C947B18D3
:1031700008952F923F924F925F926F927F928F921B
:103180009F92AF92BF92CF92DF92EF92FF920F93F6
:103190001F93CF93DF93CDB7DEB728970FB6F89480
:1031A000DEBF0FBECDBF5C0178876F832A01490166
:1031B0003801FA82E98216017B01E20EF31EC12C6E
:1031C000D12CCA01821993099E838D83F901E219DA
:1031D000F309FC83EB83E1E0EE1AF108C214D30497
:1031E000CCF54F8158854C0D5D1D83012D813E81AD
:1031F000B5018DE991E00E948D1009811A8192013B
:10320000A701B5018DE991E00E948D10B6016A0D0C
:103210007B1D83012B813C814F8158858DE991E095
:103220000E94F410B701681979096A0D7B1D640DBD
:10323000751D8F819885681B790B09811A812B81F7
:103240003C81AC018DE991E00E94F4109FEFC91A16
:10325000D90AC1CF28960FB6F894DEBF0FBECDBFF6
:10326000DF91CF911F910F91FF90EF90DF90CF9062
:10327000BF90AF909F908F907F906F905F904F9096
:103280003F902F900895CF92DF92EF92FF920F938D
:103290001F93CF93DF93EC011E82662369F10B85A8
:1032A0001C8529853A854C815D816A817B81B4E3E7
:1032B000EB2EB5EAFB2E8DE991E00E945B116D8546
:1032C0008DE991E00E94BE076FE170E08DE991E029
:1032D0000E94C4074C815D81485F5F4F6A817B819A
:1032E0006A5F7F4F8DE991E00E94B8076F8578890A
:1032F0008DE991E00E94C31CEA892B853C854985B4
:103300005A856C817D818A819B81A3E0CA2ED12C54
:10331000EE2339F0FBEDEF2EFEEDFF2E09E41AE46B
:1033200006C0E9E4EE2EEAE4FE2E0BED1EED0E944F
:10333000B918DF91CF911F910F91FF90EF90DF901F
:10334000CF9008958F929F92AF92BF92CF92DF92CB
:10335000EF92FF920F931F93CF93DF93EC01F62E22
:103360001E828F84988809891A89F80101900020AB
:10337000E9F7CF0101975C01A01AB10AC5010196D6
:103380000E944A1F988B8F87B8010E945221FF200C
:1033900019F10B851C8529853A854C815D816A81EF
:1033A0007B81F4E3EF2EF5EAFF2E8DE991E00E9498
:1033B0005B112B853C8549855A856C817D81A3E015
:1033C000CA2ED12CB9E4EB2EBAE4FB2E09E41AE4A0
:1033D0008A819B810E94B9186D858DE991E00E94D8
:1033E000BE0744E355EA60E078EF8DE991E00E9482
:1033F000CA074C815D81485F5F4F6A817B816A5F4C
:103400007F4F8DE991E00E94B8076F8578898DE93B
:1034100091E00E94C31CF40101900020E9F731976C
:10342000E819F909AE16BF067CF444E355EA64E3F3
:1034300075EA8DE991E00E94CA07B4016A0D7B1D0F
:103440008DE991E00E94C31CC401DF91CF911F91CF
:103450000F91FF90EF90DF90CF90BF90AF909F9033
:103460008F900C945E1C1F920F920FB60F92112436
:103470002F933F938F939F93AF93BF938091C701F7
:103480009091C801A091C901B091CA013091C601C3
:1034900023E0230F2D3720F40196A11DB11D05C097
:1034A00026E8230F0296A11DB11D2093C60180932B
:1034B000C7019093C801A093C901B093CA0180913C
:1034C000CB019091CC01A091CD01B091CE0101969C
:1034D000A11DB11D8093CB019093CC01A093CD0190
:1034E000B093CE01BF91AF919F918F913F912F915A
:1034F0000F900FBE0F901F9018953FB7F8948091D2
:10350000CB019091CC01A091CD01B091CE0126B517
:10351000A89B05C02F3F19F00196A11DB11D3FBF0B
:103520006627782F892F9A2F620F711D811D911D9B
:1035300042E0660F771F881F991F4A95D1F70895BB
:10354000CF92DF92EF92FF92CF93DF936B017C01DA
:103550000E947D1AEB01C114D104E104F10489F049
:103560000E94201E0E947D1A6C1B7D0B683E7340DA
:1035700090F381E0C81AD108E108F108C851DC4F86
:10358000EACFDF91CF91FF90EF90DF90CF90089539
:10359000019739F0880F991F880F991F029701979B
:1035A000F1F70895789484B5826084BD84B5816014
:1035B00084BD85B5826085BD85B5816085BDEEE63B
:1035C000F0E0808181608083E1E8F0E0108280811A
:1035D00082608083808181608083E0E8F0E0808188
:1035E00081608083E1EBF0E0808184608083E0EBA8
:1035F000F0E0808181608083EAE7F0E08081846090
:1036000080838081826080838081816080838081EB
:10361000806880831092C1000895833081F028F47F
:10362000813099F08230A1F008958730A9F0883078
:10363000B9F08430D1F4809180008F7D03C08091F7
:1036400080008F7780938000089584B58F7702C0C3
:1036500084B58F7D84BD08958091B0008F7703C0BD
:103660008091B0008F7D8093B0000895CF93DF9359
:1036700090E0FC01EF52F84F2491FC01EB51F84F20
:103680008491882349F190E0880F991FFC01ED5F38
:10369000F74FA591B4918750984FFC01C591D491F3
:1036A0009FB7611108C0F8948C91209582238C9368
:1036B000888182230AC0623051F4F8948C91322FB1
:1036C000309583238C938881822B888304C0F8945F
:1036D0008C91822B8C939FBFDF91CF9108950F9394
:1036E0001F93CF93DF931F92CDB7DEB7282F30E023
:1036F000F901E354F84F8491F901EF52F84F149116
:10370000F901EB51F84F04910023C9F0882321F00F
:1037100069830E940D1B6981E02FF0E0EE0FFF1F0F
:10372000E750F84FA591B4919FB7F8948C9161112F
:1037300003C01095812301C0812B8C939FBF0F90F4
:10374000DF91CF911F910F9108950E943B211F920D
:103750000F920FB60F9211242F938F939F93EF9395
:10376000FF93E091DF01F091E0018081E091E501BC
:10377000F091E60182FD12C090818091E8018F5F97
:103780008F732091E901821751F0E091E801F0E098
:10379000E153FE4F958F8093E80101C08081FF9136
:1037A000EF919F918F912F910F900FBE0F901F90CF
:1037B00018951F920F920FB60F9211242F933F93DB
:1037C0004F935F936F937F938F939F93AF93BF9329
:1037D000EF93FF938FEC91E00E945C1EFF91EF91BD
:1037E000BF91AF919F918F917F916F915F914F9119
:1037F0003F912F910F900FBE0F901F9018958FEC57
:1038000091E00E94211E21E0892B09F420E0822F03
:1038100008951092D2011092D10188EE93E0A0E0B9
:10382000B0E08093D3019093D401A093D501B093DD
:10383000D60183E791E09093D0018093CF0185EC8E
:1038400090E09093DC018093DB0184EC90E0909316
:10385000DE018093DD0180EC90E09093E0018093A5
:10386000DF0181EC90E09093E2018093E10182EC32
:1038700090E09093E4018093E30186EC90E09093D4
:10388000E6018093E5011092E8011092E90110929F
:10389000EA011092EB01089508950E94D21A0E9445
:1038A0004C1C0E943404CEE4DEE10E943C042097CC
:1038B000E1F30E944E1EF9CF0C944A1F0C94E21FB4
:1038C000CF92DF92EF92FF920F931F93CF93DF93EC
:1038D0006C017A01EB01E60EF71E00E010E0CE1558
:1038E000DF0561F06991D601ED91FC910190F081C5
:1038F000E02DC6010995080F191FF1CFC801DF910E
:10390000CF911F910F91FF90EF90DF90CF9008958E
:103910006115710581F0DB010D900020E9F7AD0123
:1039200041505109461B570BDC01ED91FC9102807F
:10393000F381E02D099480E090E00895EF92FF92EA
:103940000F931F93CF93DF938C01FB01C0E0D0E076
:1039500064917F018FEFE81AF80A662361F0D801BD
:10396000ED91FC910190F081E02DC8010995C80FFF
:10397000D91FF701EDCFCE01DF91CF911F910F91AC
:10398000FF90EF9008950C94881CDC01ED91FC9160
:103990000190F081E02D09940F931F93CF93DF9353
:1039A000EC016DE00E94C51C8C016AE0CE010E9412
:1039B000C51C800F911FDF91CF911F910F9108952A
:1039C0000F931F93CF93DF93EC010E949E1C8C01F9
:1039D000CE010E94CC1C800F911FDF91CF911F91CF
:1039E0000F9108958F929F92AF92BF92CF92DF92E4
:1039F000EF92FF920F931F93CF93DF93CDB7DEB774
:103A0000A1970FB6F894DEBF0FBECDBF7C01C42EC8
:103A1000E52FCB01D22E19A221E02D1510F02AE0BE
:103A2000D22E8E010F5D1F4F8D2C912CA12CB12C0D
:103A30006C2D7E2FA50194010E94041F8C2DD29E17
:103A400080191124015011098A3014F4805D01C0DD
:103A5000895CF8018083211531054105510521F06C
:103A6000C22EE32FCA01E4CFB801C7010E94881C0F
:103A7000A1960FB6F894DEBF0FBECDBFDF91CF91F8
:103A80001F910F91FF90EF90DF90CF90BF90AF907C
:103A90009F908F9008952115310541F4DC01ED913F
:103AA000FC910190F081E02D642F09940C94F21C9C
:103AB0000F931F93CF93DF93EC019A01AB0160E06A
:103AC00070E00E944B1D8C01CE010E94CC1C800F27
:103AD000911FDF91CF911F910F910895FC0180817B
:103AE00091810C94E21FCF93DF93EC01888199813F
:103AF000009711F00E94E21F198218821D821C8219
:103B00001B821A82DF91CF9108950F931F93CF9359
:103B1000DF93EC018B016F5F7F4F888199810E9459
:103B20007120009731F0998388831B830A8381E099
:103B300001C080E0DF91CF911F910F910895CF9345
:103B4000DF93EC0188819981892B29F08A819B81FF
:103B50008617970760F4CE010E94851D882341F0E7
:103B60008C819D81892B19F4E881F981108281E093
:103B7000DF91CF910895EF92FF920F931F93CF9310
:103B8000DF93EC017B018A01BA010E949F1D811124
:103B900004C0CE010E94731D07C01D830C83B701B2
:103BA000888199810E945221CE01DF91CF911F918E
:103BB0000F91FF90EF900895CF93DF93EC01611583
:103BC000710561F0FB0101900020E9F7AF01415060
:103BD0005109461B570B0E94BB1D02C00E94731D5A
:103BE000CE01DF91CF9108950F931F93CF93DF9371
:103BF000CDB7DEB762970FB6F894DEBF0FBECDBF6C
:103C00008C01CB01F801118210821382128215827D
:103C1000148250E0BE016F5F7F4F0E945921BE01A8
:103C20006F5F7F4FC8010E94DC1D62960FB6F8944B
:103C3000DEBF0FBECDBFDF91CF911F910F910895D1
:103C40000895FC01818D228D90E0805C9F4F821B46
:103C500091098F7399270895FC01918D828D981792
:103C600031F0828DE80FF11D858D90E008958FEF82
:103C70009FEF0895FC01918D828D981761F0828DE0
:103C8000DF01A80FB11D5D968C91928D9F5F9F7390
:103C9000928F90E008958FEF9FEF08958FEF9BE153
:103CA000892B49F080E090E0892B29F00E94FF1BCE
:103CB00081110C9400000895FC01848DDF01A80F90
:103CC000B11DA35ABF4F2C91848D90E001968F7344
:103CD0009927848FA689B7892C93A089B1898C9163
:103CE00080648C93938D848D981306C00288F38929
:103CF000E02D80818F7D80830895CF93DF93EC0149
:103D0000888D8823C9F0EA89FB89808185FD05C0FB
:103D1000A889B9898C9186FD0FC00FB607FCF5CF35
:103D2000808185FFF2CFA889B9898C9185FFEDCF7D
:103D3000CE010E945C1EE7CFDF91CF910895CF9214
:103D4000DF92FF920F931F93CF93DF931F92CDB714
:103D5000DEB76C01DC015B969C915B975C968C9165
:103D60005C97981307C05096ED91FC915197808114
:103D700085FD32C0F601038D10E00F5F1F4F0F73FA
:103D80001127F02EF601848DF81211C00FB607FC32
:103D9000F9CFD6015096ED91FC915197808185FF26
:103DA000F1CFC60169830E945C1E6981EBCF838DD0
:103DB000E80FF11DE35AFF4F6083D6015B960C9329
:103DC0005B975296ED91FC9153978081806280833E
:103DD00081E058968C930DC0D6015696ED91FC91DA
:103DE000579760835096ED91FC9151978081806444
:103DF000808381E090E00F90DF91CF911F910F9130
:103E0000FF90DF90CF900895A1E21A2EAA1BBB1B52
:103E1000FD010DC0AA1FBB1FEE1FFF1FA217B30796
:103E2000E407F50720F0A21BB30BE40BF50B661FAC
:103E3000771F881F991F1A9469F760957095809570
:103E400090959B01AC01BD01CF0108950E942E1FEA
:103E5000332312F48A1B9B0B0C943F1FA29FB001CB
:103E6000B39FC001A39F700D811D1124911DB29FAE
:103E7000700D811D1124911D08950E942E1FB7FF02
:103E80000895821B930B0895EE0FFF1F0590F49188
:103E9000E02D0994CF93DF938230910510F482E0F6
:103EA00090E0E0916E02F0916F0220E030E0A0E03F
:103EB000B0E0309739F14081518148175907B8F087
:103EC0004817590771F482819381109729F013964E
:103ED0009C938E9312972CC090936F0280936E02E6
:103EE00027C02115310531F04217530718F0A901F9
:103EF000DB0101C0EF019A01BD01DF010280F38106
:103F0000E02DD7CF21153105F9F0281B390B2430CE
:103F1000310580F48A819B816115710521F0FB01D7
:103F20009383828304C090936F0280936E02FE019C
:103F3000329644C0FE01E20FF31F81939193225009
:103F40003109398328833AC020916C0230916D0287
:103F5000232B41F4209102013091030130936D0233
:103F600020936C022091000130910101211531054F
:103F700041F42DB73EB74091040150910501241B37
:103F8000350BE0916C02F0916D02E217F307A0F49B
:103F90002E1B3F0B2817390778F0AC014E5F5F4F9F
:103FA0002417350748F04E0F5F1F50936D02409362
:103FB0006C028193919302C0E0E0F0E0CF01DF91C9
:103FC000CF910895CF93DF93009709F487C0FC0148
:103FD000329713821282C0916E02D0916F022097A5
:103FE00081F420813181280F391F80916C029091DA
:103FF0006D028217930779F5F0936D02E0936C02DE
:104000006DC0DE0120E030E0AE17BF0750F412961D
:104010004D915C9113979D014115510509F1DA010C
:10402000F3CFB383A28340815181840F951F8A17F8
:104030009B0771F48D919C911197840F951F0296A7
:104040009183808312968D919C91139793838283A1
:104050002115310529F4F0936F02E0936E023EC002
:10406000D9011396FC93EE9312974D915D91A40F95
:10407000B51FEA17FB0779F480819181840F951FA2
:104080000296D90111969C938E9382819381139607
:104090009C938E931297E0E0F0E08A819B810097D9
:1040A00019F0FE01EC01F9CFCE0102962881398189
:1040B000820F931F20916C0230916D0228173907EF
:1040C00069F4309729F410926F0210926E0202C0C8
:1040D00013821282D0936D02C0936C02DF91CF9154
:1040E0000895A0E0B0E0E7E7F0E20C949D21EC0138
:1040F000CB01209719F40E944A1FB8C0FE01E60FB9
:10410000F71F9E0122503109E217F30708F4ACC0F3
:10411000D9010D911C91119706171707B8F00530BA
:10412000110508F49FC0A8014450510946175707CC
:1041300008F498C002501109061B170B0193119344
:104140006D937C93CF010E94E21F8CC05B01A01A8B
:10415000B10A4E01800E911EA0916E02B0916F02C5
:10416000612C712C60E070E0109709F449C0A8152B
:10417000B905C9F5ED90FC901197670142E0C40EB6
:10418000D11CCA14DB0478F147018A189B0864012A
:1041900042E0C40ED11C1296BC9012971396AC91BB
:1041A000B5E0CB16D10440F0B282A3839182808225
:1041B000D9018D939C9309C00E5F1F4F0E0D1F1DDB
:1041C000F90111830083EB2DFA2F6115710531F090
:1041D000DB011396FC93EE93129744C0F0936F02A9
:1041E000E0936E023FC06D917C9111976616770641
:1041F00008F43B01BD0112960D90BC91A02DB4CFE7
:1042000060916C0270916D0268157905E9F4681689
:104210007906D0F4409100015091010141155105FA
:1042200041F44DB75EB76091040170910501461BE2
:10423000570BE417F507C0F4F0936D02E0936C029E
:10424000F901918380830EC00E944A1F7C01009770
:1042500059F0A801BE010E944021CE010E94E21F38
:10426000C70104C0CE0102C080E090E0CDB7DEB748
:10427000EEE00C94B92181E090E0F8940C94D02108
:10428000FB01DC0102C001900D9241505040D8F773
:104290000895FB01DC018D91019080190110D9F383
:1042A000990B0895FB01DC0101900D920020E1F7CC
:1042B00008954532510520F4423010F00C946421E9
:1042C000FB011082CB010895BB274A3031F49923BA
:1042D00022F4BDE2909581959F4F0C947021BB27ED
:1042E000FB015527AA27880F991FAA1FA41710F0B2
:1042F000A41B83955051B9F7A05DAA3308F0A95DBE
:10430000A193009779F7B111B1931192CB010C945D
:104310008921DC01FC01672F71917723E1F7329746
:1043200004C07C916D9370836291AE17BF07C8F390
:1043300008952F923F924F925F926F927F928F9249
:104340009F92AF92BF92CF92DF92EF92FF920F9324
:104350001F93CF93DF93CDB7DEB7CA1BDB0B0FB62E
:10436000F894DEBF0FBECDBF09942A8839884888EB
:104370005F846E847D848C849B84AA84B984C88481
:10438000DF80EE80FD800C811B81AA81B981CE0F78
:10439000D11D0FB6F894DEBF0FBECDBFED0108955D
:0443A000F894FFCFBF
:1043A400000070028000012B002D0057696E32005E
:1043B400526573657400000000006407601CA51B4F
:1043C400E704ED0504069E051A064F066D0660C057
:1043D400A028100010181060C0A000003F013F0189
:1043E400EFEF00000000006407601C3912E704F4DA
:1043F400108D109E055B11E7116D0600000000434F
:1044040019E516041700000000A219E216E41600CC
:104414000000009F1E601C211E3A1E2C1E7D1E00E3
:00000001FF
